:02000002B0004C
:1040000000400B00DC930B00000006000C000502D2
:084010000401A60F00000000EE
:04401800EC820B002B
:1040200009480A49884208B505D0094A824202D0A7
:10403000121A04F09FF80748074A0021121A04F0E8
:10404000A7F8014808BD00BFE8DE0320B88D0B00CB
:10405000E4E40320E4E40320EDE7032070B5074E19
:10406000074C03F00DFAA41BA4080025AC4200D1B4
:1040700070BD56F8043B98470135F7E7608D0B009B
:10408000888D0B0000F03EBA08B500F009FCBDE8D1
:10409000084003F0ADB902F00BB902F009B902F023
:1040A0000FB9000008B5034A03490C2002F064F878
:1040B000FEE700BF995D0B0000830B000078B0FAAB
:1040C00080F0400970470123037070472F2810B516
:1040D00004460DD9094A0A490A2002F04DF8094B55
:1040E00004F01F04D3F81005E04000F0010010BDFB
:1040F0001F28F4D84FF0A043F4E700BF995D0B00F0
:1041000015830B00000300502DE9F843DFF82C81E4
:10411000876898F80030484DBFF35B8F13F0010FAC
:10412000044609D14046FFF7C9FF28B101F04CFE13
:1041300028604046FFF7C7FFBFB22B683F01DE5D36
:1041400098F80030BFF35B8FD9074FEA461909D4BE
:104150003A48FFF7B3FF28B101F036FE2860374830
:10416000FFF7B1FF2B683B445E7806F01F0646EA76
:1041700009063046FFF7AAFF3046FFF7A7FFE768BA
:1041800098F80030BFF35B8FDA07C6B209D42B482A
:10419000FFF794FF28B101F017FE28602748FFF7CA
:1041A00092FFBFB22B683F0113F8079098F80030D8
:1041B000BFF35B8FDB074FEA491909D41F48FFF7AC
:1041C0007DFF28B101F000FE28601C48FFF77BFF4F
:1041D0002B681F447D7805F01F0545EA0905284630
:1041E000FFF774FF2846FFF771FF237CC0B203F08E
:1041F00003030EB143F0040308B143F008039A0827
:10420000013B22740D2B0BD8DFE803F0070C0F0CD9
:104210000A120707120A0C0F0C0763690133636166
:10422000BDE8F8836369013BF9E763690233F6E7A8
:104230006369023BF3E700BFE8E40320E4E4032002
:1042400010B403685A6899681B68541001EB620047
:10425000D20748BF0A595DF8044B48BFD3581847E6
:10426000012A38B5044602D10B68236003E0022A14
:1042700003D0032A0DD0002038BD0C200D68FFF7B5
:104280000AFF03460028F0D095E8070083E80700FE
:10429000EBE700680028EED00C21FFF700FFEAE70B
:1042A000F0B58DB002AD85E80600064695E803003E
:1042B00005AC84E805001F460C2000230A93FFF795
:1042C000EAFE024620B194E8030082E8030097600A
:1042D0000B4B0B930B4B0A939DF8503008920093B5
:1042E0009DF848209DF94C3008A9304602F036F977
:1042F0000A9B1BB108A90322084698470DB0F0BDE0
:1043000041420B0061420B000EB403B503AB002128
:1043100053F8042B019302F0FEFA02B05DF804EBAF
:1043200003B0704738B584690A4B036005467CB119
:104330006368013B63605BB9236820469B689847CC
:10434000A368013BA3601BB923682046DB6898473C
:10435000284638BDFC8A0B0010B50446FFF7E2FF83
:1043600020461C21FFF79BFE204610BD10B50446D9
:1043700001F022FD2368C01A6368984234BF002010
:10438000012010BD2DE9F04F0F460446164689B0B6
:104390000221384603F0E4F80221304603F0E0F849
:1043A000DFF858B1E6600023C4E901372360636198
:1043B0004FF4FA6001F0F0FCD4F808A09BF800304C
:1043C0004D4DBFF35B8F13F0010F09D15846FFF736
:1043D00075FE28B101F0F8FC28605846FFF773FE1F
:1043E0001FFA8AFA2B684FEA0A1A13F80A809BF818
:1043F0000030BFF35B8FD9074FEA481909D43F4813
:10440000FFF75CFE28B101F0DFFC28603B48FFF7B6
:104410005AFE2B68534493F8018008F01F0848EABD
:1044200009084046FFF752FE4046FFF74FFED4F81A
:104430000CA09BF80030BFF35B8FB0F1000818BFF1
:104440004FF00108DA0709D42C48FFF737FE28B1EE
:1044500001F0BAFC28602948FFF735FE1FFA8AFAF6
:104460002B684FEA0A1A13F80A909BF80030BFF342
:104470005B8FDB074FEA491909D42048FFF71EFE7E
:1044800028B101F0A1FC28601C48FFF71CFE2B6836
:104490009A449AF8015005F01F0545EA0905284697
:1044A000FFF714FE2846FFF711FE08B148F0020896
:1044B000DFF84C9084F8108000254FF0FF38234639
:1044C0002A4649463846CDE900580295CDF8109065
:1044D0000595FFF7E5FECDE90695CDE90185009547
:1044E00008AA304612E906002346FFF7D9FE204607
:1044F00009B0BDE8F08F00BFE8E40320E4E4032046
:1045000009410B0008B502F0EDFE4FF4165102F020
:10451000DDFE3C221648022101F056FB0021144822
:1045200001F099F8124801F083FA114801F0DCFA21
:104530007621104800F010FC0F4800F082FC0E4875
:1045400000F0B8FC0221062003F00AF80121052042
:1045500003F006F80121042003F002F800210720EF
:1045600002F0FEFFBDE808400021132002F0F8BF72
:10457000D8E50320A4E503205CE5032038B5354ADF
:104580003548364C002100F041FE324A32480121C4
:1045900000F03CFE2368002B4FD101F00DFC304BA6
:1045A0006422186020212C485A6000F072FE2A48CC
:1045B00000F080FC01232360294D2846FFF7D6FE3A
:1045C00000283CD001F0F8FB3223286096212248D5
:1045D0006B6000F05EFE204800F06CFC022323605C
:1045E0001F4D2846FFF7C2FE60B301F0E5FB96239E
:1045F00028604B2118486B6000F04BFE164800F015
:1046000059FC03232360164D2846FFF7AFFEE0B1A7
:1046100001F0D2FB64232860A0210F486B6000F0FA
:1046200038FE0D4800F046FC042323600C48FFF7D9
:104630009DFE68B1002323600AE0012BBCD02368F3
:10464000022BCDD02368032BDDD02368042BEDD0C3
:1046500038BD00BF00A5FF005CE5032050E5032046
:1046600054E5032073B5304D304C01F0A9FF6E695D
:1046700001F0A8FF002E26604FDA01F0A1FF6026AE
:104680006E6101F09FFF26602723009300232068BE
:10469000274E284C284D1946602201F049FE336808
:1046A0002060984208D001F087FB244B4FF4FA7247
:1046B00018605A6001232B70236833602B7853B342
:1046C0001E48FFF753FE30B302F00CFE22681C4E6A
:1046D0001C4902EBC2023244FFF716FE1A4801F0F1
:1046E000A7F91948022100F0ACFF1748012100F09A
:1046F000ADFF15481422202100F0A0FF22681349C5
:10470000114802EBC2023244FFF7FEFD0E4801F0F1
:10471000EBF900232B7002B070BD602EB4DD01F008
:104720004FFF0026ACE700BFFCE5032078E503203F
:104730009CE503208CE5032098E5032090E5032009
:1047400000DF032011840B00D8E5032015840B0043
:1047500073B53348334D344E344C00F0CFFA10EE7D
:10476000100A03F06FFA2CA3D3E9002303F0C2FA76
:104770002F4B002203F008F903F0CEFC0121286042
:104780002C4800F05EFF2B48012100F05FFF294814
:104790003622052100F052FF2A6827492548F823D0
:1047A000FFF7B2FD234801F09FF90A230021CDE96C
:1047B0000031362280231F4800F048FE2A68336803
:1047C0009A420CD0237853B901F0F6FA1B4B42F20F
:1047D000107218605A602B683360012323703368AD
:1047E0002A68043B93420DDD237893B11348FFF709
:1047F000BDFD38B102F076FD1149FFF785FD0023BC
:10480000237006E0237823B10C48FFF7AFFD0028A2
:10481000F5D102B070BD00BFCDCCCCCCCCCCFC3F30
:10482000A4E5032070E50320A0E5032020E6032093
:1048300000004040D8E5032018840B0018E6032050
:1048400022840B0010B5132002F0C7FE104C20602C
:1048500002F048FD22680F49FFF756FD226840F636
:1048600098039A4212DD0C4A0C48002100F0CEFC5D
:104870000121094A094800F0C9FC2021074800F03D
:1048800008FDBDE81040054800F014BB0021F5E725
:1048900074E5032036840B0000A5FF005CE50320CF
:1048A00073B52F4D2C7884B1FF21052002F069FEED
:1048B0007E21042002F065FEFFF74AFFFFF7D2FEDB
:1048C00002B0BDE87040FFF7BDBFFF21052002F038
:1048D00058FE2146042002F054FE2248224E00F0E9
:1048E0000DFA10EE100A03F0ADF91BA3D3E9002373
:1048F00003F000FA1D4B002203F046F803F00CFC15
:10490000012130601A4800F09CFE1948012100F096
:104910009DFE17483622052100F090FE32681549A9
:104920001348F823FFF7F0FC114801F0DDF80A23E3
:104930000F480093362280232146019400F086FD23
:10494000FFF790FEFFF71AFE2B78002BACD102B0D8
:1049500070BD00BFAFF30080CDCCCCCCCCCCFC3F45
:1049600014E60320A4E5032070E503200000404086
:10497000D8E5032018840B0008B51F491F4802F032
:1049800005F91F4A1F4B12681A601F4A1F48126818
:104990005A601F4A12689A601E4A1268DA601E4AFC
:1049A00012681A611D4A12685A611D4A12689A619A
:1049B00002F0CAFB1B4802F0C7FB10220F211A4865
:1049C000FFF7E0FC02231A461946184800F060FA87
:1049D000174800F033F81748042101F013F8164B7C
:1049E0000022C3E90022A2F580329A60BDE80840A7
:1049F000022001F0D1BB00BF35840B007CE5032011
:104A000024E5032008E50320F4DE0320ECE4032082
:104A1000FCDE0320ECDE0320E8DE0320F0DE0320D2
:104A2000F8DE032034E50320FCE503205CE50320E9
:104A3000A4E50320D8E5032028E503204FF0FF3349
:104A4000C360704713B50B4C2178BFF35B8F11F037
:104A500001010BD120460191FFF730FB019928B1EC
:104A6000054801F095FF2046FFF72DFB024802B0F4
:104A700010BD00BF24E6032028E603202DE9F04105
:104A800090F90F30013305460F4606D1FFF7DAFFE4
:104A90003946BDE8F04102F02FB802F023FC154979
:104AA00001F011FF002407264FF0010895F90F00CF
:104AB000002180B202F065FD95F90D0008FA06F1BB
:104AC000394080B202F05DFD95F90F00012180B2FE
:104AD00002F057FD95F90E00640080B2E4B202F0D6
:104AE00069FD08B144F00104013EDFD22046BDE873
:104AF000F08100BF3A840B0070B5044690F90C00B9
:104B0000431C0E46154616D102F0BCFD217801F07B
:104B1000E9FC02F0B7FD036831469B68984702F054
:104B2000B1FD036829469B68984702F0ABFDBDE8DC
:104B3000704001F0E2BC002180B202F022FD06F0DC
:104B40007F012046FFF79AFF29462046FFF796FF90
:104B500094F90C000121BDE8704080B202F011BD53
:104B600038B5044690F90C00431C0D4620D102F0E4
:104B700089FD217801F0B6FC02F084FD0368294626
:104B80009B68984702F07EFD01F0B7FC02F07AFDC9
:104B90002178012201F0A3FC02F074FD03685B6937
:104BA0009847C5B202F06EFD01F0A7FC284638BD5B
:104BB000002180B202F0E5FC45F080012046FFF7BD
:104BC0005DFF00212046FFF759FF054694F90C00D0
:104BD000012180B202F0D5FCE8E738B5054690F92E
:104BE0000C00431C0C4628D102F04CFD297801F042
:104BF00079FC02F047FD036821469B68984702F064
:104C000041FD01F07AFC02F03DFD2978022201F01D
:104C100066FC02F037FD03685B699847044602F0C2
:104C200031FD03685B69984740EA042084B202F0D2
:104C300029FD01F062FC204638BD002180B202F05F
:104C4000A0FC44F080012846FFF718FF0021284609
:104C5000FFF714FF002104462846FFF70FFF40EA44
:104C6000042495F90C00012180B2A4B202F089FC61
:104C7000E1E708B5FFF7B1FF40BA80B208BD10B553
:104C800088210446FFF7F5FF8A2120822046FFF79E
:104C9000F0FF8C2160822046FFF7EBFF8E21A0827F
:104CA0002046FFF7E6FF9021E0822046FFF7E1FF74
:104CB000922120832046FFF7DCFF94216083204669
:104CC000FFF7D7FF9621A0832046FFF7D2FF982158
:104CD000E0832046FFF7CDFF9A2120842046FFF78E
:104CE000C8FF9C2160842046FFF7C3FF9E21A0845B
:104CF0002046FFF7BEFFE08410BD000038B5FA2162
:104D00000446FFF76AFFFC2105022046FFF728FF53
:104D1000238AB4F912109FED0F0A2843C3EB202217
:104D20005B00C3EBE013594302FB02F3B4F9142018
:104D30001B1353439B1303EBE123A36003EB830398
:104D400080331B1207EE903AF8EEE77A87EE800A7E
:104D500038BD00BF0000C84210B50446017090F98C
:104D60000C00431C18D102F0BDFA244901F0ABFD40
:104D700002F088FC01F084FBD0212046FFF7F0FE12
:104D8000582839D12046FFF77AFF20463F22F421E8
:104D9000FFF7B2FE012010BD012180B202F0F1FB4D
:104DA00094F90C00012180B202F0DAFB94F90F3083
:104DB000013309D102F096FA114901F084FDFFF7A1
:104DC00041FE01F0EFFDD7E702F08CFA0D4901F04A
:104DD0007AFD94F90F00012180B202F0C1FB94F931
:104DE0000D00012180B202F0BBFB94F90E000021FE
:104DF00080B202F0B5FBBFE70020CCE747840B0090
:104E000051840B0064840B0038B50446C0680D461D
:104E100008B101F055FAA379062B0CBF042003203A
:104E200010FB05F080B2A08001F042FAE06028B1EA
:104E3000A288002103F0ACF9658038BDA0806080B5
:104E4000FBE710B504460121C07902F089FBE07947
:104E5000002102F096FB0123237010BD37B50378C3
:104E600005460C461BB1C079002102F079FB2B7876
:104E7000EC715BB1A0B20121019002F071FB0198CD
:104E8000002103B0BDE8304002F07BBB03B030BD71
:104E900070B50025044616468371C0E903550570B8
:104EA0000572FFF7B1FF20463146FFF7D7FF2046D6
:104EB00070BD0000C368002B00F0A4812DE9F04F05
:104EC0008379023BDBB2042B9CBFBF4A52F82340DC
:104ED00085B0054688BF322400F066FF2B69C01AF2
:104EE000A042F9D3B94CAE88D4F800351BB9D4F838
:104EF0006035002B7EDBB64CD4F8003523B9D4F8EE
:104F00006035002BC0F26E81B24CD4F80035002B16
:104F100000F04481EB79B04AB04C1268190102EB01
:104F20000313575CAE495B78D1F8FC2042F08072E5
:104F3000C1F8FC20226803F01F0343EA471301274E
:104F40003A432260A988D5F80C80D4F804909F4099
:104F5000002944D04FF0000E72464FF0A04118F8DF
:104F600001CB0820802663689B1A462BFBD9626818
:104F7000D1F808351CEA060F43EA0703C1F80835E3
:104F80002FD063689B1A282BFBD9D1F80C35013838
:104F900043EA07034FEA5606C1F80C35E3D1AB8864
:104FA0000EF1010E1FFA8EFE7345D8D84FF4307102
:104FB00003FB01F163689B1A462BFBD96368A3EBE3
:104FC00009098945C0F0E4804FF4967000F0E4FED2
:104FD000A988D5F80C80D4F804900029BAD10A46E3
:104FE000E8E763689B1A112BCFD863689B1A112BD3
:104FF000F7D9CAE7D4F86435002BBFF67CAFD4F8F4
:105000006835002BBFF677AFD4F86C35002BBFF6B0
:1050100072AF3601331D1846009301F049F900289C
:105020003FF478AFAB88002B00F0ED80EA68013BDD
:1050300012FA83F702F1FF3E002348F2060248F21B
:105040000D011EF801CF1CF0800F0CBF93468B465C
:105050001CF0400F0CBF16460E461CF0200F0CBF74
:105060009046884603F10109CDF80880019603F1C6
:1050700002081FFA89F9019E20F813B01FFA88F878
:1050800020F81960029E20F8186003F103081CF054
:10509000100F1FFA88F80CBF93468B4620F818B003
:1050A00003F104081CF0080F1FFA88F80CBF9346A0
:1050B0008B4620F818B003F105081CF0040F1FFA06
:1050C00088F80CBF93468B4620F818B003F1080A05
:1050D00003F1060807339BB21CF0020F1FFA88F891
:1050E0000CBF93468B46CDF80CA01CF0010F20F8A6
:1050F00018B015BF20F8131020F813201FFA8AF3F8
:10510000BDF80C3077459CD1591C023389B29BB253
:1051100049005B004FF400474752009AC7522E4B9C
:1051200056081F6800221423C4F80425C4F80C256F
:10513000C4F80835C4F81425C4F81025C4F82005AF
:10514000C4F82465C4F82825C4F82C25EB7907EBAE
:10515000031C1B010121FE5C9CF8013003F01F03BE
:1051600043EA4613C4F86035C4F80015C4F81021AA
:10517000A160D4F81031002BFBD000234FF0FF3298
:10518000C4F81031C4F80035C4F8602501F098F86F
:1051900000F00AFE286105B0BDE8F08FD4F8603554
:1051A000002BBFF6B7AED4F86435002BBFF6B2AE15
:1051B000D4F86835002BBFF6ADAED4F86C35002BB3
:1051C000BFF6A8AE25E700BF78840B0000C0014001
:1051D000001002400020024030E60320001000E0F2
:1051E00000ED00E0D4F86435002BBFF68DAED4F8A6
:1051F0006835002BBFF688AED4F86C35002BBFF6AF
:1052000083AE06E770470423022183E743888B427D
:10521000F0B52DD9067AC2F30743C2F30724D5B2FD
:105220003EB1734374437543C3F30723C4F30724A8
:105230002D0A90F806C0C768BCF1060F0CBF042603
:1052400003264E43ACF1020CB919BCF1060F1DD870
:10525000DFE80CF0041C08040F040400BC554B707C
:105260008D7005E0FE2B28BFFE23BB554D708C7062
:10527000F0BDBB554C708D70037A120E13B9D2B2CB
:10528000CA70F5E75A43C2F30722F9E7BB554C70E1
:10529000E6E7037A4A1CD2B2934270B51FD0013BB5
:1052A00013F0FF03C4680CD0FF291FBF110201F1E6
:1052B000FF31B1FBF3F39BB204BF4FF6FF71B1FBBB
:1052C000F3F325468688291B89B28E4206D92978B0
:1052D0005943C1F3072105F8011BF3E7027270BDC2
:1052E00008B500F071FD014B186008BD30E60320E1
:1052F0002DE9F04F85B01F46BDF93880BDF83C3030
:10530000A8EB0209A7EB010AB9F1000FB8BFC9F178
:105310000009BAF1000FB8BFCAF1000AD1458346AF
:105320000C46154604DD3A462C4647460D46904647
:10533000BC4205DD2A464546904622463C46174675
:105340003E1BB2B20092A8EB050282EAE271A1EB29
:10535000E271C6F3C03202FA86F64545B4BF0122B7
:105360004FF0FF32019176100292BC421CDCDBF858
:1053700000200393D145D2F81080C7BF29462246AA
:105380002A4621465846C047019A039BB61AB1B235
:1053900036B2002E05DA029A1544009A56182DB23C
:1053A00036B2013424B2E0E705B0BDE8F08F2DE954
:1053B000F347BDF82C800768BDF92890CDF8008030
:1053C0000446FF6916468A461D46B8472368CDF84D
:1053D000008009F1FF323244DF6951462B462046F6
:1053E00012B2B8472368CDF800809F6932464B4619
:1053F00051462046B8476B1E03EB0A012368CDF8DF
:1054000028809D6932464B4609B22046AC4602B020
:10541000BDE8F047604737B5013B13440468BDF869
:10542000185001951BB2009364690B46A04703B066
:1054300030BD37B5BDF818500468CDE90025013BF3
:105440000B4464691BB2A04703B030BD2DE9F3479C
:10545000BDF92890BDF82C80054692460C46CE1822
:10546000B4420BDA2B68CDF800809F6921464B4689
:10547000524628460134B84724B2F1E702B0BDE8ED
:10548000F08713B502680191B0F90E100091546ACB
:10549000B0F90C3000221146A04702B010BD704791
:1054A00030B54281C2814FF0FF320024054D426188
:1054B000012244600560018181810461028382765A
:1054C00030BD00BF90890B002DE9F04F2DED028B10
:1054D0008DB007460491BDF860100591BDF86410C9
:1054E0000691B0F90C1004989DF86850814252DD85
:1054F000B7F90E1091424EDD062111FB0504002C78
:1055000049DD02EBC504002C45DD03EB83030B935F
:1055100093B2079308339BB2089100240993052C9A
:105520001CBF2C4B0B9A079E16BF1B1900239B5CBC
:105530000393049AABB20A9304FB05F313FA82F3C4
:105540001BB204EB020A08EE103AB0460FFA85F9D6
:105550000FFA8AFA039BDB072FD5012D3B681FD179
:10556000D3F810B0059B32B251463846D847039B5A
:105570005B0803930A9B01369844099BB6B2B34279
:105580001FFA88F8E6D1089B013B013413F0FF03B2
:1055900064B20893C3D10DB0BDEC028BBDE8F08FAF
:1055A000059ACDE9009218EE101AD3F824B00FFA3C
:1055B00088F24B463846D847D9E7DDE905239342C0
:1055C000D5D0012D3B6803D1D3F810B0069BCAE7B4
:1055D000069AE6E78C840B0030B50A2985B00446AC
:1055E00007D1027E638A03EBC20363820023238216
:1055F00021E00D291FD0037E0293C38A0193838A81
:105600000093B0F912200B46B0F91010FFF75CFFC1
:10561000207E238A00EB400103EB4103A17E1BB2F5
:105620000246238239B1B4F90C106FF0050505FB71
:1056300000118B42D6DC012005B030BD01824282D0
:105640007047012938BF012101767047C1828182EC
:105650007047407E704701F00303B0F90A2043769B
:10566000C907B0F9083059BF8381C2818281C381E3
:105670007047B0F90C007047B0F90E007047000099
:10568000F0B5457EBDF81440022D69D0032D00F021
:105690009980012D6CD10589D2432A4412B2002A87
:1056A0005DDBB0F90850954259DD0029BEBF5B189B
:1056B0001BB20021B0F90A00CD188542C4BF431ABD
:1056C0001BB2002B4BDDC1F3C400DFF820C102EB9D
:1056D000C01211F00701DBB20CEB02001AD0C1F1CD
:1056E0000805404EEDB2AB42775D3FBFA5EB030E20
:1056F000FF2646FA0EF637401CF80260012C0CBF5C
:105700003E43BE43AB420CF8026028D308390B4439
:10571000DBB28030072B19D9012C4FF0FF3518BFB1
:105720000025EDB200F180011A46083AD2B2072AEC
:1057300001F8805C01F18001F7D8A3F10802C2F3FF
:10574000C402013200EBC21003F007033BB1264A4A
:10575000D25C0378012C0CBF134393430370F0BD5C
:105760004589D2432A44CD180189491B12B209B296
:10577000002AF4DBB0F90A509542F0DD0029BEBFE3
:105780005B181BB20021B0F90870CE18BE42C4BF2E
:105790006B1A1BB2002BE2DDD010802510FB051127
:1057A0001248014402F0070001228240012CD2B2CB
:1057B0000B440CD18B42D2D011F8010B104301F8ED
:1057C000010CF7E7CD184189491B09B267E7D243BD
:1057D000D2B28B42C3D011F8010B104001F8010C7A
:1057E000F7E700BF70E0032068E0032078E00320C3
:1057F000F0B5457EBDF81440022D34D0032D00F0E5
:105800009B80012D37D1D5180289521B12B2002975
:10581000C0F29180B0F90A508D4240F38C80002A8A
:10582000BEBF9B181BB20022B0F90870D618BE424A
:10583000C4BFAB1A1BB2002B7DDDC810802510FB46
:1058400005224548024401F0070001218140012C56
:10585000C9B2134475D19A426DD012F8010B0843B6
:1058600002F8010CF7E70589C9432944D518428994
:10587000521B09B212B200295DDBB0F908508D420B
:1058800059DD002ABEBF9B181BB20022B0F90A00E6
:10589000D5188542C4BF831A1BB2002B4BDDC2F35F
:1058A000C400DFF8B4C001EBC01112F00702DBB294
:1058B0000CEB01001AD0C2F10805284EEDB2AB4244
:1058C000775D3FBFA5EB030EFF2646FA0EF6374085
:1058D0001CF80160012C0CBF3E43BE43AB420CF8E8
:1058E000016028D3083A1344DBB28030072B19D962
:1058F000012C4FF0FF3518BF0025EDB200F18001FB
:105900001A46083AD2B2072A01F8805C01F18001F8
:10591000F7D8A3F10802C2F3C402013200EBC210AF
:1059200003F007033BB10E4AD25C0378012C0CBF95
:10593000134393430370F0BD4589C943294409B219
:1059400065E7C943C9B29A42F5D012F8010B084085
:1059500002F8010CF7E700BF78E0032070E00320B5
:1059600068E0032070470000F8B50D1E0646144697
:105970001F462DDBFFF77DFEA84229DD002C27DB2B
:105980003046FFF779FEA04222DD3046FFF761FE88
:1059900002281ED0032825D0012804D13389E243F0
:1059A0001A442C4615B2002C2246B8BFE21DD21074
:1059B000802112FB01550E49012204F007044B57C8
:1059C00002FA04F464B297420CBF2343A3434B553D
:1059D000F8BD318972890139E4434D1B14442DB25D
:1059E00024B2E0E77389013B5B1B25461CB2DAE772
:1059F00078E0032010B524210446FEF750FB204632
:105A000010BD000038B5402204460D468021FFF746
:105A100047FD064B2360FF2384F8213063774FF660
:105A2000FF73E38384F82050204638BDC8890B00FB
:105A300002484FF48062002102F0AABB78E0032004
:105A400007B590F8223043B10191FEF7FBFF0199B1
:105A500003B05DF804EB01F04FB80B46817F407F47
:105A6000012203B05DF804EB01F0CEBD38B590F92A
:105A70001D30013304460D461DD090F9210001214F
:105A800080B201F07EFD94F91F00002180B201F088
:105A900078FD94F92100002180B201F072FD2946C1
:105AA0002046FFF7CDFF94F921000121BDE83840E1
:105AB00080B201F066BD01F0E5FD94F91B1000F025
:105AC00015FD01F0DFFD036800219B68984701F098
:105AD000D9FD036829469B68984701F0D3FDBDE8CE
:105AE000384000F00ABD0000F8B521210446FFF758
:105AF000BDFF00212046FFF7B9FF7F212046FFF7B9
:105B0000B5FF22212046FFF7B1FF00212046FFF715
:105B1000ADFF07212046FFF7A9FF94F91D30294F5B
:105B200001332AD094F92100012180B201F029FD2E
:105B300094F91F00012180B201F023FD94F92100A6
:105B4000002180B201F01DFD012000F025F94FF485
:105B50008065013D17F8011B2046ADB2FFF770FFCD
:105B6000002DF6D1012000F017F994F92100012150
:105B7000BDE8F84080B201F004BD002501F082FDCF
:105B800094F91B1000F0B2FC01F07CFD0368402189
:105B90009B68984705F11006B6B201F073FD0368E3
:105BA000795D9B6898476B1C9DB2AE42F5D101F0C0
:105BB00069FD00F0A2FCB6F5806F00D1F8BD354656
:105BC000DCE700BF78E0032038B590F91D3001779D
:105BD000013304460D46C27600F0C98090F91F00DB
:105BE000012180B201F0BCFC94F92100012180B2B6
:105BF00001F0B6FC94F82230002B00F0A68094F956
:105C00002100012180B201F0BCFCFEF71BFF012145
:105C100000F0DCFEFEF716FF102100F047FFFEF754
:105C200011FF002100F0E6FEFEF70CFF00F0BAFEC7
:105C300094F92000012180B201F092FC94F9200037
:105C4000012180B201F09DFC012000F07DFB94F960
:105C50002000002180B201F094FC0A2000F074FBC7
:105C600094F92000012180B201F08BFC2046AE2186
:105C7000FFF7FCFE2046D521FFF7F8FE20468021E5
:105C8000FFF7F4FE2046A821FFF7F0FE20463F2153
:105C9000FFF7ECFE2046D321FFF7E8FE2046002167
:105CA000FFF7E4FE20464021FFF7E0FE8D2120466D
:105CB000FFF7DCFE012D0CBF102114212046FFF759
:105CC000D5FE20462021FFF7D1FE20460021FFF718
:105CD000CDFE2046A121FFF7C9FE2046C821FFF7CF
:105CE000C5FE2046DA21FFF7C1FE20461221FFF74C
:105CF000BDFE81212046FFF7B9FE012D0CBF9F217B
:105D0000CF212046FFF7B2FED9212046FFF7AEFE95
:105D1000012D0CBF2221F1212046FFF7A7FE2046CE
:105D2000DB21FFF7A3FE20464021FFF79FFE204620
:105D3000A421FFF79BFE2046A621FFF797FE2046F1
:105D4000AF21BDE83840FFF791BE94F91D00012155
:105D500080B201F005FC94F91E00012180B201F02F
:105D6000FFFB94F82230002B3FF462AF47E701F0CD
:105D700089FC00F085FB5BE708B5024B1B685B6C98
:105D8000019308BD4802030008B5024B1B685B681D
:105D9000019308BD1802030008B5024B1B68DB68BD
:105DA000019308BD1802030008B5024B1B681B696C
:105DB000019308BD1802030008B5024B1B685B691C
:105DC000019308BD1802030008B5024B1B681B684D
:105DD000019308BD2C02030008B5024B1B685B68E9
:105DE000019308BD2C02030008B5024B1B689B6899
:105DF000019308BD2C02030008B5024B1B68DB6849
:105E0000019308BD2C02030008B5024B1B681B69F7
:105E1000019308BD2C02030008B5024B1B685B69A7
:105E2000019308BD2C02030008B5024B1B689B6957
:105E3000019308BD2C02030008B5024B1B68DB6907
:105E4000019308BD2C02030008B5024B1B681B6AB6
:105E5000019308BD2C02030008B5024B1B685B6A66
:105E6000019308BD2C02030008B5024B1B681B6B95
:105E7000019308BD2C02030008B5024B1B68DB68C8
:105E8000019308BD2802030008B5024B1B689B69FB
:105E9000019308BD2802030008B5024B1B68DB69AB
:105EA000019308BD2802030008B5024B1B681B6A5A
:105EB000019308BD2802030008B5024B1B685B6A0A
:105EC000019308BD2802030008B5024B1B689B6ABA
:105ED000019308BD2802030008B5024B1B68DB6A6A
:105EE000019308BD2802030008B5024B1B681B6B19
:105EF000019308BD2802030008B5024B1B685B6BC9
:105F0000019308BD2802030008B5024B1B681B6CF7
:105F1000019308BD2802030008B5024B1B681B6DE6
:105F2000019308BD2802030008B5024B1B685B699A
:105F3000019308BD6C02030008B5024B1B685B6946
:105F4000019308BD6402030008B5024B1B681B6A7D
:105F5000019308BD6402030008B5024B1B689B6AED
:105F6000019308BD6402030008B5024B1B689B68DF
:105F7000019308BD6802030008B5024B1B68DB688B
:105F8000019308BD6802030008B5024B1B689B69BA
:105F9000019308BD3802030008B5024B1B68DB699A
:105FA000019308BD3802030008B5024B1B681B6A49
:105FB000019308BD3802030008B5024B1B689B6AB9
:105FC000019308BD3802030008B5024B1B681B6B28
:105FD000019308BD3802030008B5024B1B689B6B98
:105FE000019308BD3802030008B5024B1B681B680B
:105FF000019308BD3002030008B5024B1B689B6883
:10600000019308BD3002030008B5024B1B68DB6832
:10601000019308BD3002030008B5024B1B681B69E1
:10602000019308BD3002030008B5024B1B685B6991
:10603000019308BD3002030008B5024B1B68DB6901
:10604000019308BD3002030008B5024B1B681B6AB0
:10605000019308BD3002030008B5024B1B685B6A60
:10606000019308BD3002030008B5024B1B681B6C8E
:10607000019308BD3002030008B5024B1B685B6C3E
:10608000019308BD3002030008B5024B1B68DB68B2
:10609000019308BD3C02030008B5024B1B681B6955
:1060A000019308BD3C02030008B5024B1B685B6905
:1060B000019308BD3C02030008B5024B1B689B69B5
:1060C000019308BD3C02030008B5024B1B68DB6965
:1060D000019308BD3C02030008B5024B1B681B6A14
:1060E000019308BD3C02030008B5024B1B689B6A84
:1060F000019308BD3C02030008B5024B1B681B6CF2
:10610000019308BD3C02030008B5024B1B681B68E5
:10611000019308BD4C02030008B5024B1B685B6885
:10612000019308BD4C02030008B5024B1B681B69B4
:10613000019308BD4C02030008B5024B1B685B6964
:10614000019308BD4C02030008B5024B1B689B6914
:10615000019308BD4C02030008B5024B1B68DB69C4
:10616000019308BD4C02030008B5024B1B681B6A73
:10617000019308BD4C02030008B5024B1B685B6B22
:10618000019308BD6002030008B5024B1B681B6D3C
:10619000019308BD6002030008B5024B1B685B68F1
:1061A000019308BD2002030008B5024B1B685B6920
:1061B000019308BD2002030008B5034B1B68D3F808
:1061C0008830019308BD00002002030008B5034B8E
:1061D0001B68D3F89430019308BD0000200203002F
:1061E00008B5024B1B68DB6B019308BD440203003A
:1061F00008B5024B1B685B68019308BD40020300B1
:1062000008B5024B1B689B68019308BD4002030060
:1062100008B5024B1B68DB68019308BD4002030010
:1062200008B5024B1B681B69019308BD40020300BF
:1062300008B5024B1B685B69019308BD400203006F
:1062400008B5024B1B689B69019308BD400203001F
:1062500008B5024B1B68DB69019308BD40020300CF
:1062600008B5024B1B681B6A019308BD400203007E
:1062700008B5024B1B681B6B019308BD400203006D
:1062800008B5024B1B685B6B019308BD400203001D
:1062900008B5024B1B681B6C019308BD400203004C
:1062A00008B5024B1B685B6C019308BD40020300FC
:1062B00008B5024B1B681B68019308BD1C02030054
:1062C00008B5024B1B685B68019308BD1C02030004
:1062D00008B5024B1B689B68019308BD1C020300B4
:1062E00008B5024B1B685B6A019308BD1C020300E2
:1062F00008B5024B1B68DB6A019308BD1C02030052
:1063000008B5024B1B68DB6B019308BD1C02030040
:1063100008B5024B1B681B6C019308BD1C020300EF
:1063200008B5024B1B685B6C019308BD1C0203009F
:106330008A4210B507D0441A0298C01A4443501A32
:1063400094FBF0F0184410BD0021FFF72DBF10B5ED
:106350008368044613B1032201469847204610BDC6
:10636000024800230360FFF707BD00BF34E60320A7
:10637000002240681146FFF773BF002240681146B3
:10638000FFF77EBF40680022FFF772BF406800221F
:1063900081F00101FFF75CBF002340681A461946EF
:1063A000FFF74EBF002340681A461946FFF740BF6B
:1063B000002240681146FFF733BF002240681146B3
:1063C000FFF71EBF406800220221FFF721BF002314
:1063D00040681A46FFF70CBF024B03225A60024A7C
:1063E0001A60704738E60320088A0B007047F8B53A
:1063F000064615460C468F18BC4206D0336814F882
:10640000011B9B6830469847F6E72846F8BD007C9C
:106410000022FFF749BD007C0021FFF74DBD007C45
:106420000021FFF751BD007C0021FFF755BD007C26
:106430000021FFF759BD10B514210446FDF72FFECA
:10644000204610BD38B5044615464FF47A73002235
:10645000C4E90123094B2174084623602946FFF74C
:1064600053FDBF3008D16B69DB0705D56868FFF7BE
:1064700027FFE868FFF724FF204638BD448A0B0059
:106480000023007C1A461946FFF7F6BC7FB50022B0
:106490001423CDE90122ADF804300B788DF80830D3
:1064A0004B680393CB680493007C0B7A059301A996
:1064B000FFF732FD07B05DF804FB1FB5003B8DF818
:1064C00000104FF06401039118BF01236946019247
:1064D0008DF80830FFF7DAFF05B05DF804FB012303
:1064E000FFF7EBBF007C0022FFF7CEBCC9B2FFF77D
:1064F000F9BF007C0022FFF7CFBC0121FFF7F9BFF5
:10650000826810B50AB901F023F9BDE81040C368EC
:1065100018470000F8B5104F57F8204006460D46C2
:1065200034B12046FFF713FF10212046FDF7B7FDD9
:106530001020FDF7B0FD044650B100238360AB6826
:1065400033B1022229469847EB68E360AB68A36049
:1065500047F826402046F8BD40E60320F0B587B056
:106560000546039117461E46FFF766FC0399284629
:10657000FFF7D0FF0446E8B100218E424FF004033C
:10658000ADF815108DF817108DF81430A2BF05A9BD
:106590009DF830308DF81630009102460749A8BFAB
:1065A0008DF815603B462846FFF73EFC10B10020F1
:1065B00007B0F0BD201E18BF0120F9E701650B00F0
:1065C000FFF74ABCFFF740BC704710B518210446DE
:1065D000FDF765FD204610BDF0B5037D062B8DB09F
:1065E0000E4600F104074FF0000412D000F1080538
:1065F00015F8011D0A22304600F06FF9AF4204443D
:1066000019D0002CF4D02E21304600F04DF904446E
:10661000EEE72F236A4639460A208DF80040FFF73F
:106620008BFC684601F0F4FD33680246DB6869467E
:1066300030469847044620460DB0F0BD10B5054BD6
:106640000446112240F8043B002101F0A1FD204640
:1066500010BD00BF6C8A0B000346074A10B543F813
:10666000042B01F1100251F8044B43F8044B914202
:10667000F9D10A781A7010BD6C8A0B00037D042BC7
:1066800004D14068003818BF01207047062B07D19D
:1066900043683BB983682BB9C3681BB90069F1E74C
:1066A000002070470120704710B59DF8084044EA6B
:1066B000032343EA024242EA016104234160037575
:1066C00010BD000007B5064B0360CB7800938B78B4
:1066D0004A780978FFF7E8FF03B05DF804FB00BFD4
:1066E0006C8A0B00014B024A1A607047D0E6032007
:1066F000788A0B00002340681A46FFF779BD40688E
:1067000000220221FFF784BD002240681146FFF7F6
:1067100077BD002240681146FFF782BD0023406824
:106720001A461946FFF784BD002340681A461946E9
:10673000FFF786BD40680021FFF7AABD4068002131
:10674000FFF7AEBD4068002281F00101FFF780BD78
:1067500040680022FFF78CBD002240681146FFF719
:106760008FBD002240681146FFF77ABD2DE9F04346
:1067700095B014460D460746FFF760FF00211C2226
:106780000DA8009101F004FD40230C9320466B46B8
:106790000CAA0021FFF7F0FB044600284BD102466B
:1067A00001216868FFF73CFD0221804622466868A7
:1067B000FFF736FD009E81462146002E3BD0002982
:1067C00039D17368022B03D00A2B11D0F669F4E794
:1067D000B8F1000FFAD0716906A8043107ADFFF7D0
:1067E00071FF0FCD3C1D0FC42B6823704146EDE7B0
:1067F000B9F1000FEAD07469102201A801F0C8FCB9
:1068000006238DF8143001AD04F10803183418681C
:1068100059682A4603C20833A3421546F7D101A995
:1068200006A807ADFFF718FF0FCD3C1D0FC42B685E
:1068300023704946CAE70098FFF796FB384615B023
:10684000BDE8F083024B034A1A6000225A60704789
:10685000D4E60320848A0B00F8B506460D468F184F
:106860000024BD420CD0336815F8011B9B683046EC
:106870009847031E01DB1C44F3E7002C08BF1C46AD
:106880002046F8BD13B50446084659B1019101F000
:10689000BFFC23680199DB680246204602B0BDE8D0
:1068A0001040184702B010BD03689B68184738B500
:1068B0000D210546FFF7F8FF0A2104462846FFF799
:1068C000F3FF204438BD38B50546FFF7DBFF04462B
:1068D0002846FFF7ECFF204438BD30B58BB00023CD
:1068E000012A8DF8243098BF0A2209AC0D46B1FB6D
:1068F000F2F101FB125303F0FF03092B94BF303375
:106900003733DBB2AA4204F8013DEFD92146FFF745
:10691000B9FF0BB030BD2DE9F04186B000AF0546A0
:106920000E46381D142114463B60FFF7D9FC13288E
:106930000ED8391D2846FFF7A5FF04461EB128468C
:10694000FFF7B5FF044420461837BD46BDE8F08187
:1069500000F1080323F00703E846ADEB030D2246E0
:10696000411C3B686846FFF7BBFC69462846FFF7B9
:1069700089FF0446C546E1E7014B00229A60704753
:10698000DCE603200021FFF777BB0021FFF76CBB9B
:1069900010B5044608462170FFF74EFB00236360E4
:1069A000204610BD13B504460078FFF7EEFF58B936
:1069B000207801904FF6FF71FFF716FB019802B0A7
:1069C000BDE81040FFF7DEBF02B010BD13B50446AE
:1069D00000780191FFF7D9FF019948B9207801901B
:1069E000FFF70AFB019802B0BDE81040FFF7CABFED
:1069F00002B010BD13B5044600780191FFF7C5FF42
:106A0000019948B920780190FFF7FEFA019802B089
:106A1000BDE81040FFF7B6BF02B010BD400830B56A
:106A20001860002418688842E5B206D90134082CA1
:106A300002D040081860F5E70725024B5B5D137034
:106A400030BD00BFB88A0B002DE9F04188B00023AB
:106A50000446007802930E461746FFF796FF054658
:106A600000BB94F800800146142203A801F090FBBB
:106A70000B232A4603A94046ADF80C30FFF7ECFA89
:106A800004988DF8075002AB0DF1070207FB06F1E1
:106A9000FFF7C4FF20789DF80710FFF7BDFA2078B4
:106AA000FFF770FF029808B0BDE8F08138B50446E2
:106AB00000780D46FFF769FF0346D0B9616899B1C8
:106AC0000C4A12F8010B854202D00133082BF8D191
:106AD0000133DBB20122D9402046FFF7B5FF207811
:106AE000BDE83840FFF74EBF20782946FFF794FAFB
:106AF000F5E738BDB88A0B0008B50078FFF794FABF
:106B0000C0B208BD10B50446006808B1FFF7D8FB55
:106B10000023C4E90133236010BD38B504460D4697
:106B200000680131FFF7D4FB10B1C4E90005012072
:106B300038BD10B50368044623B143688B4201D3C6
:106B4000012010BD2046FFF7E8FF0028F9D0A36818
:106B5000002BF5D122681370F2E737B50D461146C8
:106B600001920446FFF7E5FF019A28B92046FFF796
:106B7000C9FF204603B030BDA2602946206801F05D
:106B8000F9FA2268A3680021D154F2E7002313B573
:106B9000C0E9003304468360037341B108460191A4
:106BA00001F036FB019902462046FFF7D6FF20464A
:106BB00002B010BD054B02221A60054B054A9A60CF
:106BC0000020C3E90000FFF7E7BA00BFF8E60320A2
:106BD000ECE603200000FFFF13B503688DF80710F3
:106BE000DC6B01224FF0FF330DF10701A04702B02B
:106BF00010BD10B40368DC6B4FF0FF33A4465DF8A2
:106C0000044B604713B5134602688DF80710D46B28
:106C10000DF107010122A04702B010BD10B5436974
:106C2000B3F88620B3F884309A42044608D06369EA
:106C3000B3F88420511CA3F884101344187910BDB4
:106C400003681B6998470028F1D14FF0FF30F6E741
:106C5000704743691868C043C00F70477047000011
:106C6000064B994210B500F10C0405D0084600F01F
:106C700073FD002808BF0024204610BDF8890B00D2
:106C800010B5AC210446FDF70AFA204610BDAC2130
:106C9000FDF705BA2DE9F0414FF0000886B01C461B
:106CA000C0F8048005460E4617464146102202A849
:106CB00001F06EFA631C09D04FF47A73B4FBF3F25F
:106CC00003FB1244CDE902285C4304946869102355
:106CD0000093006802AB41F2050240F6FF71FFF736
:106CE00053F9002807DAFFF70BFB03686B600020FD
:106CF00006B0BDE8F0816869002300683A46314675
:106D0000FFF762F9031EEEDB1846F1E730B587B0F6
:106D1000044601AD6846FFF7D5FC0FCD04340FC41F
:106D20002B68237007B030BD70B54D69054B044624
:106D30008C3544F8043B06460FCD0FC42B682370F6
:106D4000304670BD6C8A0B002DE9F043984603680D
:106D500093B00D460024DB6A06461746984728463E
:106D60006B46224621460094FFF706F905460028A7
:106D700063D1009B002B4BD05B69002B48D006A849
:106D8000FFF75CFC009B5C696378022B04D1211D3A
:106D900006A8FFF7BBFF26E00A2B24D111222946C3
:106DA00001A801F0F5F9A368002B38D004F108031D
:106DB0000DF1040C183418685968624603C2083390
:106DC000A3429446F7D1062301A90CA88DF81430EC
:106DD000FFF742FC0DF1340CBCE80F0007AC0FC408
:106DE000DCF80030237006A8FFF748FC80B1336858
:106DF00007ADD3F82090124B0C930FCD0DAC0FC400
:106E00002B6823703A4643460CA93046C8470546CE
:106E10000098FFF7A9F8284613B0BDE8F083E368AF
:106E2000002BC3D14FF6FF70D4F81090FFF78CF809
:106E30008145BBD104F11401AAE72546E8E700BF6C
:106E40006C8A0B0038B543691A68002A054610DAC7
:106E5000B3F88620B3F884309A420AD103681B69DC
:106E60009847044628B92B682846DB6A984720468D
:106E700038BD0120FCE710B54369B3F88620B3F8AC
:106E800084309A42044605D06369B3F884201344E1
:106E9000187910BD03681B6998470028F4D14FF09A
:106EA000FF30F6E7F8B543691746B3F88620B3F824
:106EB00084309A4205460E4616D06969B1F884308E
:106EC000B1F88640E41ABC4228BF3C46043322464F
:106ED0001944304601F04EF96A69B2F8843023440F
:106EE000A2F884302046F8BD03681B699847002843
:106EF000E3D14FF0FF34F5E742690023A2F8843074
:106F00004269A2F8863070472DE9F0411F460368B8
:106F10000C46DB6A8AB0054616469847237DD5F8AD
:106F20001480042B0CBF02200A2006220121FFF747
:106F300053F8C8F800006B691B68002B08DA2B684F
:106F40002846DB6A0024984720460AB0BDE8F08155
:106F50002846FFF7D1FFB7B1002303A9F8B2039386
:106F6000ADF81030FEF7E0FF0028E8D1686906238D
:106F70000093006803AB41F20B0240F6FF71FFF78C
:106F800003F80028DBD11C22002103A801F000F93E
:106F9000237D042B1DD14FF407733046ADF80C3020
:106FA000FEF7DAFFADF80E006068FEF7CDFF049043
:106FB0006B691C22186803A9FEF7F6FF0028BED1F2
:106FC00004340FCC6D698C350FC523682B700124F8
:106FD000BAE740F61C233046ADF80C30FEF7BCFF94
:106FE00005AEADF80E00231D04F1140718685968AA
:106FF000324603C20833BB421646F7D1D8E7000039
:1070000030B54269B2F886308BB004462BB1B2F885
:1070100084209A4201D1FFF76FFF61690868002858
:1070200018DBB1F886507F2D14D804310823C5F140
:1070300080022944FEF7C0FF002813DD6369B3F81E
:1070400086200AB9A3F884206369B3F88620104427
:10705000A3F886006369B3F88600B3F88430C01AD9
:107060000BB030BDFFF74CF903680B2BF2D0FFF7E4
:1070700047F903680B2BEDD020230025CDE902351D
:10708000FFF73EF903680193084B0949009302AAF0
:107090002B463220FFF778F863691868FEF77CFF0B
:1070A00063694FF0FF321A60D4E700BFC78A0B0054
:1070B000C08A0B0010B5436904461868002801DB3C
:1070C000FEF76AFF63694FF0FF321A6060691122B0
:1070D00000218C3001F05CF82046BDE81040FFF73D
:1070E0000BBF10B5002304460160C0F8843088301F
:1070F000FFF7A4FA204610BD73B500234FF47A724F
:10710000C0E901320E4A0361026043610446AC20CB
:107110000191FCF7C0FF051E05F10C0608D0012304
:10712000C5E90133074B01992B603046FFF7D9FFC2
:107130002046C4E90565FFF7DFFE02B070BD00BF61
:10714000FC8A0B00E08A0B0010B54FF0FF310446BB
:10715000FFF7D2FF204610BD10B504460068002896
:1071600001DBFEF719FF204610BD0C30FFF7F4BF1E
:10717000024B1A68024B1A60704700BF78E4032084
:10718000FCE6032070474174704708B5007CFEF7A9
:10719000ABFF20EAE07008BD08B5007CFEF77CFF7D
:1071A00020EAE07008BD08B5007CFEF785FF40EAE4
:1071B000E07008BD08B5007CFEF776FF40EAE0709D
:1071C00008BD007CFEF780BF37B5457C04462DB175
:1071D000207C03B0BDE83040FEF756BF007C019133
:1071E000FEF782FF00280199F2DC284603B030BD8B
:1071F00010B514210446FCF752FF204610BD0000D4
:1072000010B54FF47A730446084611460022C4E9CB
:107210000123044B2360012320746374FEF76CFF89
:10722000204610BD648B0B00417470477047704757
:1072300008B50021007CFEF787FF40EAE07008BD3A
:1072400008B50121007CFEF77FFF40EAE07008BD31
:1072500008B5007CFEF770FF20EAE07008BD08B5B5
:10726000007CFEF761FF20EAE07008BD13B504461C
:10727000007C0191FEF760FF0028019901DC607C31
:1072800020B1207CFEF768FF20EAE07002B010BD5C
:10729000007CFEF769BF10B514210446FCF7FFFE21
:1072A000204610BD10B54FF47A73044608460021FD
:1072B000C4E90113044B2360012320746374114655
:1072C000FEF722FF204610BD948B0B00007C0022AD
:1072D000FEF722BF10B514220446002100F058FF2B
:1072E000204610BD10B50F4C88B003A8FFF7F2FF81
:1072F0002178BFF35B8F11F001010FD1204601917E
:10730000FCF7DCFE019948B103AA0748FFF7CAFF62
:107310002046FCF7D8FE054800F026FF024808B0DA
:1073200010BD00BF00E7032004E703202D720B000F
:10733000002240681146FEF773BF002240681146E4
:10734000FEF78EBF002240681146FEF799BF4068E5
:107350000022FEF78DBF4068002281F00101FEF798
:1073600077BF002340681A461946FEF769BF00231D
:1073700040681A461946FEF75BBF00224068114676
:10738000FEF73EBF406800220221FEF741BF002306
:1073900040681A46FEF72CBF024B04225A60024A8C
:1073A0001A60704718E70320C48B0B00014B18606C
:1073B000704700BF7CE4032008B50B4B43B1FFF7D7
:1073C00091FF03681B699847002801DDAFF3008037
:1073D000064B43B100F096F903681B6998470028F3
:1073E00001DDAFF3008008BD0000000000000000D8
:1073F00008B5FFF7E1FFFEF7DFFC014B186008BDA1
:1074000028E703200548064A064908B5121A00F085
:10741000B1FE054B054A1A6008BD00BF00F4032009
:1074200004F40320B48D0B0000F403201E1C279AE3
:1074300007B5002300931A466FF07701FEF7C6FEEA
:1074400003B05DF804FB000007B543880A2B08D0A1
:10745000502B0BD1094B1B684BB103B05DF804EB0B
:107460001847FFF7E5FF03B05DF804FB0023009326
:107470001A466FF07701FEF7A9FEF4E724E7032030
:1074800010B512480021FEF74BFF114B1A68114B43
:107490009A42114B0CBF012200221A7001D0FFF753
:1074A000B1FFFEF771FC044600F07AFE0B4B13B1FE
:1074B0002046AFF3008000210848FEF791FEBDE8AA
:1074C000104007480021FEF777BE00BFAD730B00E8
:1074D00000F403201E1C279A20E703200000000070
:1074E00049740B00232813B502D9002002B010BD47
:1074F000A0F10B03022B1AD8174C2178BFF35B8F36
:1075000011F001010BD120460191FCF7D7FD019943
:1075100028B11248FFF73CFA2046FCF7D4FD0F4B88
:107520001878FEF791FD0028DFD10120DEE7012861
:1075300009D800F0A7F80021007CFEF7DDFC80F000
:107540000100C0B2D2E709380128EED800F0DAF81D
:10755000007CFEF7C1FDF2E724E6032028E60320C5
:10756000232838B504460D460AD8FF2908D0FFF76E
:10757000B9FF28B129462046BDE83840FEF734BCA3
:1075800038BD38B504460D46FEF736FCFF2810D04E
:10759000062804D84D2323FA00F0C30709D4204657
:1075A000FFF7A0FF28B129462046BDE83840FEF786
:1075B0002BBC38BD10B50446FEF71EFC031FDBB222
:1075C000012B08D92046FFF78DFF20B12046BDE8EA
:1075D0001040FEF721BC002010BD0D2810B5044658
:1075E0009CBF0E34A4B22046FFF77CFF50B10321AC
:1075F0002046FEF7F1FB032804D12046BDE81040E9
:10760000FEF732BC002010BD2DE9F04190461F4628
:10761000072406460D46C4F10701B8F1000F12D148
:1076200047FA01F101F001013046FFF7AAFF0121FD
:107630002846FFF7A6FF00212846FFF7A2FF013CDE
:10764000E9D2BDE8F08147FA04F1EBE770470000AA
:1076500038B50A4B036001230446436108492020E2
:1076600000F074F8202560600549A560284600F008
:107670006DF8C4E90305204638BD00BF18000100BD
:10768000F88B0B0030B50E4D2978BFF35B8F11F0EE
:10769000010487B011D12846FCF710FD68B1684697
:1076A000FFF7D6FF6A4621460648FEF7CBFE28467E
:1076B000FCF709FD044800F057FD024807B030BD53
:1076C0002CE7032030E703204D760B0070470000C5
:1076D00038B5044614252A46002100F059FD2580BE
:1076E0004025074925812846258200F02FF80449C6
:1076F0006060284600F02AF8E060204638BD00BFF0
:10770000F88B0B0030B50E4D2978BFF35B8F11F06D
:10771000010487B011D12846FCF7D0FC68B101A85C
:10772000FFF7D6FF01AA21460648FFF769FD284664
:10773000FCF7C9FC044800F017FD024807B030BD53
:1077400044E7032048E70320CD760B00FCF7A5BCF7
:1077500008B5FEF7CDFD0000014900F0F9B800BF03
:10776000148C0B007FB500241023CDE9023403688C
:1077700015469E6912686B46CDE90044B0479DF8F6
:10778000043003F00603062B03BF009B2B6001208F
:10779000204604B070BD0098904214BF012006201E
:1077A0007047000010B5034B0360044600F0CDF8AD
:1077B000204610BD548C0B0010B50446FFF7F2FFB5
:1077C00020460821FCF76BFC204610BD2DE9F04156
:1077D0001F46DDE90834DDF8188098450646154651
:1077E00007D1079900F0B4F818B165710020BDE821
:1077F000F0813946304600F0ABF80028F6D001237E
:10780000C4F800802571A371F0E738B515461C4611
:1078100000F09EF820B10823E36006232560237161
:1078200038BD73B505460C4601921E4600F090F82F
:1078300050B9032E08D82368019A5B69294620466F
:1078400002B0BDE87040184702B070BD10B5034BE0
:1078500003600446FFF7A6FF204610BDB48C0B0062
:1078600010B50446FFF7F2FF20460C21FCF717FC89
:10787000204610BDF7B5089F974205460E461446B0
:107880000AD0A86802680897156A31462246AC46B5
:1078900003B0BDE8F04060471946019300F058F886
:1078A000019B0028EDD0062003B0F0BD2DE9F14F7B
:1078B0000D461946DDE90A4BDDE90CA6814617465F
:1078C000984600F045F890B1002D3460377109DB1F
:1078D00061198A450CBF06210121B171002001B058
:1078E000BDE8F08F0235F9D10123B371F6E75445B5
:1078F00006D15946484600F02BF808B17771EDE7FC
:10790000D9F808000368CDE90CA6CDE90A4BDC697B
:107910003A4643462946A44601B0BDE8F04F6047C9
:107920002DE9F04107460C4615461E46FFF76DFF50
:1079300048B9B86803689F692A4633462146BC4661
:10794000BDE8F0416047BDE8F08170470020704716
:10795000814208B50ED0406803782A2B0CD04968C4
:107960000B782A2B08BF013100F048FCB0FA80F0F8
:10797000400908BD0120FCE70020FAE781F0004142
:1079800002E000BF83F0004330B54FEA41044FEA04
:10799000430594EA050F08BF90EA020F1FBF54EA9F
:1079A000000C55EA020C7FEA645C7FEA655C00F03B
:1079B000E2804FEA5454D4EB5555B8BF6D420CDD0C
:1079C0002C4480EA020281EA030382EA000083EA8F
:1079D000010180EA020281EA0303362D88BF30BD2F
:1079E00011F0004F4FEA01314FF4801C4CEA113185
:1079F00002D0404261EB410113F0004F4FEA0333E4
:107A00004CEA133302D0524263EB430394EA050F6E
:107A100000F0A780A4F10104D5F1200E0DDB02FADD
:107A20000EFC22FA05F2801841F1000103FA0EF271
:107A3000801843FA05F359410EE0A5F120050EF137
:107A4000200E012A03FA0EFC28BF4CF0020C43FA68
:107A500005F3C01851EBE37101F0004507D54FF075
:107A6000000EDCF1000C7EEB00006EEB0101B1F5C5
:107A7000801F1BD3B1F5001F0CD349085FEA30000B
:107A80004FEA3C0C04F101044FEA445212F5800F16
:107A900080F09A80BCF1004F08BF5FEA500C50F1B3
:107AA000000041EB045141EA050130BD5FEA4C0C96
:107AB000404141EB0101013C28BFB1F5801FE9D2F3
:107AC00091F0000F04BF01460020B1FA81F308BF16
:107AD0002033A3F10B03B3F120020CDA0C3208DDE2
:107AE00002F1140CC2F10C0201FA0CF021FA02F1BD
:107AF0000CE002F11402D8BFC2F1200C01FA02F12D
:107B000020FA0CFCDCBF41EA0C019040E41AA2BF51
:107B100001EB0451294330BD6FEA04041F3C1CDA19
:107B20000C340EDC04F11404C4F1200220FA04F039
:107B300001FA02F340EA030021FA04F345EA0301E3
:107B400030BDC4F10C04C4F1200220FA02F001FAA5
:107B500004F340EA0300294630BD21FA04F0294627
:107B600030BD94F0000F83F4801306BF81F48011C0
:107B70000134013D4EE77FEA645C18BF7FEA655C33
:107B800029D094EA050F08BF90EA020F05D054EA05
:107B9000000C04BF1946104630BD91EA030F1EBF0A
:107BA0000021002030BD5FEA545C05D1400049410E
:107BB00028BF41F0004130BD14F580043CBF01F501
:107BC000801130BD01F0004545F0FE4141F47001E7
:107BD0004FF0000030BD7FEA645C1ABF19461046C2
:107BE0007FEA655C1CBF0B46024650EA013406BFC3
:107BF00052EA033591EA030F41F4002130BD00BF82
:107C000090F0000F04BF0021704730B54FF480643E
:107C100004F132044FF000054FF0000150E700BFBF
:107C200090F0000F04BF0021704730B54FF480641E
:107C300004F1320410F0004548BF40424FF000010B
:107C40003EE700BF42004FEAE2014FEA31014FEA4E
:107C500002701FBF12F07F4393F07F4F81F060519D
:107C6000704732F07F4208BF704793F07F4F04BFE8
:107C700041F40021704730B54FF4607401F00045C5
:107C800021F000411CE700BF50EA010208BF704725
:107C900030B54FF000050AE050EA010208BF704716
:107CA00030B511F0004502D5404261EB41014FF47F
:107CB000806404F132045FEA915C3FF4D8AE4FF087
:107CC00003025FEADC0C18BF03325FEADC0C18BF6A
:107CD000033202EBDC02C2F1200300FA03FC20FABB
:107CE00002F001FA03FE40EA0E0021FA02F1144408
:107CF000BDE600BF70B54FF0FF0C4CF4E06C1CEA21
:107D000011541DBF1CEA135594EA0C0F95EA0C0F91
:107D100000F0DEF82C4481EA030621EA4C5123EA04
:107D20004C5350EA013518BF52EA033541F4801133
:107D300043F4801338D0A0FB02CE4FF00005E1FBE6
:107D400002E506F00042E0FB03E54FF00006E1FB30
:107D500003569CF0000F18BF4EF0010EA4F1FF0473
:107D6000B6F5007F64F5407404D25FEA4E0E6D41B3
:107D700046EB060642EAC62141EA55514FEAC520C4
:107D800040EA5E504FEACE2EB4F1FD0C88BFBCF540
:107D9000E06F1ED8BEF1004F08BF5FEA500E50F1F1
:107DA000000041EB045170BD06F0004646EA0101B7
:107DB00040EA020081EA0301B4EB5C04C2BFD4EBE9
:107DC0000C0541EA045170BD41F480114FF0000EE2
:107DD000013C00F3AB8014F1360FDEBF002001F050
:107DE000004170BDC4F10004203C35DA0C341BDCCA
:107DF00004F11404C4F1200500FA05F320FA04F09C
:107E000001FA05F240EA020001F0004221F00041CF
:107E100010EBD37021FA04F642EB06015EEA430E42
:107E200008BF20EAD37070BDC4F10C04C4F1200572
:107E300000FA04F320FA05F001FA04F240EA020025
:107E400001F0004110EBD37041F100015EEA430EF6
:107E500008BF20EAD37070BDC4F1200500FA05F216
:107E60004EEA020E20FA04F301FA05F243EA020395
:107E700021FA04F001F0004121FA04F220EA0200A4
:107E800000EBD3705EEA430E08BF20EAD37070BDEA
:107E900094F0000F0FD101F00046400041EB0101CA
:107EA00011F4801F08BF013CF7D041EA060195F0AC
:107EB000000F18BF704703F00046520043EB030366
:107EC00013F4801F08BF013DF7D043EA0603704753
:107ED00094EA0C0F0CEA135518BF95EA0C0F0CD05E
:107EE00050EA410618BF52EA4306D1D181EA0301A4
:107EF00001F000414FF0000070BD50EA410606BF9E
:107F00001046194652EA430619D094EA0C0F02D1E2
:107F100050EA013613D195EA0C0F05D152EA033627
:107F20001CBF104619460AD181EA030101F0004145
:107F300041F0FE4141F470014FF0000070BD41F08E
:107F4000FE4141F4780170BD70B54FF0FF0C4CF468
:107F5000E06C1CEA11541DBF1CEA135594EA0C0F87
:107F600095EA0C0F00F0A7F8A4EB050481EA030ED4
:107F700052EA03354FEA013100F088804FEA0333BB
:107F80004FF0805545EA131343EA12634FEA022289
:107F900045EA111545EA10654FEA00260EF000414A
:107FA0009D4208BF964244F1FD0404F5407402D29C
:107FB0005B084FEA3202B61A65EB03055B084FEA2D
:107FC00032024FF480104FF4002CB6EB020E75EB2A
:107FD000030E22BFB61A754640EA0C005B084FEA52
:107FE0003202B6EB020E75EB030E22BFB61A7546CF
:107FF00040EA5C005B084FEA3202B6EB020E75EB1A
:10800000030E22BFB61A754640EA9C005B084FEA91
:108010003202B6EB020E75EB030E22BFB61A75469E
:1080200040EADC0055EA060E18D04FEA051545EA8D
:1080300016754FEA06164FEAC30343EA52734FEA36
:10804000C2025FEA1C1CC0D111F4801F0BD141EAAF
:1080500000014FF000004FF0004CB6E711F4801F14
:1080600004BF01430020B4F1FD0C88BFBCF5E06FF4
:108070003FF6AFAEB5EB030C04BFB6EB020C5FEA04
:10808000500C50F1000041EB045170BD0EF0004E59
:108090004EEA113114EB5C04C2BFD4EB0C0541EA8B
:1080A000045170BD41F480114FF0000E013C90E688
:1080B00045EA060E8DE60CEA135594EA0C0F08BF4C
:1080C00095EA0C0F3FF43BAF94EA0C0F0AD150EA4B
:1080D00001347FF434AF95EA0C0F7FF425AF1046DE
:1080E00019462CE795EA0C0F06D152EA03353FF406
:1080F000FDAE1046194622E750EA410618BF52EA83
:1081000043067FF4C5AE50EA41047FF40DAF52EA56
:1081100043057FF4EBAE12E74FEA410212F500127D
:1081200015D211D56FF47873B3EB625212D94FEABE
:10813000C12343F0004343EA505311F0004F23FAA8
:1081400002F018BF404270474FF00000704750EAFD
:10815000013005D111F0004008BF6FF000407047BA
:108160004FF00000704700BF002301461A46184632
:1081700000F056B80A44914200F1FF3300D1704735
:1081800010B511F8014B03F8014F9142F9D110BD20
:1081900002440346934200D1704703F8011BF9E7FC
:1081A00038B5104B1D68AB6B0446B3B91820FEF709
:1081B0007FF80246A86320B90B4B0C484221FEF71A
:1081C000A7F80B490B4BC0E900130B4B83600B2343
:1081D000838100210120C2E90401AB6B00221C61F4
:1081E0005A6138BD7CE40320ED8C0B00048D0B003C
:1081F0000E33CDAB34126DE6ECDE050010F8012B2A
:1082000011F8013B012A28BF9A42F7D0D01A7047D3
:10821000034613F8012B002AFBD1181A01387047C6
:108220002DE9F843DFF8B8800646D8F800001F466D
:108230000D46914600F056F8254B1C6834B9254C84
:108240001C60254B13B11B68C4F8883063681F2B72
:1082500007DDD8F8000000F047F84FF0FF30BDE828
:10826000F8834EB3D4F8880088B91C4B23B9D8F8EA
:10827000000000F038F8F0E74FF48470FEF718F8CB
:108280000028F4D00023C0E94033C4F888006368B4
:1082900040F8239001229A4000EB8301D0F800318E
:1082A0001343C0F80031022EC1F8807002BFD0F82D
:1082B00004311343C0F804316368D8F800005A1C35
:1082C0000233626044F8235000F00EF80020C6E745
:1082D000E8E703205CE7032000000000B1620B0028
:1082E000E0E40320704770477047000021400B0016
:1082F0005D400B0085400B0089400B000000000032
:1083000043616C6C206F6E207075726520766972A7
:108310007475616C00417373657274696F6E466148
:10832000696C757265202A705F70696E203C202828
:108330003332202B20313629004E6F204368616E86
:108340006765202D2043616E63656C6C696E6720E4
:10835000434D440A007B226F6E223A747275652C7D
:1083600022736174223A002C22627269223A002C34
:1083700022687565223A007B226F6E223A66616C34
:1083800073657D0053656E64696E6720436F6D6D24
:10839000616E6420746F2048756500505554202F1D
:1083A0006170692F002F6C69676874732F002F73D9
:1083B0007461746520485454502F312E31006B6520
:1083C00065702D616C69766500486F73743A2000A2
:1083D000436F6E74656E742D4C656E6774683A20D9
:1083E00000436F6E74656E742D547970653A207415
:1083F0006578742F706C61696E3B63686172736538
:10840000743D5554462D380046726F6D2048756591
:108410000025730A00257300543A20282569256336
:10842000290054454D502044524F50204445544556
:10843000435445440A0025690A00536F6674776106
:1084400072652053504900426567696E2049324386
:1084500000426567696E20686172647761726520A9
:1084600053504900426567696E20736F6674776187
:1084700072652053504900002C01000018000000D4
:10848000F40100002C01000050000000000000007A
:10849000003E5B4F5B3E3E6B4F6B3E1C3E7C3E1C8A
:1084A000183C7E3C181C577D571C1C5E7F5E1C00D0
:1084B000183C1800FFE7C3E7FF0018241800FFE787
:1084C000DBE7FF30483A060E2629792926407F054A
:1084D0000507407F05253F5A3CE73C5A7F3E1C1C60
:1084E00008081C1C3E7F14227F22145F5F005F5F20
:1084F00006097F017F006689956A6060606060940C
:10850000A2FFA29408047E040810207E2010080810
:108510002A1C08081C2A08081E101010100C1E0C1B
:108520001E0C30383E3830060E3E0E0600000000AD
:108530000000005F00000007000700147F147F1494
:10854000242A7F2A122313086462364956205000D9
:1085500008070300001C2241000041221C002A1CC5
:108560007F1C2A08083E08080080703000080808B0
:108570000808000060600020100804023E514945D0
:108580003E00427F400072494949462141494D33EE
:108590001814127F1027454545393C4A4949314155
:1085A000211109073649494936464949291E000023
:1085B0001400000040340000000814224114141478
:1085C0001414004122140802015909063E415D5964
:1085D0004E7C1211127C7F494949363E414141226D
:1085E0007F4141413E7F494949417F090909013E97
:1085F000414151737F0808087F00417F41002040BE
:10860000413F017F081422417F404040407F021CCF
:10861000027F7F0408107F3E4141413E7F090909E6
:10862000063E4151215E7F091929462649494932B2
:1086300003017F01033F4040403F1F2040201F3F78
:108640004038403F631408146303047804036159FD
:10865000494D43007F41414102040810200041413F
:10866000417F0402010204404040404000030708EB
:108670000020545478407F284444383844444428E7
:10868000384444287F385454541800087E0902188E
:10869000A4A49C787F0804047800447D4000204016
:1086A000403D007F1028440000417F40007C04785A
:1086B00004787C080404783844444438FC182424A2
:1086C0001818242418FC7C08040408485454542422
:1086D00004043F44243C4040207C1C2040201C3C9F
:1086E0004030403C44281028444C9090907C446496
:1086F000544C440008364100000077000000413629
:10870000080002010204023C2623263C1EA1A161AE
:10871000123A4040207A38545455592155557941E0
:108720002154547841215554784020545579400CB7
:108730001E52721239555555593954545459395598
:108740005454580000457C410002457D42000145DB
:108750007C40F0292429F0F0282528F07C54554548
:10876000002054547C547C0A097F493249494932DB
:108770003248484832324A4848303A4141217A3AF0
:1087800042402078009DA0A07D39444444393D40BA
:1087900040403D3C24FF2424487E4943662B2FFC67
:1087A0002F2BFF0929F620C0887E09032054547915
:1087B000410000447D413048484A32384040227AE6
:1087C000007A0A0A727D0D19317D2629292F282663
:1087D0002929292630484D4020380808080808086B
:1087E0000808382F10C8ACBA2F102834FA00007BC4
:1087F000000008142A142222142A1408AA00550082
:10880000AAAA55AA55AA000000FF00101010FF00E8
:10881000141414FF001010FF00FF1010F010F014DB
:108820001414FC001414F700FF0000FF00FF1414E0
:10883000F404FC141417101F10101F101F1414142C
:108840001F00101010F0000000001F101010101F6B
:1088500010101010F010000000FF10101010101079
:10886000101010FF10000000FF140000FF00FF00B8
:10887000001F10170000FC04F41414171017141430
:10888000F404F40000FF00F714141414141414F783
:1088900000F7141414171410101F101F141414F4DC
:1088A000141010F010F000001F101F0000001F1423
:1088B000000000FC140000F010F01010FF10FF1476
:1088C0001414FF141010101F00000000F010FFFF20
:1088D000FFFFFFF0F0F0F0F0FFFFFF0000000000EE
:1088E000FFFF0F0F0F0F0F38444438447C2A2A3EF5
:1088F000147E02020606027E027E0263554941632F
:108900003844443C04407E201E2006027E02029928
:10891000A5E7A5991C2A492A1C4C7201724C304AC1
:108920004D4D303048784830BC625A463D3E49494A
:1089300049007E0101017E2A2A2A2A2A44445F44F2
:108940004440514A444040444A51400000FF010322
:10895000E080FF000008086B6B08361236243606EC
:108960000F090F060000181800000010100030401A
:10897000FF0101001F01011E00191D1712003C3CE0
:108980003C3C00000000000000000000000000006F
:108990000000000000000000D9550B0059680B00D2
:1089A000A5400B00F1520B0017540B0033540B0081
:1089B000AF530B004D540B0083540B009F540B001E
:1089C000000000000000000065590B00F5590B0085
:1089D000D9550B0059680B0069590B00F1520B0077
:1089E000F1570B0081560B00AF530B004D540B0099
:1089F00083540B009F540B00000000000000000097
:108A00000000000000000000CF630B00C5630B00F6
:108A1000BB630B00B1630B00A5630B0099630B00F4
:108A200035670B003D670B008D630B0085630B0002
:108A30007B630B0071630B006D670B00000000008F
:108A400000000000ED630B0037640B000F640B00A7
:108A5000EF630B0017640B001F640B0027640B000F
:108A60002F640B000000000000000000D9650B001F
:108A7000C9650B00CB650B00617070000000000041
:108A800000000000F5660B00FF660B0009670B0095
:108A900013670B001D670B0029670B0035670B0080
:108AA0003D670B0045670B0051670B0059670B00D2
:108AB00063670B006D670B00000810182028303822
:108AC000776972696E670072656376206572726F8E
:108AD00072203D202564000000000000000000001E
:108AE0005D6C0B00816C0B006B710B008F6C0B00CD
:108AF000616C0B00000000000000000025430B002B
:108B000059430B00D96B0B00F36B0B0001700B008A
:108B10001D6C0B00776E0B00516C0B00096F0B0086
:108B2000496D0B00A56E0B00B5700B00456E0B0078
:108B3000536C0B00056C0B00956C0B00296D0B0042
:108B400025592D256D2D25645425483A254D3A2566
:108B500053257A0061736374696D6500000000003D
:108B60000000000085710B00F1710B00C9710B0052
:108B700059680B0099710B00B5710B00A7710B00C0
:108B8000C3710B0087710B008B710B00000000009C
:108B9000000000002F720B0097720B006D720B002B
:108BA00059680B005F720B0031720B0041720B00B1
:108BB00091720B0051720B0029720B000000000033
:108BC000000000008F730B0085730B007B730B009C
:108BD00031730B006F730B0063730B0035670B0071
:108BE0003D670B0057730B004F730B0045730B0071
:108BF0003B730B006D670B0000537431395F53708A
:108C00005F6D616B655F7368617265645F746167F6
:108C100000000000548C0B00F98B0B00B48C0B008F
:108C2000288C0B00D88C0B004E31305F5F63787856
:108C3000616269763131375F5F636C6173735F7452
:108C40007970655F696E666F450000000000000086
:108C50001C8C0B00A5770B00B9770B004D790B002E
:108C60004D790B0023780B0065770B000B780B0018
:108C7000CD770B0097770B00B48C0B00848C0B0026
:108C80001C8C0B004E31305F5F63787861626976CF
:108C90003132305F5F73695F636C6173735F7479E6
:108CA00070655F696E666F4500000000000000009F
:108CB000788C0B004D780B0061780B004D790B0020
:108CC0004D790B0023780B0065770B0021790B00A1
:108CD000AD780B0075780B00548C0B00E08C0B000A
:108CE000537439747970655F696E666F00524545DB
:108CF0004E54206D616C6C6F6320737563636565A2
:108D0000646564002F746D702F6A656E6B696E7395
:108D10002D4743432D31302D706970656C696E6548
:108D20002D34385F32303230313132345F313630C9
:108D3000363138303633392F7372632F6E65776C66
:108D400069622F6E65776C69622F6C6962632F733D
:108D500074646C69622F72616E642E63000000009F
:108D600079490B00E1520B0061630B00D9630B00E2
:108D7000E5660B0045680B0079690B00B56B0B00CD
:108D800071710B0099730B000000000000000000DF
:108D9000040000001400000003000000474E5500CE
:108DA000BBF9E51C43A6148B2A296CC8570B8348D2
:048DB000B94FF6A71A
:048DB40000000000BB
:108DB800C8AF0000E45700008CB900008813000019
:108DC80050C3000010270000300000000000000021
:108DD8000031000000000000000032000000000028
:108DE8000000003300000000000000003400000014
:108DF8000000000000350000000000000000360000
:108E08000000000000000037000000000000000023
:108E180038000000000000000039000000000000D9
:108E280000004100000000000000004200000000B7
:108E380000000000430000000000000000440000A3
:108E4800000000000000450000000000000000468F
:108E580000000000000000004700000000000000C3
:108E68000048000000000000000049000000000069
:108E78000000004A00000000000000004B00000055
:108E880000000000004C00000000000000004D0041
:108E9800000000000000004E00000000000000007C
:108EA8004F0000000000000000500000000000001B
:108EB8000000510000000000000000520000000007
:108EC80000000000530000000000000000540000F3
:108ED80000000000000055000000000000000056DF
:108EE8000000000000000000570000000000000023
:108EF80000580000000000000000590000000000B9
:108F08000000005A0000000000000000594553000E
:108F180000000000004E4F0000000000000048451F
:108F28004C4C4F00000000474F4F44204259450029
:108F3800000103070F1F3F7F0080C0E0F0F8FCFE30
:108F48000000000000000000000000000000000019
:108F58000000000000000000000000000000000009
:108F680000000000000000000000000000000000F9
:108F78000000000000000000000000000000008069
:108F880080800000000000000000000000000000D9
:108F9800008080C0C0000000000000000000000049
:108FA80000000000000000000000000000000000B9
:108FB80000000000000000000000000000000000A9
:108FC8000000000000000000000000000000000099
:108FD8000000000080C0E0F0F8FCF8E000000000AD
:108FE80000000000000000000000000000808080F9
:108FF800808000808000000000808080808000FFEA
:10900800FFFF00000000808080800000808000005A
:1090180080FFFF80800080800080808080008080CA
:109028000000000000808000008C8E84000080F822
:10903800F8F88000000000000000000000000000B8
:10904800F0F0F0F0F0F0F0F0F0F0F0F0E0E0C080D8
:1090580000E0FCFEFFFFFF7FFFFFFFFFFF000000B7
:109068000000000000000000000000FEFFC7010132
:10907800010183FFFF00007CFEC70101010183FF9E
:10908800FFFF0038FEC78301010183C7FFFF00000F
:1090980001FFFF010100FFFF0701010100007FFF41
:1090A80080000000FFFF7F0000FFFFFF000001FFBE
:1090B800FFFF0100000000000000000000000000A9
:1090C800030F3F7F7FFFFFFFFFFFFFFFE7C7C78F4C
:1090D8008F9FBFFFFFC3C0F0FFFFFFFFFFFCFCFC3B
:1090E800FCFCFCFCFCF8F8F0F0E0C0000103030312
:1090F800030301030300000000010303030301014C
:10910800030100000001030303030101030300003E
:10911800000303000000030300000000000000013A
:10912800030303030301000000010301000000031F
:109138000301000000000000000000000000000023
:1091480000000080C0E0F0F9FFFFFFFFFF3F1F0FA6
:1091580087C7F7FFFF1F1F3DFCF8F8F8F87C7DFF75
:10916800FFFFFFFFFFFFFF7F3F0F070030300000CA
:1091780000000000000000000000000000000000E7
:1091880000000000FEFEFC000000000000000000DF
:1091980000000000000000000000000000E0C00027
:1091A8000000000000000000000030300000000057
:1091B80000000000000000000000000000000000A7
:1091C80000C0FEFFFFFFFFFFFFFFFFFF7F7F3F1F86
:1091D8000F071F7FFFFFF8F8FFFFFFFFFFFEF8E014
:1091E800000000010000000000000000FEFE00007A
:1091F80000FCFEFC0C06060EFCF80000F0F81C0E45
:109208000606060CFFFFFF0000FEFE00000000FC43
:10921800FEFC00183C7E66E6CE84000006FFFF06D2
:1092280006FCFEFC0C0606060000FEFE0000C0F868
:10923800FC4E4646464E7C7840183C76E6CECC80BE
:109248000000000000000000000000000000000016
:109258000000000001070F1F1F3F3F3F3F1F0F0384
:109268000000000000000000000000000F0F0000D8
:10927800000F0F0F000000000F0F000003070E0C77
:1092880018180C060F0F0F0000010F0E0C180C0F0A
:10929800070100040E0C180C0F070000000F0F0048
:1092A800000F0F0F0000000000000F0F0000000764
:1092B800070C0C181C0C060600040E0C180C0F07E3
:1092C8000000000000000000000000000000000096
:1092D8000000000000000000000000000000000086
:1092E8000000000000000000000000000000000076
:1092F8000000000000000000000000000000000066
:109308000000000000000000000000000000000055
:109318000000000000000000000000000000000045
:109328000000000000000000000000000000000035
:109338000000000000000000000000000000000025
:10934800548B0B0080E403200000000000000000A4
:109358000000000000000000000000000000000005
:1093680000000000000000000000000000000000F5
:1093780000000000000000000000000000000000E5
:1093880000000000000000000000000000000000D5
:1093980000000000000000000000000000000000C5
:0C93A8000000000000000000ECE70320C3
:1093B400FFFFFFFF00000102030405060708090A76
:1093C4000B0C0D0E0F101112131415161718191A71
:0893D4001B1C1D1E1F202800B8
:0493DC007856341279
:04000003B0004020E9
:00000001FF
