:02000002B0004C
:1040000000400B009C780B00000006000C0005022D
:084010000401A60F00000000EE
:044018002C680B0005
:10401C0009480A49884208B505D0094A824202D0AB
:10402C00121A02F041FB0748074A0021121A02F04B
:10403C0049FB014808BD00BF10DF032078720B005C
:10404C000CE503200CE50320EDE7032070B5074ECB
:10405C00074C02F0F1F8A41BA4080025AC4200D1D7
:10406C0070BD56F8043B98470135F7E720720B00FA
:10407C0048720B0000F032BA08B500F04DFABDE8FA
:10408C00084002F091B801F0F1B801F0EFB801F07E
:10409C00F5B8000008B5034A03490C2001F052F8AA
:1040AC00FEE700BF714E0B0040680B000078B0FAC1
:1040BC0080F0400970470123037070472F2810B51A
:1040CC0004460DD9094A0A490A2001F03BF8094B6C
:1040DC0004F01F04D3F81005E04000F0010010BDFF
:1040EC001F28F4D84FF0A043F4E700BF714E0B002B
:1040FC0055680B00000300502DE9F843DFF82C81C4
:10410C00876898F80030484DBFF35B8F13F0010FB0
:10411C00044609D14046FFF7C9FF28B100F0B2FEB2
:10412C0028604046FFF7C7FFBFB22B683F01DE5D3A
:10413C0098F80030BFF35B8FD9074FEA461909D4C2
:10414C003A48FFF7B3FF28B100F09CFE28603748CF
:10415C00FFF7B1FF2B683B445E7806F01F0646EA7A
:10416C0009063046FFF7AAFF3046FFF7A7FFE768BE
:10417C0098F80030BFF35B8FDA07C6B209D42B482E
:10418C00FFF794FF28B100F07DFE28602748FFF769
:10419C0092FFBFB22B683F0113F8079098F80030DC
:1041AC00BFF35B8FDB074FEA491909D41F48FFF7B0
:1041BC007DFF28B100F066FE28601C48FFF77BFFEE
:1041CC002B681F447D7805F01F0545EA0905284634
:1041DC00FFF774FF2846FFF771FF237CC0B203F092
:1041EC0003030EB143F0040308B143F008039A082B
:1041FC00013B22740D2B0BD8DFE803F0070C0F0CDE
:10420C000A120707120A0C0F0C076369013363616A
:10421C00BDE8F8836369013BF9E763690233F6E7AC
:10422C006369023BF3E700BF10E503200CE50320B4
:10423C0010B403685A6899681B68541001EB62004B
:10424C00D20748BF0A595DF8044B48BFD3581847EA
:10425C00012A38B5044602D10B68236003E0022A18
:10426C0003D0032A0DD0002038BD0C200D68FFF7B9
:10427C000AFF03460028F0D095E8070083E8070002
:10428C00EBE700680028EED00C21FFF700FFEAE70F
:10429C00F0B58DB002AD85E80600064695E8030042
:1042AC0005AC84E805001F460C2000230A93FFF799
:1042BC00EAFE024620B194E8030082E8030097600E
:1042CC000B4B0B930B4B0A939DF8503008920093B9
:1042DC009DF848209DF94C3008A9304601F0DAF8D9
:1042EC000A9B1BB108A90322084698470DB0F0BDE4
:1042FC003D420B005D420B000EB403B503AB002135
:10430C0053F8042B019301F098FA02B05DF804EB1A
:10431C0003B0704738B584690A4B036005467CB11D
:10432C006368013B63605BB9236820469B689847D0
:10433C00A368013BA3601BB923682046DB68984740
:10434C00284638BDBC6F0B0010B50446FFF7E2FFE2
:10435C0020461C21FFF79BFE204610BD2DE9F04F97
:10436C000F460446164689B00221384601F0D4FFA8
:10437C000221304601F0D0FFDFF858B1E66000238F
:10438C00C4E90137236063614FF4FA6000F06AFD01
:10439C00D4F808A09BF800304D4DBFF35B8F13F0A1
:1043AC00010F09D15846FFF781FE28B100F06AFDD4
:1043BC0028605846FFF77FFE1FFA8AFA2B684FEAEF
:1043CC000A1A13F80A809BF80030BFF35B8FD907E9
:1043DC004FEA481909D43F48FFF768FE28B100F0AE
:1043EC0051FD28603B48FFF766FE2B68534493F859
:1043FC00018008F01F0848EA09084046FFF75EFEF6
:10440C004046FFF75BFED4F80CA09BF80030BFF3DE
:10441C005B8FB0F1000818BF4FF00108DA0709D420
:10442C002C48FFF743FE28B100F02CFD28602948EA
:10443C00FFF741FE1FFA8AFA2B684FEA0A1A13F8A3
:10444C000A909BF80030BFF35B8FDB074FEA4919EA
:10445C0009D42048FFF72AFE28B100F013FD28608C
:10446C001C48FFF728FE2B689A449AF8015005F077
:10447C001F0545EA09052846FFF720FE2846FFF7E9
:10448C001DFE08B148F00208DFF84C9084F810804B
:10449C0000254FF0FF3823462A4649463846CDE9D9
:1044AC0000580295CDF810900595FFF7F1FECDE977
:1044BC000695CDE90185009508AA304612E906005B
:1044CC002346FFF7E5FE204609B0BDE8F08F00BF9C
:1044DC0010E503200CE5032005410B0008B501F0A5
:1044EC00DDFD4FF4165101F0CDFD0221062001F047
:1044FC0013FF0121052001F00FFF0121042001F021
:10450C000BFF0121052001F018FFBDE80840002138
:10451C00042001F012BF000073B5244D244C00F0B0
:10452C00EBFF6E6900F0EAFF002E266038DA00F02F
:10453C00E3FF60266E6100F0E1FF26602723009305
:10454C00002320681B4E1C4D1C4C1946602200F0A9
:10455C00CDFE33682860984208D000F08BFC184BD5
:10456C004FF4FA7218605A60012323702B68336081
:10457C0023789BB100F07EFC114B1A685B68801AA3
:10458C0098420BD301F08AFD2A680E4B0E4902EBC0
:10459C00C2021A44FFF7B0FE0023237002B070BDB4
:1045AC00602ECBDD00F0A8FF0026C3E70CE603204D
:1045BC009CE50320D4E50320B0E50320BCE50320F3
:1045CC00B4E5032028DF032051690B0008B51F490F
:1045DC001F4801F0B7F91F4A1F4B12681A601F4A97
:1045EC001F4812685A601F4A12689A601E4A126865
:1045FC00DA601E4A12681A611D4A12685A611D4A15
:10460C0012689A6101F07CFC1B4801F079FC1022C5
:10461C000F211A48FFF7A2FE022308222E21184868
:10462C0000F071F8174800F033F81748042100F037
:10463C00F3FB164B0022C3E90022A2F580329A60EC
:10464C00BDE80840022000F08DBD00BF94680B004F
:10465C00A0E503204CE5032030E503201CDF0320FC
:10466C0014E5032024DF032014DF032010DF0320D4
:10467C0018DF032020DF03205CE503200CE6032079
:10468C00C0E50320D8E5032078E5032050E503209E
:10469C004FF0FF33C360704738B50446C0680D4611
:1046AC0008B100F0EBFDA379062B0CBF042003200E
:1046BC0010FB05F080B2A08000F0D8FDE06028B1BE
:1046CC00A288002101F0FEFF658038BDA0806080CB
:1046DC00FBE737B5037805460C461BB1C0790021C2
:1046EC0001F01AFE2B78EC715BB1A0B201210190A4
:1046FC0001F012FE0198002103B0BDE8304001F03A
:10470C001CBE03B030BD70B500250446164683713F
:10471C00C0E9035505700572FFF7BEFF2046314610
:10472C00FFF7D7FF204670BD08B500F0ABFB014B7F
:10473C00186008BD30E603202DE9F04F85B01F4608
:10474C00BDF93880BDF83C30A8EB0209A7EB010A93
:10475C00B9F1000FB8BFC9F10009BAF1000FB8BF29
:10476C00CAF1000AD14583460C46154604DD3A468B
:10477C002C4647460D469046BC4205DD2A4645462A
:10478C00904622463C4617463E1BB2B20092A8EB1E
:10479C00050282EAE271A1EBE271C6F3C03202FAC1
:1047AC0086F64545B4BF01224FF0FF3201917610D9
:1047BC000292BC421CDCDBF800200393D145D2F8FA
:1047CC001080C7BF294622462A4621465846C04774
:1047DC00019A039BB61AB1B236B2002E05DA029AD0
:1047EC001544009A56182DB236B2013424B2E0E7C3
:1047FC0005B0BDE8F08F2DE9F347BDF82C800768B4
:10480C00BDF92890CDF800800446FF6916468A460B
:10481C001D46B8472368CDF8008009F1FF323244B9
:10482C00DF6951462B46204612B2B8472368CDF8B3
:10483C0000809F6932464B4651462046B8476B1E56
:10484C0003EB0A012368CDF828809D6932464B465C
:10485C0009B22046AC4602B0BDE8F047604737B518
:10486C00013B13440468BDF8185001951BB200932A
:10487C0064690B46A04703B030BD37B5BDF818507E
:10488C000468CDE90025013B0B4464691BB2A047C9
:10489C0003B030BD2DE9F347BDF92890BDF82C804D
:1048AC00054692460C46CE18B4420BDA2B68CDF86E
:1048BC0000809F6921464B46524628460134B84732
:1048CC0024B2F1E702B0BDE8F08713B5026801919C
:1048DC00B0F90E100091546AB0F90C300022114658
:1048EC00A04702B010BD704730B54281C2814FF075
:1048FC00FF320024054D42610122446005600181B4
:10490C00818104610283827630BD00BF586E0B003A
:10491C002DE9F04F2DED028B8DB007460491BDF8BB
:10492C0060100591BDF864100691B0F90C10049854
:10493C009DF86850814252DDB7F90E1091424EDD60
:10494C00062111FB0504002C49DD02EBC504002CEB
:10495C0045DD03EB83030B9393B2079308339BB2B0
:10496C00089100240993052C1CBF2C4B0B9A079E15
:10497C0016BF1B1900239B5C0393049AABB20A93DA
:10498C0004FB05F313FA82F31BB204EB020A08EEE4
:10499C00103AB0460FFA85F90FFA8AFA039BDB0737
:1049AC002FD5012D3B681FD1D3F810B0059B32B227
:1049BC0051463846D847039B5B0803930A9B013644
:1049CC009844099BB6B2B3421FFA88F8E6D1089B0B
:1049DC00013B013413F0FF0364B20893C3D10DB053
:1049EC00BDEC028BBDE8F08F059ACDE9009218EE74
:1049FC00101AD3F824B00FFA88F24B463846D84731
:104A0C00D9E7DDE905239342D5D0012D3B6803D1CD
:104A1C00D3F810B0069BCAE7069AE6E755690B0077
:104A2C0030B50A2985B0044607D1027E638A03EBB0
:104A3C00C20363820023238221E00D291FD0037E51
:104A4C000293C38A0193838A0093B0F912200B4618
:104A5C00B0F91010FFF75CFF207E238A00EB4001B9
:104A6C0003EB4103A17E1BB20246238239B1B4F998
:104A7C000C106FF0050505FB00118B42D6DC0120F4
:104A8C0005B030BD407E7047B0F90C007047B0F9EE
:104A9C000E007047F0B5457EBDF81440022D69D06C
:104AAC00032D00F09980012D6CD10589D2432A4445
:104ABC0012B2002A5DDBB0F90850954259DD00298D
:104ACC00BEBF5B181BB20021B0F90A00CD1885429D
:104ADC00C4BF431A1BB2002B4BDDC1F3C400DFF87B
:104AEC0020C102EBC01211F00701DBB20CEB02008B
:104AFC001AD0C1F10805404EEDB2AB42775D3FBF15
:104B0C00A5EB030EFF2646FA0EF637401CF80260A2
:104B1C00012C0CBF3E43BE43AB420CF8026028D3C1
:104B2C0008390B44DBB28030072B19D9012C4FF01C
:104B3C00FF3518BF0025EDB200F180011A46083A86
:104B4C00D2B2072A01F8805C01F18001F7D8A3F1F9
:104B5C000802C2F3C402013200EBC21003F00703D7
:104B6C003BB1264AD25C0378012C0CBF1343934310
:104B7C000370F0BD4589D2432A44CD180189491BE5
:104B8C0012B209B2002AF4DBB0F90A509542F0DDFA
:104B9C000029BEBF5B181BB20021B0F90870CE18FB
:104BAC00BE42C4BF6B1A1BB2002BE2DDD0108025B5
:104BBC0010FB05111248014402F00700012282404B
:104BCC00012CD2B20B440CD18B42D2D011F8010B78
:104BDC00104301F8010CF7E7CD184189491B09B2C4
:104BEC0067E7D243D2B28B42C3D011F8010B10400D
:104BFC0001F8010CF7E700BF98E0032090E00320D8
:104C0C00A0E00320F0B5457EBDF81440022D34D051
:104C1C00032D00F09B80012D37D1D5180289521B32
:104C2C0012B20029C0F29180B0F90A508D4240F3C3
:104C3C008C80002ABEBF9B181BB20022B0F90870F2
:104C4C00D618BE42C4BFAB1A1BB2002B7DDDC810F8
:104C5C00802510FB05224548024401F00700012184
:104C6C008140012CC9B2134475D19A426DD012F80F
:104C7C00010B084302F8010CF7E70589C9432944E5
:104C8C00D5184289521B09B212B200295DDBB0F96A
:104C9C0008508D4259DD002ABEBF9B181BB2002262
:104CAC00B0F90A00D5188542C4BF831A1BB2002B79
:104CBC004BDDC2F3C400DFF8B4C001EBC01112F03D
:104CCC000702DBB20CEB01001AD0C2F10805284E2A
:104CDC00EDB2AB42775D3FBFA5EB030EFF2646FA64
:104CEC000EF637401CF80160012C0CBF3E43BE434E
:104CFC00AB420CF8016028D3083A1344DBB2803085
:104D0C00072B19D9012C4FF0FF3518BF0025EDB238
:104D1C0000F180011A46083AD2B2072A01F8805CE9
:104D2C0001F18001F7D8A3F10802C2F3C4020132E9
:104D3C0000EBC21003F007033BB10E4AD25C0378C0
:104D4C00012C0CBF134393430370F0BD4589C94339
:104D5C00294409B265E7C943C9B29A42F5D012F8A1
:104D6C00010B084002F8010CF7E700BFA0E003209C
:104D7C0098E0032090E0032070470000F8B50D1E6A
:104D8C00064614461F462DDBFFF77EFEA84229DDA2
:104D9C00002C27DB3046FFF77AFEA04222DD30469E
:104DAC00FFF770FE02281ED0032825D0012804D15D
:104DBC003389E2431A442C4615B2002C2246B8BF64
:104DCC00E21DD210802112FB01550E49012204F084
:104DDC0007044B5702FA04F464B297420CBF234306
:104DEC00A3434B55F8BD318972890139E4434D1BFE
:104DFC0014442DB224B2E0E77389013B5B1B2546BA
:104E0C001CB2DAE7A0E0032010B524210446FFF71A
:104E1C003EF9204610BD000038B5402204460D4630
:104E2C008021FFF761FD064B2360FF2384F82130BE
:104E3C0063774FF6FF73E38384F82050204638BD28
:104E4C00906E0B0008B5024B1B685B6C019308BDA0
:104E5C004802030008B5024B1B685B68019308BD50
:104E6C001802030008B5024B1B68DB68019308BDF0
:104E7C001802030008B5024B1B685B69019308BD5F
:104E8C001802030008B5024B1B681B68019308BD90
:104E9C002C02030008B5024B1B689B68019308BDEC
:104EAC002C02030008B5024B1B68DB68019308BD9C
:104EBC002C02030008B5024B1B681B69019308BD4B
:104ECC002C02030008B5024B1B689B69019308BDBB
:104EDC002C02030008B5024B1B68DB69019308BD6B
:104EEC002C02030008B5024B1B681B6A019308BD1A
:104EFC002C02030008B5024B1B685B6A019308BDCA
:104F0C002C02030008B5024B1B681B6A019308BDF9
:104F1C002802030008B5024B1B685B6A019308BDAD
:104F2C002802030008B5024B1B689B6A019308BD5D
:104F3C002802030008B5024B1B68DB6A019308BD0D
:104F4C002802030008B5024B1B681B6B019308BDBC
:104F5C002802030008B5024B1B685B6B019308BD6C
:104F6C002802030008B5024B1B681B6C019308BD9B
:104F7C002802030008B5024B1B685B69019308BD4E
:104F8C006C02030008B5024B1B685B69019308BDFA
:104F9C006402030008B5024B1B681B6A019308BD31
:104FAC006402030008B5024B1B689B6A019308BDA1
:104FBC006402030008B5024B1B689B68019308BD93
:104FCC006802030008B5024B1B68DB68019308BD3F
:104FDC006802030008B5024B1B689B69019308BD6E
:104FEC003802030008B5024B1B68DB69019308BD4E
:104FFC003802030008B5024B1B681B6A019308BDFD
:10500C003802030008B5024B1B689B6A019308BD6C
:10501C003802030008B5024B1B681B6B019308BDDB
:10502C003802030008B5024B1B689B6B019308BD4B
:10503C003802030008B5024B1B68DB69019308BDFD
:10504C003002030008B5024B1B681B6A019308BDB4
:10505C003002030008B5024B1B68DB68019308BDE6
:10506C003C02030008B5024B1B681B69019308BD89
:10507C003C02030008B5024B1B685B69019308BD39
:10508C003C02030008B5024B1B689B69019308BDE9
:10509C003C02030008B5024B1B68DB69019308BD99
:1050AC003C02030008B5024B1B681B6A019308BD48
:1050BC003C02030008B5024B1B689B6A019308BDB8
:1050CC003C02030008B5024B1B681B6C019308BD26
:1050DC003C02030008B5024B1B681B68019308BD1A
:1050EC004C02030008B5024B1B685B68019308BDBA
:1050FC004C02030008B5024B1B681B69019308BDE9
:10510C004C02030008B5024B1B685B69019308BD98
:10511C004C02030008B5024B1B689B69019308BD48
:10512C004C02030008B5024B1B68DB69019308BDF8
:10513C004C02030008B5024B1B681B6A019308BDA7
:10514C004C02030008B5024B1B685B6B019308BD56
:10515C006002030008B5024B1B681B6D019308BD70
:10516C006002030008B5024B1B685B68019308BD25
:10517C002002030008B5034B1B68D3F88830019359
:10518C0008BD00002002030008B5034B1B68D3F8D0
:10519C009430019308BD00002002030008B5024BB7
:1051AC001B68DB6B019308BD4402030008B5024B7E
:1051BC001B685B68019308BD4002030008B5024BF5
:1051CC001B689B68019308BD4002030008B5024BA5
:1051DC001B68DB68019308BD4002030008B5024B55
:1051EC001B681B69019308BD4002030008B5024B04
:1051FC001B685B69019308BD4002030008B5024BB4
:10520C001B689B69019308BD4002030008B5024B63
:10521C001B68DB69019308BD4002030008B5024B13
:10522C001B681B6A019308BD4002030008B5024BC2
:10523C001B681B6B019308BD4002030008B5024BB1
:10524C001B685B6B019308BD4002030008B5024B61
:10525C001B681B6C019308BD4002030008B5024B90
:10526C001B685B6C019308BD4002030008B5024B40
:10527C001B681B68019308BD1C02030008B5024B98
:10528C001B685B68019308BD1C02030008B5024B48
:10529C001B689B68019308BD1C02030008B5024BF8
:1052AC001B685B6A019308BD1C02030008B5024B26
:1052BC001B68DB6A019308BD1C02030008B5024B96
:1052CC001B68DB6B019308BD1C02030008B5024B85
:1052DC001B681B6C019308BD1C02030008B5024B34
:1052EC001B685B6C019308BD1C0203008A4210B55D
:1052FC0007D0441A0298C01A4443501A94FBF0F099
:10530C00184410BD10B58368044613B1032201463E
:10531C009847204610BD0000024800230360FFF7A9
:10532C0091BD00BF34E60320002240681146FFF710
:10533C0075BF002240681146FFF780BF406800220D
:10534C00FFF774BF4068002281F00101FFF75EBFD8
:10535C00002340681A461946FFF750BF00234068E7
:10536C001A461946FFF742BF002240681146FFF764
:10537C0035BF002240681146FFF720BF406800226D
:10538C000221FFF723BF002340681A46FFF70EBF28
:10539C00024B03225A60024A1A60704738E6032017
:1053AC00D06E0B007047F8B5064615460C468F18A4
:1053BC00BC4206D0336814F8011B9B6830469847F2
:1053CC00F6E72846F8BD007C0022FFF79BBD007C69
:1053DC000021FFF79FBD007C0021FFF7A3BD007CDF
:1053EC000021FFF7A7BD007C0021FFF7ABBD10B576
:1053FC0014210446FEF74BFE204610BD38B504467A
:10540C0015464FF47A730022C4E90123094B217429
:10541C00084623602946FFF7A5FDBF3008D16B690C
:10542C00DB0705D56868FFF729FFE868FFF726FF5B
:10543C00204638BD0C6F0B00826810B50AB901F01C
:10544C0017F8BDE81040C36818470000F8B5104FB6
:10545C0057F8204006460D4634B12046FFF752FF60
:10546C0010212046FEF713FE1020FEF70CFE04461A
:10547C0050B100238360AB6833B1022229469847B0
:10548C00EB68E360AB68A36047F826402046F8BDA4
:10549C0040E60320F0B587B00546039117461E463B
:1054AC00FFF718FD03992846FFF7D0FF0446E8B133
:1054BC0000218E424FF00403ADF815108DF8171033
:1054CC008DF81430A2BF05A99DF830308DF8163038
:1054DC00009102460749A8BF8DF815603B46284647
:1054EC00FFF7F0FC10B1002007B0F0BD201E18BF74
:1054FC000120F9E745540B00FFF7FCBCFFF7F2BCA9
:10550C00704710B518210446FEF7C1FD204610BDAA
:10551C00F0B5037D062B8DB00E4600F104074FF05D
:10552C00000412D000F1080515F8011D0A223046BE
:10553C0000F065F9AF42044419D0002CF4D02E21B0
:10554C00304600F04DF90444EEE72F236A46394605
:10555C000A208DF80040FFF715FD684601F0F2F8BF
:10556C0033680246DB686946304698470446204655
:10557C000DB0F0BD10B5054B0446112240F8043BAC
:10558C00002101F09FF8204610BD00BF346F0B00C6
:10559C000346074A10B543F8042B01F1100251F8E9
:1055AC00044B43F8044B9142F9D10A781A7010BDA0
:1055BC00346F0B00037D042B04D14068003818BFF6
:1055CC0001207047062B07D143683BB983682BB980
:1055DC00C3681BB90069F1E70020704701207047D0
:1055EC0010B59DF8084044EA032343EA024242EA1C
:1055FC00016104234160037510BD000007B5064B23
:10560C000360CB7800938B784A780978FFF7E8FF32
:10561C0003B05DF804FB00BF346F0B00014B024A72
:10562C001A607047D0E60320406F0B0000234068DF
:10563C001A46FFF7BBBD406800220221FFF7C6BD2A
:10564C00002240681146FFF7B9BD002240681146A0
:10565C00FFF7C4BD002340681A461946FFF7C6BDC4
:10566C00002340681A461946FFF7C8BD4068002160
:10567C00FFF7ECBD40680021FFF7F0BD4068002249
:10568C0081F00101FFF7C2BD40680022FFF7CEBDDB
:10569C00002240681146FFF7D1BD00224068114638
:1056AC00FFF7BCBD2DE9F04395B014460D460746F7
:1056BC00FFF760FF00211C220DA8009101F002F8F9
:1056CC0040230C9320466B460CAA0021FFF77AFC72
:1056DC00044600284BD1024601216868FFF77EFD85
:1056EC000221804622466868FFF778FD009E8146BD
:1056FC002146002E3BD0002939D17368022B03D0F0
:10570C000A2B11D0F669F4E7B8F1000FFAD07169E1
:10571C0006A8043107ADFFF771FF0FCD3C1D0FC478
:10572C002B6823704146EDE7B9F1000FEAD074699C
:10573C00102201A800F0C6FF06238DF8143001AD2D
:10574C0004F108031834186859682A4603C2083350
:10575C00A3421546F7D101A906A807ADFFF718FF1C
:10576C000FCD3C1D0FC42B6823704946CAE7009827
:10577C00FFF720FC384615B0BDE8F083024B034A16
:10578C001A6000225A607047D4E603204C6F0B005D
:10579C00F8B506460D468F180024BD420CD0336870
:1057AC0015F8011B9B6830469847031E01DB1C440F
:1057BC00F3E7002C08BF1C462046F8BD13B5044681
:1057CC00084659B1019100F0BDFF23680199DB68CF
:1057DC000246204602B0BDE81040184702B010BD8A
:1057EC0003689B68184738B50D210546FFF7F8FF8D
:1057FC000A2104462846FFF7F3FF204438BD30B594
:10580C008BB00023012A8DF8243098BF0A2209ACF2
:10581C000D46B1FBF2F101FB125303F0FF03092B10
:10582C0094BF30333733DBB2AA4204F8013DEFD9D1
:10583C002146FFF7C3FF0BB030BD2DE9F04186B018
:10584C0000AF05460E46381D142114463B60FFF789
:10585C0025FD13280ED8391D2846FFF7AFFF044647
:10586C001EB12846FFF7BFFF044420461837BD463B
:10587C00BDE8F08100F1080323F00703E846ADEB27
:10588C00030D2246411C3B686846FFF707FD69463D
:10589C002846FFF793FF0446C546E1E7014B00227B
:1058AC009A607047DCE6032010B504460846217068
:1058BC00FFF7C0FB00236360204610BD10B5044603
:1058CC00006808B1FFF7DAFC0023C4E90133236058
:1058DC0010BD38B504460D4600680131FFF7D6FC03
:1058EC0010B1C4E90005012038BD10B503680446A9
:1058FC0023B143688B4201D3012010BD2046FFF732
:10590C00E8FF0028F9D0A368002BF5D122681370AA
:10591C00F2E737B50D46114601920446FFF7E5FF55
:10592C00019A28B92046FFF7C9FF204603B030BDC5
:10593C00A2602946206800F0B7FE2268A368002107
:10594C00D154F2E7002313B5C0E900330446836059
:10595C00037341B10846019100F0F4FE019902462F
:10596C002046FFF7D6FF204602B010BD054B0222A1
:10597C001A60054B054A9A600020C3E90000FFF746
:10598C00F1BB00BFF8E60320ECE603200000FFFFAC
:10599C0013B503688DF80710DC6B01224FF0FF3351
:1059AC000DF10701A04702B010BD10B40368DC6B09
:1059BC004FF0FF33A4465DF8044B604713B5134614
:1059CC0002688DF80710D46B0DF107010122A04776
:1059DC0002B010BD10B54369B3F88620B3F884301B
:1059EC009A42044608D06369B3F88420511CA3F88A
:1059FC0084101344187910BD03681B69984700285C
:105A0C00F1D14FF0FF30F6E7704743691868C04397
:105A1C00C00F704770470000064B994210B500F15B
:105A2C000C0405D0084600F027FD002808BF002410
:105A3C00204610BDC06E0B0010B5AC210446FEF71D
:105A4C0026FB204610BDAC21FEF721BB2DE9F04111
:105A5C004FF0000886B01C46C0F8048005460E4680
:105A6C0017464146102202A800F02CFE631C09D0F8
:105A7C004FF47A73B4FBF3F203FB1244CDE9022822
:105A8C005C430494686910230093006802AB41F2F4
:105A9C00050240F6FF71FFF79DFA002807DAFFF7C1
:105AAC000DFC03686B60002006B0BDE8F0816869EE
:105ABC00002300683A463146FFF7ACFA031EEEDBD2
:105ACC001846F1E730B587B0044601AD6846FFF7DC
:105ADC0095FD0FCD04340FC42B68237007B030BD77
:105AEC0070B54D69054B04468C3544F8043B0646AD
:105AFC000FCD0FC42B682370304670BD346F0B0074
:105B0C002DE9F0439846036893B00D460024DB6AF8
:105B1C0006461746984728466B462246214600946F
:105B2C00FFF750FA0546002863D1009B002B4BD0A1
:105B3C005B69002B48D006A8FFF71CFD009B5C6935
:105B4C006378022B04D1211D06A8FFF7BBFF26E0CA
:105B5C000A2B24D11122294601A800F0B3FDA36819
:105B6C00002B38D004F108030DF1040C183418681C
:105B7C005968624603C20833A3429446F7D1062300
:105B8C0001A90CA88DF81430FFF702FD0DF1340CAF
:105B9C00BCE80F0007AC0FC4DCF80030237006A87B
:105BAC00FFF708FD80B1336807ADD3F82090124B96
:105BBC000C930FCD0DAC0FC42B6823703A464346A3
:105BCC000CA93046C84705460098FFF7F3F928465C
:105BDC0013B0BDE8F083E368002BC3D14FF6FF7020
:105BEC00D4F81090FFF7D6F98145BBD104F114011C
:105BFC00AAE72546E8E700BF346F0B0038B54369C8
:105C0C001A68002A054610DAB3F88620B3F88430F7
:105C1C009A420AD103681B699847044628B92B6835
:105C2C002846DB6A9847204638BD0120FCE710B5B2
:105C3C004369B3F88620B3F884309A42044605D001
:105C4C006369B3F884201344187910BD03681B6989
:105C5C0098470028F4D14FF0FF30F6E7F8B54369C8
:105C6C001746B3F88620B3F884309A4205460E46A0
:105C7C0016D06969B1F88430B1F88640E41ABC4298
:105C8C0028BF3C46043322461944304600F00CFD34
:105C9C006A69B2F884302344A2F884302046F8BDF7
:105CAC0003681B6998470028E3D14FF0FF34F5E7F0
:105CBC0042690023A2F884304269A2F8863070470A
:105CCC002DE9F0411F4603680C46DB6A8AB0054695
:105CDC0016469847237DD5F81480042B0CBF022060
:105CEC000A2006220121FFF79DF9C8F800006B6914
:105CFC001B68002B08DA2B682846DB6A00249847BF
:105D0C0020460AB0BDE8F0812846FFF7D1FFB7B1B5
:105D1C00002303A9F8B20393ADF81030FFF72AF96A
:105D2C000028E8D1686906230093006803AB41F2B0
:105D3C000B0240F6FF71FFF74DF90028DBD11C2256
:105D4C00002103A800F0BEFC237D042B1DD14FF4D1
:105D5C0007733046ADF80C30FFF724F9ADF80E00A0
:105D6C006068FFF717F904906B691C22186803A987
:105D7C00FFF740F90028BED104340FCC6D698C3587
:105D8C000FC523682B700124BAE740F61C2330465C
:105D9C00ADF80C30FFF706F905AEADF80E00231D7B
:105DAC0004F1140718685968324603C20833BB4221
:105DBC001646F7D1D8E7000030B54269B2F8863004
:105DCC008BB004462BB1B2F884209A4201D1FFF774
:105DDC006FFF61690868002818DBB1F886507F2DC9
:105DEC0014D804310823C5F180022944FFF70AF9BD
:105DFC00002813DD6369B3F886200AB9A3F8842060
:105E0C006369B3F886201044A3F886006369B3F87D
:105E1C008600B3F88430C01A0BB030BDFFF74EFAD1
:105E2C0003680B2BF2D0FFF749FA03680B2BEDD06C
:105E3C0020230025CDE90235FFF740FA03680193D2
:105E4C00084B0949009302AA2B463220FFF782F92E
:105E5C0063691868FFF7C6F863694FF0FF321A6080
:105E6C00D4E700BF876F0B00806F0B0010B5436940
:105E7C0004461868002801DBFFF7B4F863694FF09B
:105E8C00FF321A606069112200218C3000F01AFC7C
:105E9C002046BDE81040FFF70BBF10B500230446A9
:105EAC000160C0F884308830FFF764FB204610BDD9
:105EBC0073B500234FF47A72C0E901320E4A0361C4
:105ECC00026043610446AC200191FEF7DCF8051E2C
:105EDC0005F10C0608D00123C5E90133074B0199E4
:105EEC002B603046FFF7D9FF2046C4E90565FFF764
:105EFC00DFFE02B070BD00BFBC6F0B00A06F0B00CB
:105F0C0010B54FF0FF310446FFF7D2FF204610BD0D
:105F1C0010B504460068002801DBFFF763F8204643
:105F2C0010BD0C30FFF7F4BF024B1A68024B1A601D
:105F3C00704700BFA0E40320FCE6032070474174C7
:105F4C00704708B5007CFFF7B5F820EAE07008BD93
:105F5C0008B5007CFFF786F820EAE07008BD08B5AC
:105F6C00007CFFF78FF840EAE07008BD08B5007CB4
:105F7C00FFF780F840EAE07008BD007CFFF78AB8B4
:105F8C0037B5457C04462DB1207C03B0BDE83040CC
:105F9C00FFF760B8007C0191FFF78CF8002801999D
:105FAC00F2DC284603B030BD10B514210446FEF7D0
:105FBC006EF8204610BD000010B54FF47A730446FD
:105FCC00084611460022C4E90123044B2360012337
:105FDC0020746374FFF776F8204610BD24700B0014
:105FEC00417470477047704708B50021007CFFF77B
:105FFC0091F840EAE07008BD08B50121007CFFF77C
:10600C0089F840EAE07008BD08B5007CFFF77AF823
:10601C0020EAE07008BD08B5007CFFF76BF820EAB9
:10602C00E07008BD13B50446007C0191FFF76AF8D7
:10603C000028019901DC607C20B1207CFFF772F80C
:10604C0020EAE07002B010BD007CFFF773B810B509
:10605C0014210446FEF71BF8204610BD10B54FF472
:10606C007A73044608460021C4E90113044B2360EB
:10607C000123207463741146FFF72CF8204610BDE1
:10608C0054700B00007C0022FFF72CB810B51422C2
:10609C000446002100F016FB204610BD10B50F4C35
:1060AC0088B003A8FFF7F2FF2178BFF35B8F11F0E4
:1060BC0001010FD120460191FDF7F8FF019948B17C
:1060CC0003AA0748FFF7CAFF2046FDF7F4FF05486F
:1060DC0000F0E4FA024808B010BD00BF00E703204E
:1060EC0004E70320F15F0B00002240681146FFF724
:1060FC0075B8002240681146FFF790B8002240683E
:10610C001146FFF79BB840680022FFF78FB8406834
:10611C00002281F00101FFF779B8002340681A468C
:10612C001946FFF76BB8002340681A461946FFF76B
:10613C005DB8002240681146FFF740B84068002265
:10614C000221FFF743B8002340681A46FFF72EB828
:10615C00024B04225A60024A1A60704718E7032067
:10616C0084700B00014B1860704700BFA4E403203F
:10617C0008B50B4B43B1FFF791FF03681B699847B8
:10618C00002801DDAFF30080064B43B100F04AF963
:10619C0003681B699847002801DDAFF3008008BD38
:1061AC00000000000000000008B5FFF7E1FFFEF75B
:1061BC0061FE014B186008BD28E703200548064A1C
:1061CC00064908B5121A00F06FFA054B054A1A6019
:1061DC0008BD00BF00F4032004F4032074720B000C
:1061EC0000F403201E1C279A07B5002300931A46BF
:1061FC006FF07701FEF7C8FF03B05DF804FB0000F9
:10620C0007B543880A2B08D0502B0BD1094B1B68C0
:10621C004BB103B05DF804EB1847FFF7E5FF03B093
:10622C005DF804FB002300931A466FF07701FEF72C
:10623C00ABFFF4E724E7032010B512480021FFF769
:10624C004DF8114B1A68114B9A42114B0CBF01229D
:10625C0000221A7001D0FFF7B1FFFEF7FBFD0446D8
:10626C0000F038FA0B4B13B12046AFF3008000213D
:10627C000848FEF793FFBDE8104007480021FEF7E1
:10628C0079BF00BF71610B0000F403201E1C279A1C
:10629C0020E70320000000000D620B00232813B53B
:1062AC0002D9002002B010BDA0F10B03022B1AD8AA
:1062BC00174C2178BFF35B8F11F001010BD12046F5
:1062CC000191FDF7F3FE019928B11248FFF7ECFAA2
:1062DC002046FDF7F0FE0F4B1878FEF7B3FE0028B2
:1062EC00DFD10120DEE7012809D800F05BF800219E
:1062FC00007CFEF72FFE80F00100C0B2D2E7093817
:10630C000128EED800F08EF8007CFEF7CBFEF2E709
:10631C0024E6032028E60320232838B504460D463E
:10632C000AD8FF2908D0FFF7B9FF28B12946204623
:10633C00BDE83840FEF7AEBD38BD38B504460D4655
:10634C00FEF7B0FDFF2810D0062804D84D2323FA01
:10635C0000F0C30709D42046FFF7A0FF28B1294657
:10636C002046BDE83840FEF7A5BD38BD704700009B
:10637C0038B50A4B036001230446436108492020C9
:10638C0000F074F8202560600549A560284600F0EF
:10639C006DF8C4E90305204638BD00BF18000100A4
:1063AC00B8700B0030B50E4D2978BFF35B8F11F030
:1063BC00010487B011D12846FDF778FE68B1684614
:1063CC00FFF7D6FF6A4621460648FFF717F828461E
:1063DC00FDF771FE044800F061F9024807B030BDCA
:1063EC002CE7032030E7032079630B007047000093
:1063FC0038B5044614252A46002100F063F925809F
:10640C004025074925812846258200F02FF80449AC
:10641C006060284600F02AF8E060204638BD00BFD6
:10642C00B8700B0030B50E4D2978BFF35B8F11F0AF
:10643C00010487B011D12846FDF738FE68B101A8D8
:10644C00FFF7D6FF01AA21460648FFF7B5FD2846FF
:10645C00FDF731FE044800F021F9024807B030BDC9
:10646C0044E7032048E70320F9630B00FDF70DBE5A
:10647C0008B5FEF71BFF0000014900F0F9B800BF9A
:10648C00D4700B007FB500241023CDE902340368CF
:10649C0015469E6912686B46CDE90044B0479DF8DD
:1064AC00043003F00603062B03BF009B2B60012076
:1064BC00204604B070BD0098904214BF0120062005
:1064CC007047000010B5034B0360044600F0CDF894
:1064DC00204610BD14710B0010B50446FFF7F2FFF7
:1064EC0020460821FDF7D3FD204610BD2DE9F041D3
:1064FC001F46DDE90834DDF8188098450646154638
:10650C0007D1079900F0B4F818B165710020BDE807
:10651C00F0813946304600F0ABF80028F6D0012364
:10652C00C4F800802571A371F0E738B515461C46F8
:10653C0000F09EF820B10823E36006232560237148
:10654C0038BD73B505460C4601921E4600F090F816
:10655C0050B9032E08D82368019A5B692946204656
:10656C0002B0BDE87040184702B070BD10B5034BC7
:10657C0003600446FFF7A6FF204610BD74710B00A4
:10658C0010B50446FFF7F2FF20460C21FDF77FFD06
:10659C00204610BDF7B5089F974205460E46144697
:1065AC000AD0A86802680897156A31462246AC469C
:1065BC0003B0BDE8F04060471946019300F058F86D
:1065CC00019B0028EDD0062003B0F0BD2DE9F14F62
:1065DC000D461946DDE90A4BDDE90CA68146174646
:1065EC00984600F045F890B1002D3460377109DB06
:1065FC0061198A450CBF06210121B171002001B03F
:10660C00BDE8F08F0235F9D10123B371F6E754459B
:10661C0006D15946484600F02BF808B17771EDE7E2
:10662C00D9F808000368CDE90CA6CDE90A4BDC6962
:10663C003A4643462946A44601B0BDE8F04F6047B0
:10664C002DE9F04107460C4615461E46FFF76DFF37
:10665C0048B9B86803689F692A4633462146BC4648
:10666C00BDE8F0416047BDE8F081704700207047FD
:10667C00814208B50ED0406803782A2B0CD04968AB
:10668C000B782A2B08BF013100F052F8B0FA80F0D9
:10669C00400908BD0120FCE70020FAE70023014671
:1066AC001A46184600F056B80A44914200F1FF33DE
:1066BC0000D1704710B511F8014B03F8014F91420E
:1066CC00F9D110BD02440346934200D1704703F840
:1066DC00011BF9E738B5104B1D68AB6B0446B3B919
:1066EC001820FEF7C3FD0246A86320B90B4B0C48DB
:1066FC004221FEF7EBFD0B490B4BC0E900130B4B92
:10670C0083600B23838100210120C2E90401AB6B60
:10671C0000221C615A6138BDA4E40320AD710B004A
:10672C00C4710B000E33CDAB34126DE6ECDE0500FC
:10673C0010F8012B11F8013B012A28BF9A42F7D01F
:10674C00D01A7047034613F8012B002AFBD1181AF4
:10675C00013870472DE9F843DFF8B8800646D8F8C1
:10676C0000001F460D46914600F056F8254B1C685C
:10677C0034B9254C1C60254B13B11B68C4F8883008
:10678C0063681F2B07DDD8F8000000F047F84FF0C6
:10679C00FF30BDE8F8834EB3D4F8880088B91C4BA1
:1067AC0023B9D8F8000000F038F8F0E74FF4847003
:1067BC00FEF75CFD0028F4D00023C0E94033C4F898
:1067CC008800636840F8239001229A4000EB830113
:1067DC00D0F800311343C0F80031022EC1F880709C
:1067EC0002BFD0F804311343C0F804316368D8F801
:1067FC0000005A1C0233626044F8235000F00EF87B
:10680C000020C6E7E8E703205CE703200000000057
:10681C0079520B0008E50320704770477047000061
:10682C001D400B0059400B0081400B0085400B00B4
:10683C000000000043616C6C206F6E2070757265F7
:10684C00207669727475616C00417373657274693A
:10685C006F6E4661696C757265202A705F70696E27
:10686C00203C20283332202B20313629004E6F203B
:10687C004368616E6765202D2043616E63656C6CA7
:10688C00696E6720434D440A007B226F6E223A7476
:10689C007275652C22736174223A002C2262726923
:1068AC00223A002C22687565223A007B226F6E22F8
:1068BC003A66616C73657D0053656E64696E672022
:1068CC00436F6D6D616E6420746F20487565005068
:1068DC005554202F6170692F002F6C696768747391
:1068EC002F002F737461746520485454502F312E2F
:1068FC0031006B6565702D616C69766500486F734E
:10690C00743A2000436F6E74656E742D4C656E671F
:10691C0074683A2000436F6E74656E742D547970F0
:10692C00653A20746578742F706C61696E3B63688E
:10693C0061727365743D5554462D380046726F6D07
:10694C00204875650025730A0000000000003E5BBE
:10695C004F5B3E3E6B4F6B3E1C3E7C3E1C183C7EA0
:10696C003C181C577D571C1C5E7F5E1C00183C1885
:10697C0000FFE7C3E7FF0018241800FFE7DBE7FF81
:10698C0030483A060E2629792926407F050507400E
:10699C007F05253F5A3CE73C5A7F3E1C1C08081CCF
:1069AC001C3E7F14227F22145F5F005F5F06097F0D
:1069BC00017F006689956A606060606094A2FFA2A6
:1069CC009408047E040810207E201008082A1C0855
:1069DC00081C2A08081E101010100C1E0C1E0C305F
:1069EC00383E3830060E3E0E060000000000000057
:1069FC005F00000007000700147F147F14242A7F17
:106A0C002A122313086462364956205000080703E3
:106A1C0000001C2241000041221C002A1C7F1C2A61
:106A2C0008083E08080080703000080808080800B4
:106A3C000060600020100804023E5149453E0042AF
:106A4C007F400072494949462141494D331814127F
:106A5C007F1027454545393C4A49493141211109A7
:106A6C00073649494936464949291E000014000099
:106A7C0000403400000008142241141414141400B3
:106A8C004122140802015909063E415D594E7C12FF
:106A9C0011127C7F494949363E414141227F414197
:106AAC00413E7F494949417F090909013E41415114
:106ABC00737F0808087F00417F41002040413F015F
:106ACC007F081422417F404040407F021C027F7FA0
:106ADC000408107F3E4141413E7F090909063E41B1
:106AEC0051215E7F09192946264949493203017F04
:106AFC0001033F4040403F1F2040201F3F40384093
:106B0C003F631408146303047804036159494D432B
:106B1C00007F4141410204081020004141417F04A3
:106B2C00020102044040404040000307080020548A
:106B3C005478407F284444383844444428384444EA
:106B4C00287F385454541800087E090218A4A49CB9
:106B5C00787F0804047800447D40002040403D00CC
:106B6C007F1028440000417F40007C047804787C2E
:106B7C00080404783844444438FC18242418182495
:106B8C002418FC7C08040408485454542404043F7E
:106B9C0044243C4040207C1C2040201C3C40304085
:106BAC003C44281028444C9090907C4464544C44B1
:106BBC000008364100000077000000413608000252
:106BCC00010204023C2623263C1EA1A161123A407C
:106BDC0040207A38545455592155557941215454F3
:106BEC007841215554784020545579400C1E5272EE
:106BFC0012395555555939545454593955545458CA
:106C0C000000457C410002457D420001457C40F07E
:106C1C00292429F0F0282528F07C545545002054CF
:106C2C00547C547C0A097F493249494932324848DC
:106C3C004832324A4848303A4141217A3A4240205F
:106C4C0078009DA0A07D39444444393D4040403DEE
:106C5C003C24FF2424487E4943662B2FFC2F2BFF1A
:106C6C000929F620C0887E0903205454794100007C
:106C7C00447D413048484A32384040227A007A0AF2
:106C8C000A727D0D19317D2629292F2826292929BB
:106C9C002630484D402038080808080808080838ED
:106CAC002F10C8ACBA2F102834FA00007B00000853
:106CBC00142A142222142A1408AA005500AAAA5530
:106CCC00AA55AA000000FF00101010FF00141414A5
:106CDC00FF001010FF00FF1010F010F0141414FC43
:106CEC00001414F700FF0000FF00FF1414F404FC60
:106CFC00141417101F10101F101F1414141F001041
:106D0C001010F0000000001F101010101F101010B9
:106D1C0010F010000000FF101010101010101010C8
:106D2C00FF10000000FF140000FF00FF00001F1008
:106D3C00170000FC04F414141710171414F404F4C2
:106D4C000000FF00F714141414141414F700F714B3
:106D5C001414171410101F101F141414F414101002
:106D6C00F010F000001F101F0000001F14000000A6
:106D7C00FC140000F010F01010FF10FF141414FF9E
:106D8C00141010101F00000000F010FFFFFFFFFF99
:106D9C00F0F0F0F0F0FFFFFF0000000000FFFF0F2D
:106DAC000F0F0F0F38444438447C2A2A3E147E02BD
:106DBC00020606027E027E02635549416338444452
:106DCC003C04407E201E2006027E020299A5E7A507
:106DDC00991C2A492A1C4C7201724C304A4D4D3078
:106DEC003048784830BC625A463D3E494949007E9D
:106DFC000101017E2A2A2A2A2A44445F4444405134
:106E0C004A444040444A51400000FF0103E080FFE7
:106E1C00000008086B6B083612362436060F090F73
:106E2C0006000018180000001010003040FF01018F
:106E3C00001F01011E00191D1712003C3C3C3C00B8
:106E4C000000000000000000000000000000000036
:106E5C00000000002D4A0B009D570B00A1400B00B9
:106E6C0045470B006B480B0087480B0003480B0091
:106E7C00A1480B00D7480B00F3480B0000000000A2
:106E8C0000000000854D0B00154E0B002D4A0B0029
:106E9C009D570B00894D0B0045470B00114C0B0007
:106EAC00A14A0B0003480B00A1480B00D7480B006C
:106EBC00F3480B0000000000000000000000000080
:106ECC000000000093530B0089530B007F530B0001
:106EDC0075530B0069530B005D530B0079560B0077
:106EEC0081560B0051530B0049530B003F530B00C1
:106EFC0035530B00B1560B000000000000000000E1
:106F0C00B1530B00FB530B00D3530B00B3530B00CB
:106F1C00DB530B00E3530B00EB530B00F3530B0051
:106F2C0000000000000000001D550B000D550B006B
:106F3C000F550B0061707000000000000000000095
:106F4C0039560B0043560B004D560B0057560B0091
:106F5C0061560B006D560B0079560B0081560B00D9
:106F6C0089560B0095560B009D560B00A7560B002F
:106F7C00B1560B00776972696E6700726563762093
:106F8C006572726F72203D202564000000000000C5
:106F9C0000000000215A0B00455A0B002F5F0B001C
:106FAC00535A0B00255A0B00000000000000000093
:106FBC0021430B0055430B009D590B00B7590B0097
:106FCC00C55D0B00E1590B003B5C0B00155A0B0027
:106FDC00CD5C0B000D5B0B00695C0B00795E0B004C
:106FEC00095C0B00175A0B00C9590B00595A0B00BE
:106FFC00ED5A0B0025592D256D2D25645425483A45
:10700C00254D3A2553257A0061736374696D6500CB
:10701C000000000000000000495F0B00B55F0B0092
:10702C008D5F0B009D570B005D5F0B00795F0B00B4
:10703C006B5F0B00875F0B004B5F0B004F5F0B0010
:10704C000000000000000000F35F0B005B600B0011
:10705C0031600B009D570B0023600B00F55F0B009C
:10706C0005600B0055600B0015600B00ED5F0B000D
:10707C00000000000000000053610B0049610B0090
:10708C003F610B00F5600B0033610B0027610B00B7
:10709C0079560B0081560B001B610B0013610B0022
:1070AC0009610B00FF600B00B1560B0000537431EB
:1070BC00395F53705F6D616B655F73686172656496
:1070CC005F7461670000000014710B00B9700B0055
:1070DC0074710B00E8700B0098710B004E31305F2F
:1070EC005F637878616269763131375F5F636C61B9
:1070FC0073735F747970655F696E666F450000002D
:10710C0000000000DC700B00D1640B00E5640B0088
:10711C0079660B0079660B004F650B0091640B00D0
:10712C0037650B00F9640B00C3640B0074710B0022
:10713C0044710B00DC700B004E31305F5F6378786C
:10714C00616269763132305F5F73695F636C617362
:10715C00735F747970655F696E666F45000000003F
:10716C000000000038710B0079650B008D650B0079
:10717C0079660B0079660B004F650B0091640B0070
:10718C004D660B00D9650B00A1650B0014710B004B
:10719C00A0710B00537439747970655F696E666FFA
:1071AC00005245454E54206D616C6C6F63207375B5
:1071BC0063636565646564002F746D702F6A656E1A
:1071CC006B696E732D4743432D31302D706970659B
:1071DC006C696E652D34385F323032303131323477
:1071EC005F313630363138303633392F7372632F86
:1071FC006E65776C69622F6E65776C69622F6C694E
:10720C0062632F7374646C69622F72616E642E6397
:10721C0000000000D9450B0035470B0025530B002F
:10722C009D530B0029560B0089570B00A9580B00D6
:10723C0079590B00355F0B005D610B0000000000FD
:04724C00000000003E
:10725000040000001400000003000000474E550029
:10726000A3F1E86CB05584A9C7B89564AE1AC9906B
:0472700051FCCB4DB5
:047274000000000016
:10727800C8AF0000E45700008CB900008813000074
:1072880050C300001027000030000000000000007C
:107298000031000000000000000032000000000083
:1072A800000000330000000000000000340000006F
:1072B800000000000035000000000000000036005B
:1072C800000000000000003700000000000000007F
:1072D8003800000000000000003900000000000035
:1072E8000000410000000000000000420000000013
:1072F80000000000430000000000000000440000FF
:1073080000000000000045000000000000000046EA
:10731800000000000000000047000000000000001E
:1073280000480000000000000000490000000000C4
:107338000000004A00000000000000004B000000B0
:1073480000000000004C00000000000000004D009C
:10735800000000000000004E0000000000000000D7
:107368004F00000000000000005000000000000076
:107378000000510000000000000000520000000062
:10738800000000005300000000000000005400004E
:10739800000000000000550000000000000000563A
:1073A800000000000000000057000000000000007E
:1073B8000058000000000000000059000000000014
:1073C8000000005A0000000000000000594553006A
:1073D80000000000004E4F0000000000000048457B
:1073E8004C4C4F00000000474F4F44204259450085
:1073F800000103070F1F3F7F0080C0E0F0F8FCFE8C
:107408000000000000000000000000000000000074
:107418000000000000000000000000000000000064
:107428000000000000000000000000000000000054
:1074380000000000000000000000000000000080C4
:107448008080000000000000000000000000000034
:10745800008080C0C00000000000000000000000A4
:107468000000000000000000000000000000000014
:107478000000000000000000000000000000000004
:1074880000000000000000000000000000000000F4
:107498000000000080C0E0F0F8FCF8E00000000008
:1074A8000000000000000000000000000080808054
:1074B800808000808000000000808080808000FF45
:1074C800FFFF0000000080808080000080800000B6
:1074D80080FFFF8080008080008080808000808026
:1074E8000000000000808000008C8E84000080F87E
:1074F800F8F8800000000000000000000000000014
:10750800F0F0F0F0F0F0F0F0F0F0F0F0E0E0C08033
:1075180000E0FCFEFFFFFF7FFFFFFFFFFF00000012
:107528000000000000000000000000FEFFC701018D
:10753800010183FFFF00007CFEC70101010183FFF9
:10754800FFFF0038FEC78301010183C7FFFF00006A
:1075580001FFFF010100FFFF0701010100007FFF9C
:1075680080000000FFFF7F0000FFFFFF000001FF19
:10757800FFFF010000000000000000000000000004
:10758800030F3F7F7FFFFFFFFFFFFFFFE7C7C78FA7
:107598008F9FBFFFFFC3C0F0FFFFFFFFFFFCFCFC96
:1075A800FCFCFCFCFCF8F8F0F0E0C000010303036D
:1075B80003030103030000000001030303030101A7
:1075C800030100000001030303030101030300009A
:1075D8000003030000000303000000000000000196
:1075E800030303030301000000010301000000037B
:1075F800030100000000000000000000000000007F
:1076080000000080C0E0F0F9FFFFFFFFFF3F1F0F01
:1076180087C7F7FFFF1F1F3DFCF8F8F8F87C7DFFD0
:10762800FFFFFFFFFFFFFF7F3F0F07003030000025
:107638000000000000000000000000000000000042
:1076480000000000FEFEFC0000000000000000003A
:1076580000000000000000000000000000E0C00082
:1076680000000000000000000000303000000000B2
:107678000000000000000000000000000000000002
:1076880000C0FEFFFFFFFFFFFFFFFFFF7F7F3F1FE1
:107698000F071F7FFFFFF8F8FFFFFFFFFFFEF8E06F
:1076A800000000010000000000000000FEFE0000D5
:1076B80000FCFEFC0C06060EFCF80000F0F81C0EA0
:1076C8000606060CFFFFFF0000FEFE00000000FC9F
:1076D800FEFC00183C7E66E6CE84000006FFFF062E
:1076E80006FCFEFC0C0606060000FEFE0000C0F8C4
:1076F800FC4E4646464E7C7840183C76E6CECC801A
:107708000000000000000000000000000000000071
:107718000000000001070F1F1F3F3F3F3F1F0F03DF
:107728000000000000000000000000000F0F000033
:10773800000F0F0F000000000F0F000003070E0CD2
:1077480018180C060F0F0F0000010F0E0C180C0F65
:10775800070100040E0C180C0F070000000F0F00A3
:10776800000F0F0F0000000000000F0F00000007BF
:10777800070C0C181C0C060600040E0C180C0F073E
:1077880000000000000000000000000000000000F1
:1077980000000000000000000000000000000000E1
:1077A80000000000000000000000000000000000D1
:1077B80000000000000000000000000000000000C1
:1077C80000000000000000000000000000000000B1
:1077D80000000000000000000000000000000000A1
:1077E8000000000000000000000000000000000091
:1077F8000000000000000000000000000000000081
:1078080014700B00A8E40320000000000000000032
:107818000000000000000000000000000000000060
:107828000000000000000000000000000000000050
:107838000000000000000000000000000000000040
:107848000000000000000000000000000000000030
:107858000000000000000000000000000000000020
:0C7868000000000000000000ECE703201E
:10787400FFFFFFFF00000102030405060708090AD1
:107884000B0C0D0E0F101112131415161718191ACC
:087894001B1C1D1E1F20280013
:04789C0078563412D4
:04000003B000401CED
:00000001FF
