:02000002B0004C
:1040000000400B00C49E0B00000006000C000502DF
:084010000401A60F00000000EE
:04401800708A0B009F
:1040200009480A49884208B505D0094A824202D0A7
:10403000121A04F059FC0748074A0021121A04F02A
:1040400061FC014808BD00BFBCDE032088980B005E
:10405000D0E40320D0E40320EDE7032070B5074E41
:10406000074C03F0C7FDA41BA4080025AC4200D1F7
:1040700070BD56F8043B98470135F7E734980B00BC
:104080005C980B0000F000BC08B500F0E1FEBDE854
:10409000084003F067BD02F0E5BB02F0E3BB02F0AD
:1040A000E9BB000008B5034A03490C2002F036FBC7
:1040B000FEE700BF3D630B00848A0B000078B0FA76
:1040C00080F0400970470123037070472F2810B516
:1040D00004460DD9094A0A490A2002F01FFB094B80
:1040E00004F01F04D3F81005E04000F0010010BDFB
:1040F0001F28F4D84FF0A043F4E700BF3D630B0046
:10410000998A0B00000300502DE9F843DFF82C8159
:10411000876898F80030484DBFF35B8F13F0010FAC
:10412000044609D14046FFF7C9FF28B102F01EF945
:1041300028604046FFF7C7FFBFB22B683F01DE5D36
:1041400098F80030BFF35B8FD9074FEA461909D4BE
:104150003A48FFF7B3FF28B102F008F92860374862
:10416000FFF7B1FF2B683B445E7806F01F0646EA76
:1041700009063046FFF7AAFF3046FFF7A7FFE768BA
:1041800098F80030BFF35B8FDA07C6B209D42B482A
:10419000FFF794FF28B102F0E9F828602748FFF7FD
:1041A00092FFBFB22B683F0113F8079098F80030D8
:1041B000BFF35B8FDB074FEA491909D41F48FFF7AC
:1041C0007DFF28B102F0D2F828601C48FFF77BFF82
:1041D0002B681F447D7805F01F0545EA0905284630
:1041E000FFF774FF2846FFF771FF237CC0B203F08E
:1041F00003030EB143F0040308B143F008039A0827
:10420000013B22740D2B0BD8DFE803F0070C0F0CD9
:104210000A120707120A0C0F0C0763690133636166
:10422000BDE8F8836369013BF9E763690233F6E7A8
:104230006369023BF3E700BFD4E40320D0E403202A
:1042400010B403685A6899681B68541001EB620047
:10425000D20748BF0A595DF8044B48BFD3581847E6
:10426000012A38B5044602D10B68236003E0022A14
:1042700003D0032A0DD0002038BD0C200D68FFF7B5
:104280000AFF03460028F0D095E8070083E80700FE
:10429000EBE700680028EED00C21FFF700FFEAE70B
:1042A000F0B58DB002AD85E80600064695E803003E
:1042B00005AC84E805001F460C2000230A93FFF795
:1042C000EAFE024620B194E8030082E8030097600A
:1042D0000B4B0B930B4B0A939DF8503008920093B5
:1042E0009DF848209DF94C3008A9304602F010FC9A
:1042F0000A9B1BB108A90322084698470DB0F0BDE0
:1043000041420B0061420B000EB403B503AB002128
:1043100053F8042B019302F0DCFD02B05DF804EBCE
:1043200003B0704738B584690A4B036005467CB119
:104330006368013B63605BB9236820469B689847CC
:10434000A368013BA3601BB923682046DB6898473C
:10435000284638BDD0950B0010B50446FFF7E2FFA4
:1043600020461C21FFF79BFE204610BD2DE9F041A1
:104370008CB004460F4668466D49DDF84880154606
:104380001E4602F0E8FEDFF8F8E16A49DEF8003088
:1043900069486A4ADFF8ECC1A34219D10B68BB42F5
:1043A00016D10368AB4213D11368B34210D1DCF8C5
:1043B000003043450CD103F003FB6149FFF7A4FF34
:1043C0000024684602F07CFE20460CB0BDE8F08177
:1043D000CEF800400F6005601660CCF80080002F1A
:1043E00000F09D805749684602F0E3FE694608A840
:1043F00002F0D4FE0A22414604A802F0ECFE04A911
:1044000008A802F023FF504902F02CFF014668463D
:1044100002F0B5FE04A802F053FE08A802F050FE18
:10442000694608A802F0BAFE0A22314604A802F042
:10443000D2FE04A908A802F009FF444902F012FFC5
:104440000146684602F09BFE04A802F039FE08A867
:1044500002F036FE694608A802F0A0FE0A222946AC
:1044600004A802F0B8FE04A908A802F0EFFE38493B
:1044700002F0F8FE0146684602F081FE04A802F050
:104480001FFE08A802F01CFE3249334800235022C8
:1044900002F0C8FF002849D030492F4802F0DEFC66
:1044A0002F492D4802F0DAFC2E492B4802F0D6FCA9
:1044B000002C39DA2D21284802F0D4FC61420A226E
:1044C000254802F0E8FC2849234802F0DAFC274995
:1044D000214802F0D6FC26491F4802F0BFFC1D49C6
:1044E0001D4802F0CEFC23491B4802F0B7FC0A220B
:1044F0000299194802F0CFFC174802F0B6FC1E4999
:10450000154802F0BEFC144802F0AFFC00991248B6
:1045100002F0B7FC104803F03BF9012451E71749BA
:10452000684602F046FEAFE72146C8E7044648E782
:10453000938E0B0050E5032058E5032048E5032047
:10454000BD8A0B00D98A0B00EB8A0B00F38A0B00A3
:10455000068B0B00028F0B00D8E40320088B0B00A6
:10456000D98E0B00128B0B001B8B0B002D8D0B00BB
:104570002B8B0B00328B0B00438B0B00FB8A0B0049
:104580004CE5032054E503201FB522490446684644
:1045900002F0E1FD2049684602F047FE1F4A20492B
:1045A000128851F824101F48002302F03BFF28B363
:1045B0001D491C4802F065FC1C491A4802F061FCC8
:1045C0001B49184802F05DFC1A49164802F059FCD4
:1045D0001949144802F042FC029912480A2202F0DA
:1045E0005AFC104802F041FC0E4802F03EFC0099D3
:1045F0000C4802F033FC0B4802F037FC094802F08B
:104600008FFF10B1074803F0C3F8684602F058FD69
:1046100004B010BD938E0B006A8B0B0050E003209A
:104620003CE0032020E50320968C0B00BE8C0B00A1
:10463000E48C0B00218D0B00328B0B001FB522493F
:104640000446684602F087FD2049684602F0EDFD09
:104650001F4A2049128851F824101F48002302F0F5
:10466000E1FE28B31D491C4802F00BFC1C491A4806
:1046700002F007FC1B49184802F003FC1A491648CF
:1046800002F0FFFB1949144802F0E8FB02991248B6
:104690000A2202F000FC104802F0E7FB0E4802F08C
:1046A000E4FB00990C4802F0D9FB0B4802F0DDFB5B
:1046B000094802F035FF10B1074803F069F8684671
:1046C00002F0FEFC04B010BD938E0B00388D0B0081
:1046D00050E003203CE0032020E50320968C0B00F3
:1046E000BE8C0B00E48C0B00218D0B00328B0B0079
:1046F00010B5044601F032FE2368C01A6368984280
:1047000034BF0020012010BD2DE9F04F0F460446B4
:10471000164689B00221384603F0DCFA0221304601
:1047200003F0D8FADFF858B1E6600023C4E9013796
:10473000236063614FF4FA6001F000FED4F808A032
:104740009BF800304D4DBFF35B8F13F0010F09D183
:104750005846FFF7B3FC28B101F008FE2860584620
:10476000FFF7B1FC1FFA8AFA2B684FEA0A1A13F80E
:104770000A809BF80030BFF35B8FD9074FEA4819D6
:1047800009D43F48FFF79AFC28B101F0EFFD2860FB
:104790003B48FFF798FC2B68534493F8018008F0DE
:1047A0001F0848EA09084046FFF790FC4046FFF71B
:1047B0008DFCD4F80CA09BF80030BFF35B8FB0F1F8
:1047C000000818BF4FF00108DA0709D42C48FFF79A
:1047D00075FC28B101F0CAFD28602948FFF773FC79
:1047E0001FFA8AFA2B684FEA0A1A13F80A909BF804
:1047F0000030BFF35B8FDB074FEA491909D420482B
:10480000FFF75CFC28B101F0B1FD28601C48FFF700
:104810005AFC2B689A449AF8015005F01F0545EAA6
:1048200009052846FFF752FC2846FFF74FFC08B160
:1048300048F00208DFF84C9084F8108000254FF013
:10484000FF3823462A4649463846CDE900580295A6
:10485000CDF810900595FFF723FDCDE90695CDE93C
:104860000185009508AA304612E906002346FFF7A5
:1048700017FD204609B0BDE8F08F00BFD4E4032047
:10488000D0E4032009410B0030B595B003F098F84F
:104890002A4D4FF4165103F087F800231A461946A3
:1048A000686801F097FF3822002106A804F02AF872
:1048B0004C230193224B029300240A23CDE90334B5
:1048C00001AA234621466868059401F0A3FF234608
:1048D00068682246214601F05DFF3C22194802210A
:1048E00001F044FC2146174801F087F9154801F012
:1048F00071FB144801F0CAFB7621134800F0FEFC5E
:10490000124800F070FD114800F0A6FD02210620BB
:1049100003F0E0F90121052003F0DCF90121042076
:1049200003F0D8F90221072003F0D4F9214613201F
:1049300015B0BDE8304003F0CDB900BF18E7032043
:10494000648E0B00E0E50320ACE5032068E503205E
:1049500038B5354A3548364C002100F029FF324A37
:104960003248012100F024FF2368002B4FD101F0D1
:10497000F5FC304B6422186020212C485A6000F06E
:104980005AFF2A4800F068FD01232360294D28467C
:10499000FFF7AEFE00283CD001F0E0FC3223286097
:1049A000962122486B6000F046FF204800F054FD3D
:1049B000022323601F4D2846FFF79AFE60B301F0E3
:1049C000CDFC962328604B2118486B6000F033FF24
:1049D000164800F041FD03232360164D2846FFF7DB
:1049E00087FEE0B101F0BAFC64232860A0210F48E3
:1049F0006B6000F020FF0D4800F02EFD04232360C3
:104A00000C48FFF775FE68B1002323600AE0012B14
:104A1000BCD02368022BCDD02368032BDDD02368C4
:104A2000042BEDD038BD00BF00A5FF0068E50320D2
:104A30003CE5032060E5032073B570B9414D0124C6
:104A4000FA26009620462A68FA2301210134FFF74E
:104A50008DFC072CF5D102B070BD0B280FD10020C2
:104A6000FFF792FD0120FFF78FFD0220FFF78CFD7D
:104A70000320FFF789FD0420FFF786FDEBE70D28F3
:104A80000DD1314D0124FA26009620462A68FA23DA
:104A900001210134FFF76AFC072CF5D1DBE712286E
:104AA0000DD12A4D0124FA26009620462A68FA23C1
:104AB00001210134FFF75AFC072CF5D1CBE71D2863
:104AC0000DD1234D0124FA26009620462A68FA23A8
:104AD00001210134FFF74AFC072CF5D1BBE71F2861
:104AE00011D10020FFF7AAFD0120FFF7A7FD02204A
:104AF000FFF7A4FD0320FFF7A1FD042002B0BDE8ED
:104B00007040FFF79BBD22280DD1124D0124FA26DB
:104B1000009620462A68FA2301210134FFF726FC7B
:104B2000072CF5D197E7272895D1012400250023EC
:104B3000204600951A4619460134FFF717FC072C4A
:104B4000F5D188E7C8DE0320BCDE0320C0DE0320E9
:104B500010E50320CCDE032073B52D4D02F00AF8DA
:104B60006C6902F009F8002C4CDA02F003F86024BA
:104B70006C6102F001F827230093002319462046B8
:104B8000244D254E602201F0ADFE2B688342044681
:104B900008D001F0E3FB214B4FF4FA7218605A6021
:104BA0000123337033782C6053B31C48FFF7A0FD0A
:104BB00030B31B4D02F004FF04EBC4031D442A462E
:104BC0001849FFF7A1FB184801F004FA1648022122
:104BD00001F009F81448012101F00AF812481422E2
:104BE000202100F0FDFF11490F482A46FFF78CFBFA
:104BF0000D4801F04BFA2046FFF71EFF00233370EB
:104C000002B070BD602CB6DD01F0B4FF0024AFE748
:104C100004E6032044E5032041E50320A0E503204A
:104C2000D4DE03206F8E0B00E0E50320738E0B00B3
:104C30002DE9F3413C483D4D3D4E3E4C00F030FBEC
:104C400010EE100A03F0B8FB35A3D3E9002303F0FC
:104C50000BFC394B002203F051FA03F017FE01213F
:104C60002860364800F0BFFF3448012100F0C0FF43
:104C700032483622052100F0B3FF2A6830492F4818
:104C8000F823FFF741FB2D4801F000FA0A23002129
:104C9000CDE9003136228023284800F0A9FE2A6899
:104CA00033689A420CD0237853B901F057FB254B57
:104CB00042F2107218605A602B683360012323702F
:104CC00033682A68043B93421FDD237823B31D48D1
:104CD000FFF70EFDC8B102F073FE1B491B4FFFF733
:104CE00013FBFA25A846012630463A68CDF8008025
:104CF0002B4601210136FFF739FB072EF4D1053D84
:104D0000322DF0D10023237006E0237823B10D4823
:104D1000FFF7EEFC0028F5D102B0BDE8F08100BF3E
:104D2000CDCCCCCCCCCCFC3FACE503207CE5032047
:104D3000A8E503205CE5032000004040E0E50320F7
:104D4000768E0B001CE60320808E0B00BCDE032059
:104D500073B530B101F002FB154B4FF4FA721860D5
:104D60005A601348FFF7C4FC80B100242546204652
:104D7000FFF764FC0134002300951A4619462046CB
:104D8000FFF7F4FA062CF2D102B070BD094D0446CB
:104D9000FA262046FFF7F8FB013400962A68FA232A
:104DA00001212046FFF7E2FA062CF2D1ECE700BF22
:104DB00080E50320C8DE032073B5132002F0C7FF8F
:104DC000044602F0FDFD22461C49FFF79DFAB4F5AA
:104DD0007A6F1B4C23782CDD43B901F0BFFA194BD5
:104DE0004FF47A6218605A6001232370FFF7B0FD18
:104DF0002078FFF7ADFF2378EBB11248FFF778FC7E
:104E0000C8B11148002100F016FD0F4800F024FB46
:104E100000252E462846FFF711FC01350023009699
:104E20001A4619462846FFF7A1FA062D2670F1D139
:104E300001E0002BDAD102B070BD00BF948E0B00F0
:104E400040E5032088E5032068E50320000000001A
:104E500037B5FF21052002F04EFF072002F064FF66
:104E6000044660B17E21042002F045FFFFF7E0FE1A
:104E7000FFF772FE03B0BDE83040FFF79DBF01466B
:104E8000042002F038FF2048204D00F009FA10EE0F
:104E9000100A03F091FA1AA3D3E9002303F0E4FA0D
:104EA0001B4B002203F02AF903F0F0FC01212860DB
:104EB000184800F098FE1748012100F099FE1548A7
:104EC0003622052100F08CFE2A6813491148F82388
:104ED000FFF71AFA0F4801F0D9F80A230D4800939A
:104EE000362280232146019400F082FDFFF734FE34
:104EF00003B0BDE83040FFF72BBD00BFAFF300802B
:104F0000CDCCCCCCCCCCFC3FACE503207CE5032065
:104F100000004040E0E50320768E0B0008B51F49F5
:104F20001F4802F018F91F4A1F4B12681A601F4AE7
:104F30001F4812685A601F4A12689A601E4A126817
:104F4000DA601E4A12681A611D4A12685A611D4AC7
:104F500012689A6102F066FC1B4802F063FC1022A2
:104F60000F211A48FFF7D0FB02231A4619461848AA
:104F700000F060FA174800F033F81748042101F0F8
:104F800013F8164B0022C3E90022A2F580329A6082
:104F9000BDE80840032001F0D1BB00BF938E0B0099
:104FA00090E5032010E50320F4E40320C8DE03208D
:104FB000D8E40320D0DE0320C0DE0320BCDE0320C3
:104FC000C4DE0320CCDE032020E5032004E603201A
:104FD00068E50320ACE50320E0E5032014E50320A9
:104FE0004FF0FF33C360704713B50B4C2178BFF30C
:104FF0005B8F11F001010BD120460191FFF75EF8A4
:10500000019928B1054801F0A1FF2046FFF75BF8A0
:10501000024802B010BD00BF24E6032028E60320AA
:105020002DE9F04190F90F30013305460F4606D1C6
:10503000FFF7DAFF3946BDE8F04102F03BB802F075
:10504000BFFC154901F01DFF002407264FF00108A1
:1050500095F90F00002180B202F04DFE95F90D0088
:1050600008FA06F1394080B202F045FE95F90F00CA
:10507000012180B202F03FFE95F90E00640080B27B
:10508000E4B202F051FE08B144F00104013EDFD267
:105090002046BDE8F08100BF0E8F0B0070B50446BE
:1050A00090F90C00431C0E46154616D102F0A4FEE2
:1050B000217801F0F1FC02F09FFE036831469B6805
:1050C000984702F099FE036829469B68984702F0CA
:1050D00093FEBDE8704001F0EABC002180B202F00E
:1050E0000AFE06F07F012046FFF79AFF2946204678
:1050F000FFF796FF94F90C000121BDE8704080B2E3
:1051000002F0F9BD38B5044690F90C00431C0D4679
:1051100020D102F071FE217801F0BEFC02F06CFE9D
:10512000036829469B68984702F066FE01F0BFFCC1
:1051300002F062FE2178012201F0ABFC02F05CFE7D
:1051400003685B699847C5B202F056FE01F0AFFCF8
:10515000284638BD002180B202F0CDFD45F0800127
:105160002046FFF75DFF00212046FFF759FF054667
:1051700094F90C00012180B202F0BDFDE8E738B5DA
:10518000054690F90C00431C0C4628D102F034FE71
:10519000297801F081FC02F02FFE036821469B680C
:1051A000984702F029FE01F082FC02F025FE2978E2
:1051B000022201F06EFC02F01FFE03685B69984753
:1051C000044602F019FE03685B69984740EA042030
:1051D00084B202F011FE01F06AFC204638BD0021C5
:1051E00080B202F088FD44F080012846FFF718FFE6
:1051F00000212846FFF714FF002104462846FFF748
:105200000FFF40EA042495F90C00012180B2A4B2FA
:1052100002F071FDE1E708B5FFF7B1FF40BA80B2D7
:1052200008BD10B588210446FFF7F5FF8A212082CA
:105230002046FFF7F0FF8C2160822046FFF7EBFF4E
:105240008E21A0822046FFF7E6FF9021E0822046D3
:10525000FFF7E1FF922120832046FFF7DCFF942136
:1052600060832046FFF7D7FF9621A0832046FFF7F3
:10527000D2FF9821E0832046FFF7CDFF9A212084BA
:105280002046FFF7C8FF9C2160842046FFF7C3FF3C
:105290009E21A0842046FFF7BEFFE08410BD0000E1
:1052A00038B5FA210446FFF76AFFFC2105022046C3
:1052B000FFF728FF238AB4F912109FED0F0A284345
:1052C000C3EB20225B00C3EBE013594302FB02F364
:1052D000B4F914201B1353439B1303EBE123A36086
:1052E00003EB830380331B1207EE903AF8EEE77A64
:1052F00087EE800A38BD00BF0000C84210B50446E2
:10530000017090F90C00431C18D102F059FB24499C
:1053100001F0B7FD02F070FD01F08CFBD0212046BA
:10532000FFF7F0FE582839D12046FFF77AFF2046D4
:105330003F22F421FFF7B2FE012010BD012180B20F
:1053400002F0D9FC94F90C00012180B202F0C2FCF9
:1053500094F90F30013309D102F032FB114901F009
:1053600090FDFFF741FE01F0FBFDD7E702F028FBBF
:105370000D4901F086FD94F90F00012180B202F081
:10538000A9FC94F90D00012180B202F0A3FC94F96C
:105390000E00002180B202F09DFCBFE70020CCE7A8
:1053A0001B8F0B00258F0B00388F0B0038B5044680
:1053B000C0680D4608B101F05DFAA379062B0CBF59
:1053C0000420032010FB05F080B2A08001F04AFA0F
:1053D000E06028B1A288002103F094FA658038BD0E
:1053E000A0806080FBE710B504460121C07902F07F
:1053F00071FCE079002102F07EFC0123237010BDD6
:1054000037B5037805460C461BB1C079002102F080
:1054100061FC2B78EC715BB1A0B20121019002F02C
:1054200059FC0198002103B0BDE8304002F063BC94
:1054300003B030BD70B50025044616468371C0E93F
:10544000035505700572FFF7B1FF20463146FFF79F
:10545000D7FF204670BD0000C368002B00F0A48178
:105460002DE9F04F8379023BDBB2042B9CBFBF4A8E
:1054700052F8234085B0054688BF322400F066FF0D
:105480002B69C01AA042F9D3B94CAE88D4F80035C4
:105490001BB9D4F86035002B7EDBB64CD4F8003550
:1054A00023B9D4F86035002BC0F26E81B24CD4F829
:1054B0000035002B00F04481EB79B04AB04C126803
:1054C000190102EB0313575CAE495B78D1F8FC205D
:1054D00042F08072C1F8FC20226803F01F0343EA07
:1054E000471301273A432260A988D5F80C80D4F8E5
:1054F00004909F40002944D04FF0000E72464FF0B8
:10550000A04118F801CB0820802663689B1A462B1F
:10551000FBD96268D1F808351CEA060F43EA070395
:10552000C1F808352FD063689B1A282BFBD9D1F816
:105530000C35013843EA07034FEA5606C1F80C352B
:10554000E3D1AB880EF1010E1FFA8EFE7345D8D859
:105550004FF4307103FB01F163689B1A462BFBD9B2
:105560006368A3EB09098945C0F0E4804FF49670A5
:1055700000F0E4FEA988D5F80C80D4F80490002946
:10558000BAD10A46E8E763689B1A112BCFD8636843
:105590009B1A112BF7D9CAE7D4F86435002BBFF654
:1055A0007CAFD4F86835002BBFF677AFD4F86C35F4
:1055B000002BBFF672AF3601331D1846009301F081
:1055C00051F900283FF478AFAB88002B00F0ED8054
:1055D000EA68013B12FA83F702F1FF3E002348F22A
:1055E000060248F20D011EF801CF1CF0800F0CBF1F
:1055F00093468B461CF0400F0CBF16460E461CF01F
:10560000200F0CBF9046884603F10109CDF80880B1
:10561000019603F102081FFA89F9019E20F813B0E0
:105620001FFA88F820F81960029E20F8186003F12C
:1056300003081CF0100F1FFA88F80CBF93468B4626
:1056400020F818B003F104081CF0080F1FFA88F8BE
:105650000CBF93468B4620F818B003F105081CF0E8
:10566000040F1FFA88F80CBF93468B4620F818B039
:1056700003F1080A03F1060807339BB21CF0020F7E
:105680001FFA88F80CBF93468B46CDF80CA01CF08F
:10569000010F20F818B015BF20F8131020F81320C0
:1056A0001FFA8AF3BDF80C3077459CD1591C0233A0
:1056B00089B29BB249005B004FF400474752009A01
:1056C000C7522E4B56081F6800221423C4F8042525
:1056D000C4F80C25C4F80835C4F81425C4F81025FE
:1056E000C4F82005C4F82465C4F82825C4F82C257E
:1056F000EB7907EB031C1B010121FE5C9CF80130D8
:1057000003F01F0343EA4613C4F86035C4F80015DC
:10571000C4F81021A160D4F81031002BFBD0002375
:105720004FF0FF32C4F81031C4F80035C4F86025DA
:1057300001F0A0F800F00AFE286105B0BDE8F08F86
:10574000D4F86035002BBFF6B7AED4F86435002B23
:10575000BFF6B2AED4F86835002BBFF6ADAED4F8C4
:105760006C35002BBFF6A8AE25E700BF4C8F0B00B1
:1057700000C00140001002400020024030E603203B
:10578000001000E000ED00E0D4F86435002BBFF617
:105790008DAED4F86835002BBFF688AED4F86C35E2
:1057A000002BBFF683AE06E770470423022183E790
:1057B00043888B42F0B52DD9067AC2F30743C2F372
:1057C0000724D5B23EB1734374437543C3F3072333
:1057D000C4F307242D0A90F806C0C768BCF1060F71
:1057E0000CBF042603264E43ACF1020CB919BCF1E0
:1057F000060F1DD8DFE80CF0041C08040F04040099
:10580000BC554B708D7005E0FE2B28BFFE23BB55A9
:105810004D708C70F0BDBB554C708D70037A120EBC
:1058200013B9D2B2CA70F5E75A43C2F30722F9E7B7
:10583000BB554C70E6E7037A4A1CD2B2934270B56E
:105840001FD0013B13F0FF03C4680CD0FF291FBF1A
:10585000110201F1FF31B1FBF3F39BB204BF4FF62C
:10586000FF71B1FBF3F325468688291B89B28E426E
:1058700006D929785943C1F3072105F8011BF3E73D
:10588000027270BD08B500F071FD014B186008BDD3
:1058900030E603202DE9F04F85B01F46BDF9388072
:1058A000BDF83C30A8EB0209A7EB010AB9F1000FE3
:1058B000B8BFC9F10009BAF1000FB8BFCAF1000AB8
:1058C000D14583460C46154604DD3A462C464746EC
:1058D0000D469046BC4205DD2A4645469046224686
:1058E0003C4617463E1BB2B20092A8EB050282EA84
:1058F000E271A1EBE271C6F3C03202FA86F64545C9
:10590000B4BF01224FF0FF32019176100292BC42E7
:105910001CDCDBF800200393D145D2F81080C7BF10
:10592000294622462A4621465846C047019A039BEB
:10593000B61AB1B236B2002E05DA029A1544009AB0
:1059400056182DB236B2013424B2E0E705B0BDE8F6
:10595000F08F2DE9F347BDF82C800768BDF928903A
:10596000CDF800800446FF6916468A461D46B847B2
:105970002368CDF8008009F1FF323244DF695146D7
:105980002B46204612B2B8472368CDF800809F69A5
:1059900032464B4651462046B8476B1E03EB0A0180
:1059A0002368CDF828809D6932464B4609B22046CF
:1059B000AC4602B0BDE8F047604737B5013B134441
:1059C0000468BDF8185001951BB2009364690B463A
:1059D000A04703B030BD37B5BDF818500468CDE915
:1059E0000025013B0B4464691BB2A04703B030BDE6
:1059F0002DE9F347BDF92890BDF82C800546924665
:105A00000C46CE18B4420BDA2B68CDF800809F69A3
:105A100021464B46524628460134B84724B2F1E7A6
:105A200002B0BDE8F08713B502680191B0F90E101D
:105A30000091546AB0F90C3000221146A04702B020
:105A400010BD704730B54281C2814FF0FF32002453
:105A5000054D42610122446005600181818104613C
:105A60000283827630BD00BF64940B002DE9F04FB5
:105A70002DED028B8DB007460491BDF860100591A5
:105A8000BDF864100691B0F90C1004989DF86850A8
:105A9000814252DDB7F90E1091424EDD062111FB15
:105AA0000504002C49DD02EBC504002C45DD03EBA9
:105AB00083030B9393B2079308339BB2089100249E
:105AC0000993052C1CBF2C4B0B9A079E16BF1B1964
:105AD00000239B5C0393049AABB20A9304FB05F387
:105AE00013FA82F31BB204EB020A08EE103AB04636
:105AF0000FFA85F90FFA8AFA039BDB072FD5012DE0
:105B00003B681FD1D3F810B0059B32B251463846DE
:105B1000D847039B5B0803930A9B01369844099B73
:105B2000B6B2B3421FFA88F8E6D1089B013B0134B4
:105B300013F0FF0364B20893C3D10DB0BDEC028B28
:105B4000BDE8F08F059ACDE9009218EE101AD3F84F
:105B500024B00FFA88F24B463846D847D9E7DDE93A
:105B600005239342D5D0012D3B6803D1D3F810B063
:105B7000069BCAE7069AE6E7608F0B0030B50A2954
:105B800085B0044607D1027E638A03EBC2036382B9
:105B90000023238221E00D291FD0037E0293C38AB4
:105BA0000193838A0093B0F912200B46B0F91010CC
:105BB000FFF75CFF207E238A00EB400103EB4103EB
:105BC000A17E1BB20246238239B1B4F90C106FF0EA
:105BD000050505FB00118B42D6DC012005B030BD68
:105BE000018242827047012938BF01210176704746
:105BF000C18281827047407E704701F00303B0F993
:105C00000A204376C907B0F9083059BF8381C281A1
:105C10008281C3817047B0F90C007047B0F90E0063
:105C200070470000F0B5457EBDF81440022D69D0E4
:105C3000032D00F09980012D6CD10589D2432A44AF
:105C400012B2002A5DDBB0F90850954259DD0029F7
:105C5000BEBF5B181BB20021B0F90A00CD18854207
:105C6000C4BF431A1BB2002B4BDDC1F3C400DFF8E5
:105C700020C102EBC01211F00701DBB20CEB0200F5
:105C80001AD0C1F10805404EEDB2AB42775D3FBF7F
:105C9000A5EB030EFF2646FA0EF637401CF802600D
:105CA000012C0CBF3E43BE43AB420CF8026028D32C
:105CB00008390B44DBB28030072B19D9012C4FF087
:105CC000FF3518BF0025EDB200F180011A46083AF1
:105CD000D2B2072A01F8805C01F18001F7D8A3F164
:105CE0000802C2F3C402013200EBC21003F0070342
:105CF0003BB1264AD25C0378012C0CBF134393437B
:105D00000370F0BD4589D2432A44CD180189491B4F
:105D100012B209B2002AF4DBB0F90A509542F0DD64
:105D20000029BEBF5B181BB20021B0F90870CE1865
:105D3000BE42C4BF6B1A1BB2002BE2DDD01080251F
:105D400010FB05111248014402F0070001228240B5
:105D5000012CD2B20B440CD18B42D2D011F8010BE2
:105D6000104301F8010CF7E7CD184189491B09B22E
:105D700067E7D243D2B28B42C3D011F8010B104077
:105D800001F8010CF7E700BF5CE0032054E00320BA
:105D900064E00320F0B5457EBDF81440022D34D0F8
:105DA000032D00F09B80012D37D1D5180289521B9D
:105DB00012B20029C0F29180B0F90A508D4240F32E
:105DC0008C80002ABEBF9B181BB20022B0F908705D
:105DD000D618BE42C4BFAB1A1BB2002B7DDDC81063
:105DE000802510FB05224548024401F007000121EF
:105DF0008140012CC9B2134475D19A426DD012F87A
:105E0000010B084302F8010CF7E70589C94329444F
:105E1000D5184289521B09B212B200295DDBB0F9D4
:105E200008508D4259DD002ABEBF9B181BB20022CC
:105E3000B0F90A00D5188542C4BF831A1BB2002BE3
:105E40004BDDC2F3C400DFF8B4C001EBC01112F0A7
:105E50000702DBB20CEB01001AD0C2F10805284E94
:105E6000EDB2AB42775D3FBFA5EB030EFF2646FACE
:105E70000EF637401CF80160012C0CBF3E43BE43B8
:105E8000AB420CF8016028D3083A1344DBB28030EF
:105E9000072B19D9012C4FF0FF3518BF0025EDB2A3
:105EA00000F180011A46083AD2B2072A01F8805C54
:105EB00001F18001F7D8A3F10802C2F3C402013254
:105EC00000EBC21003F007033BB10E4AD25C03782B
:105ED000012C0CBF134393430370F0BD4589C943A4
:105EE000294409B265E7C943C9B29A42F5D012F80C
:105EF000010B084002F8010CF7E700BF64E0032043
:105F00005CE0032054E0032070470000F8B50D1E4C
:105F1000064614461F462DDBFFF77DFEA84229DD0D
:105F2000002C27DB3046FFF779FEA04222DD304609
:105F3000FFF761FE02281ED0032825D0012804D1D6
:105F40003389E2431A442C4615B2002C2246B8BFCE
:105F5000E21DD210802112FB01550E49012204F0EE
:105F600007044B5702FA04F464B297420CBF234370
:105F7000A3434B55F8BD318972890139E4434D1B68
:105F800014442DB224B2E0E77389013B5B1B254624
:105F90001CB2DAE764E0032010B524210446FEF7C2
:105FA0007EF8204610BD000038B5402204460D465C
:105FB0008021FFF747FD064B2360FF2384F8213043
:105FC00063774FF6FF73E38384F82050204638BD93
:105FD0009C940B0002484FF48062002102F092BCB6
:105FE00064E0032007B590F8223043B10191FEF739
:105FF000FBFF019903B05DF804EB01F05BB80B46C1
:10600000817F407F012203B05DF804EB01F0B6BE52
:1060100038B590F91D30013304460D461DD090F976
:106020002100012180B201F066FE94F91F000021D9
:1060300080B201F060FE94F92100002180B201F0ED
:106040005AFE29462046FFF7CDFF94F92100012191
:10605000BDE8384080B201F04EBE01F0CDFE94F9AB
:106060001B1000F01DFD01F0C7FE036800219B68B6
:10607000984701F0C1FE036829469B68984701F0E4
:10608000BBFEBDE8384000F012BD0000F8B521218C
:106090000446FFF7BDFF00212046FFF7B9FF7F212F
:1060A0002046FFF7B5FF22212046FFF7B1FF002170
:1060B0002046FFF7ADFF07212046FFF7A9FF94F91F
:1060C0001D30294F01332AD094F92100012180B2DB
:1060D00001F011FE94F91F00012180B201F00BFEC6
:1060E00094F92100002180B201F005FE012000F0AA
:1060F00025F94FF48065013D17F8011B2046ADB22C
:10610000FFF770FF002DF6D1012000F017F994F988
:1061100021000121BDE8F84080B201F0ECBD00256E
:1061200001F06AFE94F91B1000F0BAFC01F064FE65
:10613000036840219B68984705F11006B6B201F04C
:106140005BFE0368795D9B6898476B1C9DB2AE420D
:10615000F5D101F051FE00F0AAFCB6F5806F00D138
:10616000F8BD3546DCE700BF64E0032038B590F9A0
:106170001D300177013304460D46C27600F0C98018
:1061800090F91F00012180B201F0A4FD94F92100D3
:10619000012180B201F09EFD94F82230002B00F026
:1061A000A68094F92100012180B201F0A4FDFEF740
:1061B0001BFF012100F0E8FEFEF716FF102100F0A2
:1061C00053FFFEF711FF002100F0F2FEFEF70CFF77
:1061D00000F0C6FE94F92000012180B201F07AFDA2
:1061E00094F92000012180B201F085FD012000F02A
:1061F00085FB94F92000002180B201F07CFD0A208B
:1062000000F07CFB94F92000012180B201F073FDC5
:106210002046AE21FFF7FCFE2046D521FFF7F8FE11
:1062200020468021FFF7F4FE2046A821FFF7F0FE6C
:1062300020463F21FFF7ECFE2046D321FFF7E8FE82
:1062400020460021FFF7E4FE20464021FFF7E0FE54
:106250008D212046FFF7DCFE012D0CBF10211421FB
:106260002046FFF7D5FE20462021FFF7D1FE20462D
:106270000021FFF7CDFE2046A121FFF7C9FE2046F1
:10628000C821FFF7C5FE2046DA21FFF7C1FE2046F0
:106290001221FFF7BDFE81212046FFF7B9FE012D37
:1062A0000CBF9F21CF212046FFF7B2FED921204607
:1062B000FFF7AEFE012D0CBF2221F1212046FFF792
:1062C000A7FE2046DB21FFF7A3FE20464021FFF773
:1062D0009FFE2046A421FFF79BFE2046A621FFF744
:1062E00097FE2046AF21BDE83840FFF791BE94F9F4
:1062F0001D00012180B201F0EDFC94F91E00012186
:1063000080B201F0E7FC94F82230002B3FF462AF3A
:1063100047E701F071FD00F08DFB5BE708B5024B2C
:106320001B685B6C019308BD4802030008B5024B73
:106330001B685B68019308BD1802030008B5024B97
:106340001B68DB68019308BD1802030008B5024B07
:106350001B681B69019308BD1802030008B5024BB6
:106360001B685B69019308BD1802030008B5024B66
:106370001B681B68019308BD2C02030008B5024B83
:106380001B685B68019308BD2C02030008B5024B33
:106390001B689B68019308BD2C02030008B5024BE3
:1063A0001B68DB68019308BD2C02030008B5024B93
:1063B0001B681B69019308BD2C02030008B5024B42
:1063C0001B685B69019308BD2C02030008B5024BF2
:1063D0001B689B69019308BD2C02030008B5024BA2
:1063E0001B68DB69019308BD2C02030008B5024B52
:1063F0001B681B6A019308BD2C02030008B5024B01
:106400001B685B6A019308BD2C02030008B5024BB0
:106410001B681B6B019308BD2C02030008B5024BDF
:106420001B68DB68019308BD2802030008B5024B16
:106430001B689B69019308BD2802030008B5024B45
:106440001B68DB69019308BD2802030008B5024BF5
:106450001B681B6A019308BD2802030008B5024BA4
:106460001B685B6A019308BD2802030008B5024B54
:106470001B689B6A019308BD2802030008B5024B04
:106480001B68DB6A019308BD2802030008B5024BB4
:106490001B681B6B019308BD2802030008B5024B63
:1064A0001B685B6B019308BD2802030008B5024B13
:1064B0001B681B6C019308BD2802030008B5024B42
:1064C0001B681B6D019308BD2802030008B5024B31
:1064D0001B685B69019308BD6C02030008B5024BA1
:1064E0001B685B69019308BD6402030008B5024B99
:1064F0001B681B6A019308BD6402030008B5024BC8
:106500001B689B6A019308BD6402030008B5024B37
:106510001B689B68019308BD6802030008B5024B25
:106520001B68DB68019308BD6802030008B5024BD5
:106530001B689B69019308BD3802030008B5024B34
:106540001B68DB69019308BD3802030008B5024BE4
:106550001B681B6A019308BD3802030008B5024B93
:106560001B689B6A019308BD3802030008B5024B03
:106570001B681B6B019308BD3802030008B5024B72
:106580001B689B6B019308BD3802030008B5024BE2
:106590001B681B68019308BD3002030008B5024B5D
:1065A0001B689B68019308BD3002030008B5024BCD
:1065B0001B68DB68019308BD3002030008B5024B7D
:1065C0001B681B69019308BD3002030008B5024B2C
:1065D0001B685B69019308BD3002030008B5024BDC
:1065E0001B68DB69019308BD3002030008B5024B4C
:1065F0001B681B6A019308BD3002030008B5024BFB
:106600001B685B6A019308BD3002030008B5024BAA
:106610001B681B6C019308BD3002030008B5024BD8
:106620001B685B6C019308BD3002030008B5024B88
:106630001B68DB68019308BD3C02030008B5024BF0
:106640001B681B69019308BD3C02030008B5024B9F
:106650001B685B69019308BD3C02030008B5024B4F
:106660001B689B69019308BD3C02030008B5024BFF
:106670001B68DB69019308BD3C02030008B5024BAF
:106680001B681B6A019308BD3C02030008B5024B5E
:106690001B689B6A019308BD3C02030008B5024BCE
:1066A0001B681B6C019308BD3C02030008B5024B3C
:1066B0001B681B68019308BD4C02030008B5024B20
:1066C0001B685B68019308BD4C02030008B5024BD0
:1066D0001B681B69019308BD4C02030008B5024BFF
:1066E0001B685B69019308BD4C02030008B5024BAF
:1066F0001B689B69019308BD4C02030008B5024B5F
:106700001B68DB69019308BD4C02030008B5024B0E
:106710001B681B6A019308BD4C02030008B5024BBD
:106720001B685B6B019308BD6002030008B5024B58
:106730001B681B6D019308BD6002030008B5024B86
:106740001B685B68019308BD2002030008B5024B7B
:106750001B685B69019308BD2002030008B5034B69
:106760001B68D3F88830019308BD000020020300A5
:1067700008B5034B1B68D3F89430019308BD0000A3
:106780002002030008B5024B1B68DB6B019308BDB8
:106790004402030008B5024B1B685B68019308BD07
:1067A0004002030008B5024B1B689B68019308BDBB
:1067B0004002030008B5024B1B68DB68019308BD6B
:1067C0004002030008B5024B1B681B69019308BD1A
:1067D0004002030008B5024B1B685B69019308BDCA
:1067E0004002030008B5024B1B689B69019308BD7A
:1067F0004002030008B5024B1B68DB69019308BD2A
:106800004002030008B5024B1B681B6A019308BDD8
:106810004002030008B5024B1B689B6A019308BD48
:106820004002030008B5024B1B681B6B019308BDB7
:106830004002030008B5024B1B685B6B019308BD67
:106840004002030008B5024B1B681B6C019308BD96
:106850004002030008B5024B1B685B6C019308BD46
:106860004002030008B5024B1B681B68019308BD7A
:106870001C02030008B5024B1B685B68019308BD4E
:106880001C02030008B5024B1B689B68019308BDFE
:106890001C02030008B5024B1B685B6A019308BD2C
:1068A0001C02030008B5024B1B68DB6A019308BD9C
:1068B0001C02030008B5024B1B68DB6B019308BD8B
:1068C0001C02030008B5024B1B681B6C019308BD3A
:1068D0001C02030008B5024B1B685B6C019308BDEA
:1068E0001C0203008A4210B507D0441A0298C01A4D
:1068F0004443501A94FBF0F0184410BD0021FFF7F8
:1069000025BF10B58368044613B10322014698479A
:10691000204610BD024800230360FFF7FFBC00BF04
:1069200034E60320002240681146FFF76BBF0022C7
:1069300040681146FFF77EBF40680022FFF772BF34
:106940004068002281F00101FFF754BF0023406836
:106950001A461946FFF746BF002340681A461946F3
:10696000FFF738BF002240681146FFF72BBF002217
:1069700040681146FFF716BF406800220221FFF76A
:1069800019BF002340681A46FFF704BF024B0322D9
:106990005A60024A1A60704738E60320DC940B0004
:1069A0007047F8B5064615460C468F18BC4206D00F
:1069B000336814F8011B9B6830469847F6E7284671
:1069C000F8BD007C0022FFF741BD007C0021FFF7ED
:1069D00045BD007C0021FFF749BD007C0021FFF789
:1069E0004DBD007C0021FFF751BD10B514210446B8
:1069F000FDF755FB204610BD38B5044615464FF44B
:106A00007A730022C4E90123094B217408462360EC
:106A10002946FFF74BFDBF3008D16B69DB0705D571
:106A20006868FFF727FFE868FFF724FF204638BDB6
:106A300018950B000023007C1A461946FFF7EEBCA0
:106A40007FB500221423CDE90122ADF804300B7884
:106A50008DF808304B680393CB680493007C0B7A65
:106A6000059301A9FFF72AFD07B05DF804FB1FB5E8
:106A7000003B8DF800104FF06401039118BF012313
:106A8000694601928DF80830FFF7DAFF05B05DF82E
:106A900004FB0123FFF7EBBF007C0022FFF7C6BC1D
:106AA000C9B2FFF7F9BF007C0022FFF7C7BC012184
:106AB000FFF7F9BF826810B50AB901F003FABDE823
:106AC0001040C36818470000F8B5104F57F8204031
:106AD00006460D4634B12046FFF713FF102120462D
:106AE000FDF7DDFA1020FDF7D6FA044650B1002379
:106AF0008360AB6833B1022229469847EB68E360B4
:106B0000AB68A36047F826402046F8BD40E6032066
:106B1000F0B587B00546039117461E46FFF75EFCA9
:106B200003992846FFF7D0FF0446E8B100218E42C2
:106B30004FF00403ADF815108DF817108DF81430D0
:106B4000A2BF05A99DF830308DF81630009102469D
:106B50000749A8BF8DF815603B462846FFF736FC6D
:106B600010B1002007B0F0BD201E18BF0120F9E7CA
:106B7000B56A0B00FFF742BCFFF738BC704710B591
:106B800018210446FDF78BFA204610BDF0B5037DB1
:106B9000062B8DB00E4600F104074FF0000412D012
:106BA00000F1080515F8011D0A22304600F073F9BE
:106BB000AF42044419D0002CF4D02E21304600F00E
:106BC00051F90444EEE72F236A4639460A208DF82E
:106BD0000040FFF783FC684601F0DCFE33680246A4
:106BE000DB68694630469847044620460DB0F0BD44
:106BF00010B5054B0446112240F8043B002101F07A
:106C000081FE204610BD00BF40950B000346074A99
:106C100010B543F8042B01F1100251F8044B43F86E
:106C2000044B9142F9D10A781A7010BD40950B00BF
:106C3000037D042B04D14068003818BF0120704741
:106C4000062B07D143683BB983682BB9C3681BB9CE
:106C50000069F1E7002070470120704710B59DF8EA
:106C6000084044EA032343EA024242EA0161042362
:106C70004160037510BD000007B5064B0360CB787B
:106C800000938B784A780978FFF7E8FF03B05DF846
:106C900004FB00BF40950B00014B024A1A6070478D
:106CA000D0E603204C950B00002340681A46FFF7FE
:106CB00071BD406800220221FFF77CBD00224068C0
:106CC0001146FFF76FBD002240681146FFF77ABDFD
:106CD000002340681A461946FFF77CBD0023406830
:106CE0001A461946FFF77EBD40680021FFF7AABD8E
:106CF00040680021FFF7AEBD4068002281F001012D
:106D0000FFF778BD40680022FFF78CBD0022406885
:106D10001146FFF78FBD002240681146FFF772BD94
:106D20002DE9F04395B014460D460746FFF760FF86
:106D300000211C220DA8009101F0E4FD40230C93DA
:106D400020466B460CAA0021FFF7E8FB044600280A
:106D50004BD1024601216868FFF734FD02218046CD
:106D600022466868FFF72EFD009E81462146002ED0
:106D70003BD0002939D17368022B03D00A2B11D0E4
:106D8000F669F4E7B8F1000FFAD0716906A804318A
:106D900007ADFFF771FF0FCD3C1D0FC42B682370AB
:106DA0004146EDE7B9F1000FEAD07469102201A85D
:106DB00001F0A8FD06238DF8143001AD04F108039D
:106DC0001834186859682A4603C20833A342154686
:106DD000F7D101A906A807ADFFF718FF0FCD3C1D9D
:106DE0000FC42B6823704946CAE70098FFF78EFB53
:106DF000384615B0BDE8F083024B034A1A60002202
:106E00005A607047D4E6032058950B00F8B5064643
:106E10000D468F180024BD420CD0336815F8011BB5
:106E20009B6830469847031E01DB1C44F3E7002CA7
:106E300008BF1C462046F8BD13B50446084659B1A4
:106E4000019101F0A7FD23680199DB680246204605
:106E500002B0BDE81040184702B010BD08B5FFF7FA
:106E6000EBFF08BD03689B68184738B50D21054640
:106E7000FFF7F8FF0A2104462846FFF7F3FF2044F6
:106E800038BD38B50546FFF7D7FF04462846FFF75B
:106E9000ECFF204438BD30B58BB00023012A8DF8BB
:106EA000243098BF0A2209AC0D46B1FBF2F101FB78
:106EB000125303F0FF03092B94BF30333733DBB297
:106EC000AA4204F8013DEFD92146FFF7B5FF0BB008
:106ED00030BD2DE9F04186B000AF05460E46381DA5
:106EE000142114463B60FFF7D5FC13280ED8391D3A
:106EF0002846FFF7A1FF04461EB12846FFF7B5FF5D
:106F0000044420461837BD46BDE8F08100F108036F
:106F100023F00703E846ADEB030D2246411C3B6816
:106F20006846FFF7B7FC69462846FFF785FF044629
:106F3000C546E1E7014B00229A607047DCE603207A
:106F40000021FFF76BBB0021FFF760BB10B50446C3
:106F500008462170FFF742FB00236360204610BD06
:106F600013B504460078FFF7EEFF58B9207801907A
:106F70004FF6FF71FFF70AFB019802B0BDE8104021
:106F8000FFF7DEBF02B010BD13B5044600780191D3
:106F9000FFF7D9FF019948B920780190FFF7FEFA71
:106FA000019802B0BDE81040FFF7CABF02B010BDA3
:106FB00013B5044600780191FFF7C5FF019948B960
:106FC00020780190FFF7F2FA019802B0BDE8104076
:106FD000FFF7B6BF02B010BD400830B518600024FE
:106FE00018688842E5B206D90134082C02D040085E
:106FF0001860F5E70725024B5B5D137030BD00BFDD
:107000008C950B002DE9F04188B0002304460078F0
:1070100002930E461746FFF796FF054600BB94F80D
:1070200000800146142203A801F06CFC0B232A46C1
:1070300003A94046ADF80C30FFF7E0FA04988DF84C
:10704000075002AB0DF1070207FB06F1FFF7C4FF83
:1070500020789DF80710FFF7B1FA2078FFF770FF4E
:10706000029808B0BDE8F08138B5044600780D46B6
:10707000FFF769FF0346D0B9616899B10C4A12F86D
:10708000010B854202D00133082BF8D10133DBB26A
:107090000122D9402046FFF7B5FF2078BDE83840EF
:1070A000FFF74EBF20782946FFF788FAF5E738BD8D
:1070B0008C950B0008B50078FFF788FAC0B208BDC0
:1070C00010B504460068FFF7D5FB204610BD10B58B
:1070D0000446006808B1FFF7CDFB0023C4E9013383
:1070E000236010BD38B504460D4600680131FFF736
:1070F000C9FB10B1C4E90005012038BD10B5036813
:10710000044623B143688B4201D3012010BD2046C1
:10711000FFF7E8FF0028F9D0A368002BF5D122681B
:107120001370F2E737B50D46114601920446FFF79A
:10713000E5FF019A28B92046FFF7C9FF204603B0B2
:1071400030BDA2602946206801F0CEFB2268A3680A
:107150000021D154F2E7002313B5C0E900330446FF
:107160008360037341B10846019101F013FC01995A
:1071700002462046FFF7D6FF204602B010BD8842E7
:1071800010B5044605D00B682BB18A681946FFF785
:10719000C9FF204610BDFFF79AFFFAE710B500239C
:1071A0000446C0E9003383600373FFF7E8FF20461D
:1071B00010BD13B5044659B10846019101F0EAFB30
:1071C000019902462046FFF7ADFF204602B010BDF0
:1071D000FFF77DFFF9E710B504468AB00023C4E944
:1071E0000033A3602373084601A900F083FC01A9C2
:1071F0002046FFF7DEFF20460AB010BD70B50546F9
:107200000E4609B9002070BD6AB184681444214655
:10721000FFF774FF0028F5D02868AB6831461844A2
:1072200001F0B0FBAC600120EDE713B50446084661
:1072300051B1019101F0AEFB01990246204602B026
:10724000BDE81040FFF7DABF02B010BD10B58A6884
:1072500009680446FFF7D2FF10B92046FFF737FF51
:10726000204610BD13B5044629B92046FFF72FFF6D
:10727000204602B010BD0846019101F08BFB019938
:1072800002462046FFF7BAFF0028EED0F0E70000E4
:10729000054B02221A60054B054A9A600020C3E99B
:1072A0000000FFF74BBA00BFF8E60320ECE603202E
:1072B0000000FFFF13B503688DF80710DC6B012297
:1072C0004FF0FF330DF10701A04702B010BD10B41D
:1072D0000368DC6B4FF0FF33A4465DF8044B604756
:1072E00013B5134602688DF80710D46B0DF1070132
:1072F0000122A04702B010BD10B54369B3F8862043
:10730000B3F884309A42044608D06369B3F8842005
:10731000511CA3F884101344187910BD03681B692D
:1073200098470028F1D14FF0FF30F6E770474369E6
:107330001868C043C00F704770470000064B994261
:1073400010B500F10C0405D0084600F0BFFD002880
:1073500008BF0024204610BDCC940B0010B5AC2112
:107360000446FCF79CFE204610BDAC21FCF797BEFE
:107370002DE9F0414FF0000886B01C46C0F80480AB
:1073800005460E4617464146102202A801F0BAFAF9
:10739000631C09D04FF47A73B4FBF3F203FB12447D
:1073A000CDE902285C4304946869102300930068C7
:1073B00002AB41F2050240F6FF71FFF7B7F8002873
:1073C00007DAFFF777FA03686B60002006B0BDE8C4
:1073D000F0816869002300683A463146FFF7C6F835
:1073E000031EEEDB1846F1E730B587B0044601AD69
:1073F0006846FFF741FC0FCD04340FC42B6823709F
:1074000007B030BD70B54D69054B04468C3544F866
:10741000043B06460FCD0FC42B682370304670BD69
:1074200040950B002DE9F0439846036893B00D4654
:107430000024DB6A06461746984728466B462246D4
:1074400021460094FFF76AF80546002863D1009BA7
:10745000002B4BD05B69002B48D006A8FFF7C8FB78
:10746000009B5C696378022B04D1211D06A8FFF7FD
:10747000BBFF26E00A2B24D11122294601A801F0E6
:1074800041FAA368002B38D004F108030DF1040C75
:10749000183418685968624603C20833A3429446F8
:1074A000F7D1062301A90CA88DF81430FFF7AEFB25
:1074B0000DF1340CBCE80F0007AC0FC4DCF8003051
:1074C000237006A8FFF7B4FB80B1336807ADD3F88B
:1074D0002090124B0C930FCD0DAC0FC42B68237072
:1074E0003A4643460CA93046C84705460098FFF780
:1074F0000DF8284613B0BDE8F083E368002BC3D134
:107500004FF6FF70D4F81090FEF7F0FF8145BBD125
:1075100004F11401AAE72546E8E700BF40950B00F7
:1075200038B543691A68002A054610DAB3F8862090
:10753000B3F884309A420AD103681B69984704461D
:1075400028B92B682846DB6A9847204638BD0120B9
:10755000FCE710B54369B3F88620B3F884309A424B
:10756000044605D06369B3F884201344187910BD2C
:1075700003681B6998470028F4D14FF0FF30F6E705
:10758000F8B543691746B3F88620B3F884309A42B9
:1075900005460E4616D06969B1F88430B1F88640C8
:1075A000E41ABC4228BF3C46043322461944304604
:1075B00001F09AF96A69B2F884302344A2F8843061
:1075C0002046F8BD03681B6998470028E3D14FF0B7
:1075D000FF34F5E742690023A2F884304269A2F83B
:1075E000863070472DE9F0411F4603680C46DB6A80
:1075F0008AB0054616469847237DD5F81480042B9B
:107600000CBF02200A2006220121FEF7B7FFC8F8AE
:1076100000006B691B68002B08DA2B682846DB6AC0
:107620000024984720460AB0BDE8F0812846FFF7BD
:10763000D1FFB7B1002303A9F8B20393ADF810301E
:10764000FEF744FF0028E8D168690623009300682C
:1076500003AB41F20B0240F6FF71FEF767FF002813
:10766000DBD11C22002103A801F04CF9237D042B5F
:107670001DD14FF407733046ADF80C30FEF73EFFD6
:10768000ADF80E006068FEF731FF04906B691C22B4
:10769000186803A9FEF75AFF0028BED104340FCCA6
:1076A0006D698C350FC523682B700124BAE740F64D
:1076B0001C233046ADF80C30FEF720FF05AEADF8C8
:1076C0000E00231D04F1140718685968324603C2DE
:1076D0000833BB421646F7D1D8E7000030B54269FF
:1076E000B2F886308BB004462BB1B2F884209A42AF
:1076F00001D1FFF76FFF61690868002818DBB1F856
:1077000086507F2D14D804310823C5F18002294406
:10771000FEF724FF002813DD6369B3F886200AB959
:10772000A3F884206369B3F886201044A3F8860088
:107730006369B3F88600B3F88430C01A0BB030BD6B
:10774000FFF7B8F803680B2BF2D0FFF7B3F8036824
:107750000B2BEDD020230025CDE90235FFF7AAF849
:1077600003680193084B0949009302AA2B46322073
:10777000FEF7DCFF63691868FEF7E0FE63694FF00F
:10778000FF321A60D4E700BF9B950B0094950B0065
:1077900010B5436904461868002801DBFEF7CEFEE9
:1077A00063694FF0FF321A606069112200218C304A
:1077B00001F0A8F82046BDE81040FFF70BBF10B558
:1077C000002304460160C0F884308830FFF710FAC7
:1077D000204610BD73B500234FF47A72C0E9013220
:1077E0000E4A0361026043610446AC200191FCF73C
:1077F00052FC051E05F10C0608D00123C5E9013332
:10780000074B01992B603046FFF7D9FF2046C4E9AA
:107810000565FFF7DFFE02B070BD00BFD0950B001D
:10782000B4950B0010B54FF0FF310446FFF7D2FFBF
:10783000204610BD10B504460068002801DBFEF7A5
:107840007DFE204610BD0C30FFF7F4BF024B1A68D6
:10785000024B1A60704700BF64E40320FCE603207B
:1078600070474174704708B5007CFEF70FFF20EAAF
:10787000E07008BD08B5007CFEF7E0FE20EAE0708D
:1078800008BD08B5007CFEF7E9FE40EAE07008BDDF
:1078900008B5007CFEF7DAFE40EAE07008BD007C27
:1078A000FEF7E4BE37B5457C04462DB1207C03B01D
:1078B000BDE83040FEF7BABE007C0191FEF7E6FE5F
:1078C00000280199F2DC284603B030BD10B5142120
:1078D0000446FCF7E4FB204610BD000010B54FF451
:1078E0007A730446084611460022C4E90123044B7A
:1078F0002360012320746374FEF7D0FE204610BD80
:1079000038960B00417470477047704708B50021E6
:10791000007CFEF7EBFE40EAE07008BD08B50121EF
:10792000007CFEF7E3FE40EAE07008BD08B5007C8D
:10793000FEF7D4FE20EAE07008BD08B5007CFEF733
:10794000C5FE20EAE07008BD13B50446007C019135
:10795000FEF7C4FE0028019901DC607C20B1207C88
:10796000FEF7CCFE20EAE07002B010BD007CFEF70E
:10797000CDBE10B514210446FCF791FB204610BD86
:1079800010B54FF47A73044608460021C4E9011388
:10799000044B23600123207463741146FEF786FEB6
:1079A000204610BD68960B00007C0022FEF786BEC4
:1079B00010B514220446002100F0A4FF204610BD9B
:1079C00010B50F4C88B003A8FFF7F2FF2178BFF382
:1079D0005B8F11F001010FD120460191FCF76EFB86
:1079E000019948B103AA0748FFF7CAFF2046FCF7F0
:1079F0006AFB054800F072FF024808B010BD00BFE6
:107A000000E7032004E7032009790B000022406807
:107A10001146FEF7D7BE002240681146FEF7F2BEBF
:107A2000002240681146FEF705BF40680022FEF7BD
:107A3000F9BE4068002281F00101FEF7DBBE0023A1
:107A400040681A461946FEF7CDBE002340681A4624
:107A50001946FEF7BFBE002240681146FEF7A2BEDF
:107A6000406800220221FEF7A5BE002340681A46A6
:107A7000FEF790BE024B04225A60024A1A60704719
:107A800018E7032098960B0010B5044600F082FF1B
:107A9000013823182046834206D90278197800F865
:107AA000011B03F80129F6E710BD70B50C46911EC5
:107AB00022291DD8254630B9234430229D4210D2B8
:107AC00005F8012BFAE7B0FBF2F602FB1600C1B293
:107AD000092894BF30315731C9B205F8011B30462F
:107AE000E9E7002320462B70FFF7CEFF204670BD4C
:107AF0000020FCE738B5031E0C4615460EDAB3F13C
:107B0000004F4FF02D0214BF5842184601230A704F
:107B10002A461944FFF7C9FF204638BD0123F9E77B
:107B2000014B1860704700BF68E4032008B50B4B99
:107B300043B1FFF745FF03681B699847002801DD43
:107B4000AFF30080064B43B100F096F903681B6960
:107B50009847002801DDAFF3008008BD0000000059
:107B60000000000008B5FFF7E1FFFEF7F7FB014B4F
:107B7000186008BD28E703200548064A064908B5ED
:107B8000121A00F0B1FE054B054A1A6008BD00BF8D
:107B900000F4032004F4032084980B0000F4032075
:107BA0001E1C279A07B5002300931A466FF0770131
:107BB000FEF7DEFD03B05DF804FB000007B5438867
:107BC0000A2B08D0502B0BD1094B1B684BB103B0CB
:107BD0005DF804EB1847FFF7E5FF03B05DF804FB21
:107BE000002300931A466FF07701FEF7C1FDF4E71A
:107BF00024E7032010B512480021FEF76BFE114B5D
:107C00001A68114B9A42114B0CBF012200221A70C4
:107C100001D0FFF7B1FFFEF789FB044600F07AFEC2
:107C20000B4B13B12046AFF3008000210848FEF74C
:107C3000A9FDBDE8104007480021FEF78FBD00BF39
:107C4000217B0B0000F403201E1C279A20E7032051
:107C500000000000BD7B0B00232813B502D90020D3
:107C600002B010BDA0F10B03022B1AD8174C2178DB
:107C7000BFF35B8F11F001010BD120460191FCF79E
:107C80001DFA019928B11248FFF760F92046FCF768
:107C90001AFA0F4B1878FEF7A9FC0028DFD1012053
:107CA000DEE7012809D800F0A7F80021007CFEF7E4
:107CB000F5FB80F00100C0B2D2E709380128EED808
:107CC00000F0DAF8007CFEF7D9FCF2E724E60320A6
:107CD00028E60320232838B504460D460AD8FF2994
:107CE00008D0FFF7B9FF28B129462046BDE8384043
:107CF000FEF74CBB38BD38B504460D46FEF74EFBCB
:107D0000FF2810D0062804D84D2323FA00F0C3071B
:107D100009D42046FFF7A0FF28B129462046BDE838
:107D20003840FEF743BB38BD10B50446FEF736FBBE
:107D3000031FDBB2012B08D92046FFF78DFF20B1CE
:107D40002046BDE81040FEF739BB002010BD0D28CD
:107D500010B504469CBF0E34A4B22046FFF77CFF4A
:107D600050B103212046FEF709FB032804D1204629
:107D7000BDE81040FEF74ABB002010BD2DE9F041E0
:107D800090461F46072406460D46C4F10701B8F188
:107D9000000F12D147FA01F101F001013046FFF75F
:107DA000AAFF01212846FFF7A6FF00212846FFF77A
:107DB000A2FF013CE9D2BDE8F08147FA04F1EBE70C
:107DC0007047000038B50A4B036001230446436145
:107DD0000849202000F074F8202560600549A5605E
:107DE000284600F06DF8C4E90305204638BD00BF01
:107DF00018000100CC960B0030B50E4D2978BFF36A
:107E00005B8F11F0010487B011D12846FCF756F9B9
:107E100068B16846FFF7D6FF6A4621460648FEF776
:107E2000EBFD2846FCF74FF9044800F057FD0248E7
:107E300007B030BD2CE7032030E70320C17D0B00E5
:107E40007047000038B5044614252A46002100F08A
:107E500059FD25804025074925812846258200F0C7
:107E60002FF804496060284600F02AF8E0602046B8
:107E700038BD00BFCC960B0030B50E4D2978BFF34E
:107E80005B8F11F0010487B011D12846FCF716F979
:107E900068B101A8FFF7D6FF01AA21460648FFF7FF
:107EA0001DFD2846FCF70FF9044800F017FD0248B5
:107EB00007B030BD44E7032048E70320417E0B00B4
:107EC000FCF7EBB808B5FEF7EDFC0000014900F047
:107ED000F9B800BFE8960B007FB500241023CDE968
:107EE0000234036815469E6912686B46CDE900446A
:107EF000B0479DF8043003F00603062B03BF009B38
:107F00002B600120204604B070BD0098904214BF41
:107F1000012006207047000010B5034B03600446A3
:107F200000F0CDF8204610BD28970B0010B5044690
:107F3000FFF7F2FF20460821FCF7B1F8204610BDFC
:107F40002DE9F0411F46DDE90834DDF81880984539
:107F50000646154607D1079900F0B4F818B16571C7
:107F60000020BDE8F0813946304600F0ABF800282B
:107F7000F6D00123C4F800802571A371F0E738B56D
:107F800015461C4600F09EF820B10823E360062346
:107F90002560237138BD73B505460C4601921E4617
:107FA00000F090F850B9032E08D82368019A5B6955
:107FB0002946204602B0BDE87040184702B070BDA7
:107FC00010B5034B03600446FFF7A6FF204610BD23
:107FD00088970B0010B50446FFF7F2FF20460C21EE
:107FE000FCF75DF8204610BDF7B5089F974205469F
:107FF0000E4614460AD0A86802680897156A3146EA
:108000002246AC4603B0BDE8F040604719460193F4
:1080100000F058F8019B0028EDD0062003B0F0BD19
:108020002DE9F14F0D461946DDE90A4BDDE90CA6B5
:1080300081461746984600F045F890B1002D34600F
:10804000377109DB61198A450CBF06210121B17125
:10805000002001B0BDE8F08F0235F9D10123B371E2
:10806000F6E7544506D15946484600F02BF808B1CA
:108070007771EDE7D9F808000368CDE90CA6CDE9E2
:108080000A4BDC693A4643462946A44601B0BDE89E
:10809000F04F60472DE9F04107460C4615461E4655
:1080A000FFF76DFF48B9B86803689F692A463346F1
:1080B0002146BC46BDE8F0416047BDE8F08170470D
:1080C00000207047814208B50ED0406803782A2B03
:1080D0000CD049680B782A2B08BF013100F048FC0E
:1080E000B0FA80F0400908BD0120FCE70020FAE763
:1080F00081F0004102E000BF83F0004330B54FEA59
:1081000041044FEA430594EA050F08BF90EA020FC5
:108110001FBF54EA000C55EA020C7FEA645C7FEA58
:10812000655C00F0E2804FEA5454D4EB5555B8BF7B
:108130006D420CDD2C4480EA020281EA030382EAEC
:10814000000083EA010180EA020281EA0303362D7E
:1081500088BF30BD11F0004F4FEA01314FF4801C51
:108160004CEA113102D0404261EB410113F0004F63
:108170004FEA03334CEA133302D0524263EB43031A
:1081800094EA050F00F0A780A4F10104D5F1200EB8
:108190000DDB02FA0EFC22FA05F2801841F1000113
:1081A00003FA0EF2801843FA05F359410EE0A5F1E7
:1081B00020050EF1200E012A03FA0EFC28BF4CF018
:1081C000020C43FA05F3C01851EBE37101F00045CE
:1081D00007D54FF0000EDCF1000C7EEB00006EEBDB
:1081E0000101B1F5801F1BD3B1F5001F0CD3490865
:1081F0005FEA30004FEA3C0C04F101044FEA4452BC
:1082000012F5800F80F09A80BCF1004F08BF5FEA42
:10821000500C50F1000041EB045141EA050130BD22
:108220005FEA4C0C404141EB0101013C28BFB1F534
:10823000801FE9D291F0000F04BF01460020B1FA7F
:1082400081F308BF2033A3F10B03B3F120020CDA52
:108250000C3208DD02F1140CC2F10C0201FA0CF030
:1082600021FA02F10CE002F11402D8BFC2F1200C95
:1082700001FA02F120FA0CFCDCBF41EA0C0190404B
:10828000E41AA2BF01EB0451294330BD6FEA040494
:108290001F3C1CDA0C340EDC04F11404C4F120027F
:1082A00020FA04F001FA02F340EA030021FA04F391
:1082B00045EA030130BDC4F10C04C4F1200220FAE8
:1082C00002F001FA04F340EA0300294630BD21FA26
:1082D00004F0294630BD94F0000F83F4801306BFEC
:1082E00081F480110134013D4EE77FEA645C18BFE0
:1082F0007FEA655C29D094EA050F08BF90EA020F77
:1083000005D054EA000C04BF1946104630BD91EA6E
:10831000030F1EBF0021002030BD5FEA545C05D171
:108320004000494128BF41F0004130BD14F58004B0
:108330003CBF01F5801130BD01F0004545F0FE4124
:1083400041F470014FF0000030BD7FEA645C1ABF59
:10835000194610467FEA655C1CBF0B46024650EA90
:10836000013406BF52EA033591EA030F41F40021BC
:1083700030BD00BF90F0000F04BF0021704730B542
:108380004FF4806404F132044FF000054FF0000117
:1083900050E700BF90F0000F04BF0021704730B5D8
:1083A0004FF4806404F1320410F0004548BF4042AD
:1083B0004FF000013EE700BF42004FEAE2014FEA02
:1083C00031014FEA02701FBF12F07F4393F07F4FDD
:1083D00081F06051704732F07F4208BF704793F0E0
:1083E0007F4F04BF41F40021704730B54FF46074F3
:1083F00001F0004521F000411CE700BF50EA0102F6
:1084000008BF704730B54FF000050AE050EA01029E
:1084100008BF704730B511F0004502D5404261EB0E
:1084200041014FF4806404F132045FEA915C3FF44F
:10843000D8AE4FF003025FEADC0C18BF03325FEAEC
:10844000DC0C18BF033202EBDC02C2F1200300FA9D
:1084500003FC20FA02F001FA03FE40EA0E0021FAC2
:1084600002F11444BDE600BF70B54FF0FF0C4CF4B0
:10847000E06C1CEA11541DBF1CEA135594EA0C0F62
:1084800095EA0C0F00F0DEF82C4481EA030621EA9D
:108490004C5123EA4C5350EA013518BF52EA0335D8
:1084A00041F4801143F4801338D0A0FB02CE4FF08A
:1084B0000005E1FB02E506F00042E0FB03E54FF0BA
:1084C0000006E1FB03569CF0000F18BF4EF0010EB2
:1084D000A4F1FF04B6F5007F64F5407404D25FEAAE
:1084E0004E0E6D4146EB060642EAC62141EA555161
:1084F0004FEAC52040EA5E504FEACE2EB4F1FD0CA3
:1085000088BFBCF5E06F1ED8BEF1004F08BF5FEA20
:10851000500E50F1000041EB045170BD06F00046D2
:1085200046EA010140EA020081EA0301B4EB5C047F
:10853000C2BFD4EB0C0541EA045170BD41F4801177
:108540004FF0000E013C00F3AB8014F1360FDEBF9C
:10855000002001F0004170BDC4F10004203C35DA78
:108560000C341BDC04F11404C4F1200500FA05F3FB
:1085700020FA04F001FA05F240EA020001F000429C
:1085800021F0004110EBD37021FA04F642EB060112
:108590005EEA430E08BF20EAD37070BDC4F10C043C
:1085A000C4F1200500FA04F320FA05F001FA04F200
:1085B00040EA020001F0004110EBD37041F10001EC
:1085C0005EEA430E08BF20EAD37070BDC4F12005F7
:1085D00000FA05F24EEA020E20FA04F301FA05F25F
:1085E00043EA020321FA04F001F0004121FA04F207
:1085F00020EA020000EBD3705EEA430E08BF20EAD7
:10860000D37070BD94F0000F0FD101F00046400010
:1086100041EB010111F4801F08BF013CF7D041EA92
:10862000060195F0000F18BF704703F00046520096
:1086300043EB030313F4801F08BF013DF7D043EA67
:108640000603704794EA0C0F0CEA135518BF95EA1D
:108650000C0F0CD050EA410618BF52EA4306D1D1A4
:1086600081EA030101F000414FF0000070BD50EAC3
:10867000410606BF1046194652EA430619D094EA4D
:108680000C0F02D150EA013613D195EA0C0F05D137
:1086900052EA03361CBF104619460AD181EA03018B
:1086A00001F0004141F0FE4141F470014FF0000043
:1086B00070BD41F0FE4141F4780170BD70B54FF0DE
:1086C000FF0C4CF4E06C1CEA11541DBF1CEA13555E
:1086D00094EA0C0F95EA0C0F00F0A7F8A4EB050440
:1086E00081EA030E52EA03354FEA013100F0888037
:1086F0004FEA03334FF0805545EA131343EA126300
:108700004FEA022245EA111545EA10654FEA0026B4
:108710000EF000419D4208BF964244F1FD0404F56D
:10872000407402D25B084FEA3202B61A65EB0305C9
:108730005B084FEA32024FF480104FF4002CB6EB86
:10874000020E75EB030E22BFB61A754640EA0C0006
:108750005B084FEA3202B6EB020E75EB030E22BF46
:10876000B61A754640EA5C005B084FEA3202B6EB87
:10877000020E75EB030E22BFB61A754640EA9C0046
:108780005B084FEA3202B6EB020E75EB030E22BF16
:10879000B61A754640EADC0055EA060E18D04FEAD4
:1087A000051545EA16754FEA06164FEAC30343EA74
:1087B00052734FEAC2025FEA1C1CC0D111F4801F41
:1087C0000BD141EA00014FF000004FF0004CB6E73A
:1087D00011F4801F04BF01430020B4F1FD0C88BFD9
:1087E000BCF5E06F3FF6AFAEB5EB030C04BFB6EBE4
:1087F000020C5FEA500C50F1000041EB045170BDD7
:108800000EF0004E4EEA113114EB5C04C2BFD4EB03
:108810000C0541EA045170BD41F480114FF0000E87
:10882000013C90E645EA060E8DE60CEA135594EA03
:108830000C0F08BF95EA0C0F3FF43BAF94EA0C0F06
:108840000AD150EA01347FF434AF95EA0C0F7FF47B
:1088500025AF104619462CE795EA0C0F06D152EACF
:1088600003353FF4FDAE1046194622E750EA4106B3
:1088700018BF52EA43067FF4C5AE50EA41047FF4C4
:108880000DAF52EA43057FF4EBAE12E74FEA410227
:1088900012F5001215D211D56FF47873B3EB625252
:1088A00012D94FEAC12343F0004343EA505311F079
:1088B000004F23FA02F018BF404270474FF000000B
:1088C000704750EA013005D111F0004008BF6FF049
:1088D000004070474FF00000704700BF0023014682
:1088E0001A46184600F05EB80A44914200F1FF3380
:1088F00000D1704710B511F8014B03F8014F9142B8
:10890000F9D110BD02440346934200D1704703F8E9
:10891000011BF9E738B5104B1D68AB6B0446B3B9C2
:108920001820FDF79FFF0246A86320B90B4B0C48A7
:108930004221FDF7C7FF0B490B4BC0E900130B4B5E
:1089400083600B23838100210120C2E90401AB6B0A
:1089500000221C615A6138BD68E40320C1970B00F6
:10896000D8970B000E33CDAB34126DE6ECDE05006C
:1089700010F8012B11F8013B012A28BF9A42F7D0C9
:10898000D01A7047034611F8012B03F8012B002A77
:10899000F9D17047034613F8012B002AFBD1181AAE
:1089A000013870472DE9F843DFF8B8800646D8F85B
:1089B00000001F460D46914600F056F8254B1C68F6
:1089C00034B9254C1C60254B13B11B68C4F88830A2
:1089D00063681F2B07DDD8F8000000F047F84FF060
:1089E000FF30BDE8F8834EB3D4F8880088B91C4B3B
:1089F00023B9D8F8000000F038F8F0E74FF484709D
:108A0000FDF730FF0028F4D00023C0E94033C4F85C
:108A10008800636840F8239001229A4000EB8301AC
:108A2000D0F800311343C0F80031022EC1F8807035
:108A300002BFD0F804311343C0F804316368D8F89A
:108A400000005A1C0233626044F8235000F00EF814
:108A50000020C6E7E8E703205CE7032000000000F1
:108A600065680B00CCE40320704770477047000036
:108A700021400B005D400B0085400B0089400B003E
:108A80000000000043616C6C206F6E207075726591
:108A9000207669727475616C0041737365727469D4
:108AA0006F6E4661696C757265202A705F70696EC1
:108AB000203C20283332202B20313629004E6F20D5
:108AC0004368616E6765202D2043616E63656C6C41
:108AD000696E6720434D440A007B226F6E223A7410
:108AE0007275652C22736174223A002C22627269BD
:108AF000223A002C22687565223A007B226F6E2292
:108B00003A66616C73657D00505554202F61706921
:108B10002F002F6C69676874732F002F7374617452
:108B20006520485454502F312E3100486F73743AE9
:108B30002000436F6E74656E742D4C656E677468AB
:108B40003A2000436F6E74656E742D547970653AE7
:108B500020746578742F706C61696E3B6368617214
:108B60007365743D5554462D38003C3F786D6C203C
:108B700076657273696F6E3D22312E302220656EEC
:108B8000636F64696E673D227574662D38223F3EBF
:108B90003C733A456E76656C6F706520786D6C6ECF
:108BA000733A733D22687474703A2F2F736368654B
:108BB0006D61732E786D6C736F61702E6F72672F9D
:108BC000736F61702F656E76656C6F70652F2220F4
:108BD000733A656E636F64696E675374796C653D53
:108BE00022687474703A2F2F736368656D61732EF9
:108BF000786D6C736F61702E6F72672F736F617019
:108C00002F656E636F64696E672F223E3C733A4234
:108C10006F64793E3C753A53657442696E6172794E
:108C2000537461746520786D6C6E733A753D22756E
:108C3000726E3A42656C6B696E3A736572766963FF
:108C4000653A62617369636576656E743A31223E96
:108C50003C42696E61727953746174653E313C2F98
:108C600042696E61727953746174653E3C2F753A46
:108C700053657442696E61727953746174653E3CE8
:108C80002F733A426F64793E3C2F733A456E766596
:108C90006C6F70653E00504F5354202F75706E708E
:108CA0002F636F6E74726F6C2F6261736963657688
:108CB000656E743120485454502F312E3100436F6B
:108CC0006E74656E742D547970653A20746578748D
:108CD0002F786D6C3B20636861727365743D7574A9
:108CE000662D3800534F4150414354494F4E3A206E
:108CF0002275726E3A42656C6B696E3A7365727674
:108D00006963653A62617369636576656E743A3169
:108D10002353657442696E6172795374617465227C
:108D200000436F6E6E656374696F6E3A206B6565A4
:108D3000702D616C697665003C3F786D6C207665BE
:108D40007273696F6E3D22312E302220656E636F23
:108D500064696E673D227574662D38223F3E3C7310
:108D60003A456E76656C6F706520786D6C6E733AFF
:108D7000733D22687474703A2F2F736368656D6158
:108D8000732E786D6C736F61702E6F72672F736FB7
:108D900061702F656E76656C6F70652F2220733A57
:108DA000656E636F64696E675374796C653D2268A4
:108DB0007474703A2F2F736368656D61732E786DCC
:108DC0006C736F61702E6F72672F736F61702F6598
:108DD0006E636F64696E672F223E3C733A426F6424
:108DE000793E3C753A53657442696E617279537489
:108DF00061746520786D6C6E733A753D2275726E84
:108E00003A42656C6B696E3A736572766963653A6E
:108E100062617369636576656E743A31223E3C42E5
:108E2000696E61727953746174653E303C2F42699A
:108E30006E61727953746174653E3C2F753A536567
:108E40007442696E61727953746174653E3C2F732C
:108E50003A426F64793E3C2F733A456E76656C6F8B
:108E600070653E00496F544E6574776F726B0025D4
:108E7000730A00257300543A2028256925632900C8
:108E800054454D502044524F50204445544543547E
:108E900045440A0025690A003139322E3136382E10
:108EA000312E3330003139322E3136382E312E33D7
:108EB00031003139322E3136382E312E33320031F5
:108EC00039322E3136382E312E3333003139322EAD
:108ED0003136382E312E3334004D516C5A7A695266
:108EE0004F30576169354D734D486C6C387841553A
:108EF00041517177383551727238744D333746337A
:108F000054003139322E3136382E312E3500536F20
:108F10006674776172652053504900426567696ED7
:108F20002049324300426567696E20686172647748
:108F30006172652053504900426567696E20736F06
:108F40006674776172652053504900002C0100005F
:108F500018000000F40100002C0100005000000087
:108F600000000000003E5B4F5B3E3E6B4F6B3E1CC3
:108F70003E7C3E1C183C7E3C181C577D571C1C5EDA
:108F80007F5E1C00183C1800FFE7C3E7FF001824B1
:108F90001800FFE7DBE7FF30483A060E262979295B
:108FA00026407F050507407F05253F5A3CE73C5A90
:108FB0007F3E1C1C08081C1C3E7F14227F22145F6D
:108FC0005F005F5F06097F017F006689956A6060C8
:108FD00060606094A2FFA29408047E040810207EC2
:108FE000201008082A1C08081C2A08081E10101047
:108FF000100C1E0C1E0C30383E3830060E3E0E068D
:10900000000000000000005F0000000700070014DF
:109010007F147F14242A7F2A12231308646236499E
:109020005620500008070300001C22410000412286
:109030001C002A1C7F1C2A08083E0808008070308B
:1090400000080808080800006060002010080402FA
:109050003E5149453E00427F400072494949462100
:1090600041494D331814127F1027454545393C4A74
:10907000494931412111090736494949364649498B
:10908000291E0000140000004034000000081422D3
:109090004114141414140041221408020159090641
:1090A0003E415D594E7C1211127C7F494949363E42
:1090B000414141227F4141413E7F494949417F0928
:1090C0000909013E414151737F0808087F00417F33
:1090D00041002040413F017F081422417F40404031
:1090E000407F021C027F7F0408107F3E4141413EC9
:1090F0007F090909063E4151215E7F09192946264B
:109100004949493203017F01033F4040403F1F204E
:1091100040201F3F4038403F631408146303047825
:1091200004036159494D43007F4141410204081045
:1091300020004141417F0402010204404040404080
:10914000000307080020545478407F2844443838EE
:1091500044444428384444287F3854545418000860
:109160007E090218A4A49C787F0804047800447D3A
:1091700040002040403D007F1028440000417F40D7
:10918000007C047804787C0804047838444444382B
:10919000FC1824241818242418FC7C08040408480B
:1091A0005454542404043F44243C4040207C1C205C
:1091B00040201C3C4030403C44281028444C9090B7
:1091C000907C4464544C4400083641000000770011
:1091D00000004136080002010204023C2623263C1E
:1091E0001EA1A161123A4040207A385454555921A9
:1091F0005555794121545478412155547840205493
:109200005579400C1E5272123955555559395454DE
:10921000545939555454580000457C410002457D4D
:10922000420001457C40F0292429F0F0282528F04F
:109230007C545545002054547C547C0A097F4932A3
:10924000494949323248484832324A4848303A411E
:1092500041217A3A42402078009DA0A07D394444C3
:1092600044393D4040403D3C24FF2424487E49434E
:10927000662B2FFC2F2BFF0929F620C0887E0903BF
:1092800020545479410000447D413048484A3238E6
:109290004040227A007A0A0A727D0D19317D262912
:1092A000292F28262929292630484D40203808080A
:1092B000080808080808382F10C8ACBA2F1028343E
:1092C000FA00007B000008142A142222142A140831
:1092D000AA005500AAAA55AA55AA000000FF00102E
:1092E0001010FF00141414FF001010FF00FF1010E6
:1092F000F010F0141414FC001414F700FF0000FF29
:1093000000FF1414F404FC141417101F10101F1085
:109310001F1414141F00101010F0000000001F1084
:109320001010101F10101010F010000000FF10108F
:1093300010101010101010FF10000000FF1400009B
:10934000FF00FF00001F10170000FC04F4141417A6
:1093500010171414F404F40000FF00F7141414148C
:10936000141414F700F7141414171410101F101FFE
:10937000141414F4141010F010F000001F101F004B
:1093800000001F14000000FC140000F010F010108A
:10939000FF10FF141414FF141010101F0000000021
:1093A000F010FFFFFFFFFFF0F0F0F0F0FFFFFF0015
:1093B00000000000FFFF0F0F0F0F0F384444384428
:1093C0007C2A2A3E147E02020606027E027E026388
:1093D000554941633844443C04407E201E20060227
:1093E0007E020299A5E7A5991C2A492A1C4C720104
:1093F000724C304A4D4D303048784830BC625A4645
:109400003D3E494949007E0101017E2A2A2A2A2A35
:1094100044445F444440514A444040444A5140001F
:1094200000FF0103E080FF000008086B6B083612A4
:10943000362436060F090F06000018180000001029
:1094400010003040FF0101001F01011E00191D170F
:1094500012003C3C3C3C000000000000000000000A
:109460000000000000000000000000007D5B0B0019
:109470000D6E0B00A5400B0095580B00BB590B005F
:10948000D7590B0053590B00F1590B00275A0B0009
:10949000435A0B000000000000000000095F0B00B1
:1094A000995F0B007D5B0B000D6E0B000D5F0B00D9
:1094B00095580B00955D0B00255C0B0053590B0074
:1094C000F1590B00275A0B00435A0B000000000013
:1094D00000000000000000000000000083690B0095
:1094E00079690B006F690B0065690B0059690B0006
:1094F0004D690B00E96C0B00F16C0B0041690B002E
:1095000039690B002F690B0025690B00216D0B00D9
:109510000000000000000000A1690B00EB690B00D7
:10952000C3690B00A3690B00CB690B00D3690B0067
:10953000DB690B00E3690B00000000000000000085
:109540008D6B0B007D6B0B007F6B0B0061707000EF
:109550000000000000000000A96C0B00B36C0B00C1
:10956000BD6C0B00C76C0B00D16C0B00DD6C0B00ED
:10957000E96C0B00F16C0B00F96C0B00056D0B0036
:109580000D6D0B00176D0B00216D0B0000081018FE
:1095900020283038776972696E67007265637620BB
:1095A0006572726F72203D2025640000000000008B
:1095B0000000000039730B005D730B0047780B004F
:1095C0006B730B003D730B000000000000000000F7
:1095D00025430B0059430B00B5720B00CF720B00F3
:1095E000DD760B00F9720B0053750B002D730B0029
:1095F000E5750B0025740B0081750B0091770B004E
:1096000021750B002F730B00E1720B0071730B00BF
:1096100005740B0025592D256D2D25645425483AD8
:10962000254D3A2553257A0061736374696D650091
:10963000000000000000000061780B00CD780B00F6
:10964000A5780B000D6E0B0075780B0091780B0060
:1096500083780B009F780B0063780B0067780B0012
:1096600000000000000000000B790B0073790B0074
:1096700049790B000D6E0B003B790B000D790B0047
:109680001D790B006D790B002D790B0005790B000E
:1096900000000000000000006B7A0B00617A0B00F4
:1096A000577A0B000D7A0B004B7A0B003F7A0B00B8
:1096B000E96C0B00F16C0B00337A0B002B7A0B007A
:1096C000217A0B00177A0B00216D0B0000537431C7
:1096D000395F53705F6D616B655F7368617265645C
:1096E0005F7461670000000028970B00CD960B00A7
:1096F00088970B00FC960B00AC970B004E31305F47
:109700005F637878616269763131375F5F636C617E
:1097100073735F747970655F696E666F45000000F2
:1097200000000000F0960B00197F0B002D7F0B004E
:10973000C1800B00C1800B00977F0B00D97E0B000E
:109740007F7F0B00417F0B000B7F0B0088970B0086
:1097500058970B00F0960B004E31305F5F637878BE
:10976000616269763132305F5F73695F636C617328
:10977000735F747970655F696E666F450000000005
:10978000000000004C970B00C17F0B00D57F0B0041
:10979000C1800B00C1800B00977F0B00D97E0B00AE
:1097A00095800B0021800B00E97F0B0028970B00B0
:1097B000B4970B00537439747970655F696E666F86
:1097C000005245454E54206D616C6C6F632073757B
:1097D00063636565646564002F746D702F6A656EE0
:1097E0006B696E732D4743432D31302D7069706561
:1097F0006C696E652D34385F32303230313132343D
:109800005F313630363138303633392F7372632F4B
:109810006E65776C69622F6E65776C69622F6C6913
:1098200062632F7374646C69622F72616E642E635D
:10983000000000001D4F0B0085580B0015690B0040
:109840008D690B00996C0B00F96D0B00356F0B00E7
:1098500091720B004D780B00757A0B000000000030
:10986000040000001400000003000000474E5500F3
:109870006794F297D20D3BB05F1138BE15F929A954
:04988000DAE95B675F
:0498840000000000E0
:10988800C8AF0000E45700008CB90000881300003E
:1098980050C300001027000048454C4C4F00000002
:1098A800003000000000000000003100000000004F
:1098B800000000320000000000000000330000003B
:1098C8000000000000340000000000000000350027
:1098D800000000000000003600000000000000004A
:1098E8003700000000000000003800000000000001
:1098F8000000390000000000000000594553000036
:1099080000000000410000000000000000420000CC
:1099180000000000000043000000000000000044B8
:1099280000000000000000004500000000000000EA
:109938000046000000000000000047000000000092
:10994800000000480000000000000000490000007E
:1099580000000000004A00000000000000004B006A
:10996800000000000000004C0000000000000000A3
:109978004D00000000000000004E00000000000044
:1099880000004F0000000000000000500000000030
:10999800000000005100000000000000005200001C
:1099A8000000000000005300000000000000004E0E
:1099B8004F000000000000005400000000000000FC
:1099C80000550000000000000000560000000000E4
:1099D80000000057000000000000000058000000D0
:1099E80000000000005900000000000000005A00BC
:1099F80000000000000000474F4F44204259450036
:109A0800988E0B00A58E0B00B28E0B00BF8E0B003C
:109A1800CC8E0B0001C00000000103070F1F3F7F21
:109A28000080C0E0F0F8FCFE00000000000000002C
:109A3800000000000000000000000000000000001E
:109A4800000000000000000000000000000000000E
:109A580000000000000000000000000000000000FE
:109A6800000000000000008080800000000000006E
:109A78000000000000000000008080C0C00000005E
:109A880000000000000000000000000000000000CE
:109A980000000000000000000000000000000000BE
:109AA80000000000000000000000000000000000AE
:109AB80000000000000000000000000080C0E0F08E
:109AC800F8FCF8E0000000000000000000000000C2
