:02000002B0004C
:1040000000400B0044790B00000006000C00050284
:084010000401A60F00000000EE
:044018002C6A0B0003
:10401C0009480A49884208B505D0094A824202D0AB
:10402C00121A02F041FC0748074A0021121A02F04A
:10403C0049FC014808BD00BF8CE0032088740B00CC
:10404C0020E5032020E50320EDE7032070B5074EA3
:10405C00074C02F0F1F9A41BA4080025AC4200D1D6
:10406C0070BD56F8043B98470135F7E734740B00E4
:10407C005C740B0000F024BA08B500F043FABDE8FC
:10408C00084002F091B901F045BA01F043BA01F0D1
:10409C0049BA000008B5034A03490C2001F0A6F9FF
:1040AC00FEE700BF29510B00406A0B000078B0FA04
:1040BC0080F0400970470123037070472F2810B51A
:1040CC0004460DD9094A0A490A2001F08FF9094B17
:1040DC0004F01F04D3F81005E04000F0010010BDFF
:1040EC001F28F4D84FF0A043F4E700BF29510B0070
:1040FC00556A0B00000300502DE9F843DFF82C81C2
:10410C00876898F80030484DBFF35B8F13F0010FB0
:10411C00044609D14046FFF7C9FF28B101F016F853
:10412C0028604046FFF7C7FFBFB22B683F01DE5D3A
:10413C0098F80030BFF35B8FD9074FEA461909D4C2
:10414C003A48FFF7B3FF28B101F000F82860374870
:10415C00FFF7B1FF2B683B445E7806F01F0646EA7A
:10416C0009063046FFF7AAFF3046FFF7A7FFE768BE
:10417C0098F80030BFF35B8FDA07C6B209D42B482E
:10418C00FFF794FF28B100F0E1FF28602748FFF704
:10419C0092FFBFB22B683F0113F8079098F80030DC
:1041AC00BFF35B8FDB074FEA491909D41F48FFF7B0
:1041BC007DFF28B100F0CAFF28601C48FFF77BFF89
:1041CC002B681F447D7805F01F0545EA0905284634
:1041DC00FFF774FF2846FFF771FF237CC0B203F092
:1041EC0003030EB143F0040308B143F008039A082B
:1041FC00013B22740D2B0BD8DFE803F0070C0F0CDE
:10420C000A120707120A0C0F0C076369013363616A
:10421C00BDE8F8836369013BF9E763690233F6E7AC
:10422C006369023BF3E700BF24E5032020E503208C
:10423C0010B403685A6899681B68541001EB62004B
:10424C00D20748BF0A595DF8044B48BFD3581847EA
:10425C00012A38B5044602D10B68236003E0022A18
:10426C0003D0032A0DD0002038BD0C200D68FFF7B9
:10427C000AFF03460028F0D095E8070083E8070002
:10428C00EBE700680028EED00C21FFF700FFEAE70F
:10429C00F0B58DB002AD85E80600064695E8030042
:1042AC0005AC84E805001F460C2000230A93FFF799
:1042BC00EAFE024620B194E8030082E8030097600E
:1042CC000B4B0B930B4B0A939DF8503008920093B9
:1042DC009DF848209DF94C3008A9304601F01AFA97
:1042EC000A9B1BB108A90322084698470DB0F0BDE4
:1042FC003D420B005D420B0038B584690A4B0360EC
:10430C0005467CB16368013B63605BB9236820465A
:10431C009B689847A368013BA3601BB923682046A0
:10432C00DB689847284638BDD0710B0010B50446A1
:10433C00FFF7E2FF20461C21FFF7A9FE204610BD27
:10434C002DE9F04F0F460446164689B00221384637
:10435C0002F0E2F80221304602F0DEF8DFF858B144
:10436C00E6600023C4E90137236063614FF4FA600F
:10437C0000F0D4FED4F808A09BF800304D4DBFF3EC
:10438C005B8F13F0010F09D15846FFF78FFE28B150
:10439C0000F0DCFE28605846FFF78DFE1FFA8AFA03
:1043AC002B684FEA0A1A13F80A809BF80030BFF307
:1043BC005B8FD9074FEA481909D43F48FFF776FEBF
:1043CC0028B100F0C3FE28603B48FFF774FE2B6851
:1043DC00534493F8018008F01F0848EA0908404646
:1043EC00FFF76CFE4046FFF769FED4F80CA09BF873
:1043FC000030BFF35B8FB0F1000818BF4FF001081D
:10440C00DA0709D42C48FFF751FE28B100F09EFEC4
:10441C0028602948FFF74FFE1FFA8AFA2B684FEAEB
:10442C000A1A13F80A909BF80030BFF35B8FDB0776
:10443C004FEA491909D42048FFF738FE28B100F09B
:10444C0085FE28601C48FFF736FE2B689A449AF8C4
:10445C00015005F01F0545EA09052846FFF72EFE19
:10446C002846FFF72BFE08B148F00208DFF84C9005
:10447C0084F8108000254FF0FF3823462A46494621
:10448C003846CDE900580295CDF810900595FFF708
:10449C00FFFECDE90695CDE90185009508AA3046C9
:1044AC0012E906002346FFF7F3FE204609B0BDE8EB
:1044BC00F08F00BF24E5032020E5032005410B000D
:1044CC0008B501F0EBFE4FF4165101F0DBFE0C4881
:1044DC0000F0A1F80A4800F0D7F80221062002F0FB
:1044EC001BF80121052002F017F80121042002F02D
:1044FC0013F8BDE808400121082002F00DB800BFF8
:10450C008CE50320014B00221A70704720E6032033
:10451C0008B51F491F4801F015FB1F4A1F4B1268B5
:10452C001A601F4A1F4812685A601F4A12689A6024
:10453C001E4A1268DA601E4A12681A611D4A126815
:10454C005A611D4A12689A6101F0DAFD1B4801F0AC
:10455C00D7FD10220F211A48FFF7F2FE022319464D
:10456C000822184800F07EF8174800F033F8174876
:10457C00042100F0ADFD164B0022C3E90022A2F588
:10458C0080329A60BDE80840022000F03FBF00BFB7
:10459C00946A0B00A0E5032060E5032044E50320AA
:1045AC0098E0032028E50320A0E0032090E00320FE
:1045BC008CE0032094E003209CE0032070E50320B2
:1045CC0008E603208CE50320B0E50320E4E5032096
:1045DC0064E503204FF0FF33C360704738B50446E1
:1045EC00C0680D4608B100F09DFFA379062B0CBFE7
:1045FC000420032010FB05F080B2A08000F08AFF9D
:10460C00E06028B1A288002102F05CF9658038BD19
:10461C00A0806080FBE710B504460121C07901F051
:10462C007BFFE079002101F088FF0123237010BD8E
:10463C0037B5037805460C461BB1C079002101F053
:10464C006BFF2B78EC715BB1A0B20121019001F0F2
:10465C0063FF0198002103B0BDE8304001F06DBF4D
:10466C0003B030BD70B50025044616468371C0E911
:10467C00035505700572FFF7B1FF20463146FFF771
:10468C00D7FF204670BD0000C368002B00F0A4814A
:10469C002DE9F04F8379023BDBB2042B9CBFBF4A60
:1046AC0052F8234085B0054688BF322400F03EFD09
:1046BC002B69C01AA042F9D3B94CAE88D4F8003596
:1046CC001BB9D4F86035002B7EDBB64CD4F8003522
:1046DC0023B9D4F86035002BC0F26E81B24CD4F8FB
:1046EC000035002B00F04481EB79B04AB04C1268D5
:1046FC00190102EB0313575CAE495B78D1F8FC202F
:10470C0042F08072C1F8FC20226803F01F0343EAD8
:10471C00471301273A432260A988D5F80C80D4F8B6
:10472C0004909F40002944D04FF0000E72464FF089
:10473C00A04118F801CB0820802663689B1A462BF1
:10474C00FBD96268D1F808351CEA060F43EA070367
:10475C00C1F808352FD063689B1A282BFBD9D1F8E8
:10476C000C35013843EA07034FEA5606C1F80C35FD
:10477C00E3D1AB880EF1010E1FFA8EFE7345D8D82B
:10478C004FF4307103FB01F163689B1A462BFBD984
:10479C006368A3EB09098945C0F0E4804FF4967077
:1047AC0000F0BCFCA988D5F80C80D4F80490002942
:1047BC00BAD10A46E8E763689B1A112BCFD8636815
:1047CC009B1A112BF7D9CAE7D4F86435002BBFF626
:1047DC007CAFD4F86835002BBFF677AFD4F86C35C6
:1047EC00002BBFF672AF3601331D1846009300F054
:1047FC0091FE00283FF478AFAB88002B00F0ED80E1
:10480C00EA68013B12FA83F702F1FF3E002348F2FB
:10481C00060248F20D011EF801CF1CF0800F0CBFF0
:10482C0093468B461CF0400F0CBF16460E461CF0F0
:10483C00200F0CBF9046884603F10109CDF8088083
:10484C00019603F102081FFA89F9019E20F813B0B2
:10485C001FFA88F820F81960029E20F8186003F1FE
:10486C0003081CF0100F1FFA88F80CBF93468B46F8
:10487C0020F818B003F104081CF0080F1FFA88F890
:10488C000CBF93468B4620F818B003F105081CF0BA
:10489C00040F1FFA88F80CBF93468B4620F818B00B
:1048AC0003F1080A03F1060807339BB21CF0020F50
:1048BC001FFA88F80CBF93468B46CDF80CA01CF061
:1048CC00010F20F818B015BF20F8131020F8132092
:1048DC001FFA8AF3BDF80C3077459CD1591C023372
:1048EC0089B29BB249005B004FF400474752009AD3
:1048FC00C7522E4B56081F6800221423C4F80425F7
:10490C00C4F80C25C4F80835C4F81425C4F81025CF
:10491C00C4F82005C4F82465C4F82825C4F82C254F
:10492C00EB7907EB031C1B010121FE5C9CF80130A9
:10493C0003F01F0343EA4613C4F86035C4F80015AE
:10494C00C4F81021A160D4F81031002BFBD0002347
:10495C004FF0FF32C4F81031C4F80035C4F86025AC
:10496C0000F0E0FD00F0E2FB286105B0BDE8F08F3F
:10497C00D4F86035002BBFF6B7AED4F86435002BF5
:10498C00BFF6B2AED4F86835002BBFF6ADAED4F896
:10499C006C35002BBFF6A8AE25E700BF546B0B009F
:1049AC0000C00140001002400020024030E603200D
:1049BC00001000E000ED00E0D4F86435002BBFF6E9
:1049CC008DAED4F86835002BBFF688AED4F86C35B4
:1049DC00002BBFF683AE06E770470423022183E762
:1049EC0008B500F0B3FB014B186008BD30E603209E
:1049FC002DE9F04F85B01F46BDF93880BDF83C302D
:104A0C00A8EB0209A7EB010AB9F1000FB8BFC9F175
:104A1C000009BAF1000FB8BFCAF1000AD1458346AC
:104A2C000C46154604DD3A462C4647460D46904644
:104A3C00BC4205DD2A464546904622463C46174672
:104A4C003E1BB2B20092A8EB050282EAE271A1EB26
:104A5C00E271C6F3C03202FA86F64545B4BF0122B4
:104A6C004FF0FF32019176100292BC421CDCDBF855
:104A7C0000200393D145D2F81080C7BF29462246A7
:104A8C002A4621465846C047019A039BB61AB1B232
:104A9C0036B2002E05DA029A1544009A56182DB239
:104AAC0036B2013424B2E0E705B0BDE8F08F2DE951
:104ABC00F347BDF82C800768BDF92890CDF800802D
:104ACC000446FF6916468A461D46B8472368CDF84A
:104ADC00008009F1FF323244DF6951462B462046F3
:104AEC0012B2B8472368CDF800809F6932464B4616
:104AFC0051462046B8476B1E03EB0A012368CDF8DC
:104B0C0028809D6932464B4609B22046AC4602B01D
:104B1C00BDE8F047604737B5013B13440468BDF866
:104B2C00185001951BB2009364690B46A04703B063
:104B3C0030BD37B5BDF818500468CDE90025013BF0
:104B4C000B4464691BB2A04703B030BD2DE9F34799
:104B5C00BDF92890BDF82C80054692460C46CE181F
:104B6C00B4420BDA2B68CDF800809F6921464B4686
:104B7C00524628460134B84724B2F1E702B0BDE8EA
:104B8C00F08713B502680191B0F90E100091546AC8
:104B9C00B0F90C3000221146A04702B010BD70478E
:104BAC0030B54281C2814FF0FF320024054D426185
:104BBC000122446005600181818104610283827657
:104BCC0030BD00BF6C700B002DE9F04F2DED028B4A
:104BDC008DB007460491BDF860100591BDF86410C6
:104BEC000691B0F90C1004989DF86850814252DD82
:104BFC00B7F90E1091424EDD062111FB0504002C75
:104C0C0049DD02EBC504002C45DD03EB83030B935C
:104C1C0093B2079308339BB2089100240993052C97
:104C2C001CBF2C4B0B9A079E16BF1B1900239B5CB9
:104C3C000393049AABB20A9304FB05F313FA82F3C1
:104C4C001BB204EB020A08EE103AB0460FFA85F9D3
:104C5C000FFA8AFA039BDB072FD5012D3B681FD176
:104C6C00D3F810B0059B32B251463846D847039B57
:104C7C005B0803930A9B01369844099BB6B2B34276
:104C8C001FFA88F8E6D1089B013B013413F0FF03AF
:104C9C0064B20893C3D10DB0BDEC028BBDE8F08FAC
:104CAC00059ACDE9009218EE101AD3F824B00FFA39
:104CBC0088F24B463846D847D9E7DDE905239342BD
:104CCC00D5D0012D3B6803D1D3F810B0069BCAE7B1
:104CDC00069AE6E7686B0B0030B50A2985B00446E6
:104CEC0007D1027E638A03EBC20363820023238213
:104CFC0021E00D291FD0037E0293C38A0193838A7E
:104D0C000093B0F912200B46B0F91010FFF75CFFBE
:104D1C00207E238A00EB400103EB4103A17E1BB2F2
:104D2C000246238239B1B4F90C106FF0050505FB6E
:104D3C0000118B42D6DC012005B030BD407E70479F
:104D4C00B0F90C007047B0F90E007047F0B5457E15
:104D5C00BDF81440022D69D0032D00F09980012D6F
:104D6C006CD10589D2432A4412B2002A5DDBB0F91A
:104D7C000850954259DD0029BEBF5B181BB20021BB
:104D8C00B0F90A00CD188542C4BF431A1BB2002BE0
:104D9C004BDDC1F3C400DFF820C102EBC01211F0EF
:104DAC000701DBB20CEB02001AD0C1F10805404E32
:104DBC00EDB2AB42775D3FBFA5EB030EFF2646FA83
:104DCC000EF637401CF80260012C0CBF3E43BE436C
:104DDC00AB420CF8026028D308390B44DBB28030AC
:104DEC00072B19D9012C4FF0FF3518BF0025EDB258
:104DFC0000F180011A46083AD2B2072A01F8805C09
:104E0C0001F18001F7D8A3F10802C2F3C402013208
:104E1C0000EBC21003F007033BB1264AD25C0378C7
:104E2C00012C0CBF134393430370F0BD4589D2434F
:104E3C002A44CD180189491B12B209B2002AF4DBAD
:104E4C00B0F90A509542F0DD0029BEBF5B181BB2C9
:104E5C000021B0F90870CE18BE42C4BF6B1A1BB249
:104E6C00002BE2DDD010802510FB05111248014407
:104E7C0002F0070001228240012CD2B20B440CD16B
:104E8C008B42D2D011F8010B104301F8010CF7E75B
:104E9C00CD184189491B09B267E7D243D2B28B4284
:104EAC00C3D011F8010B104001F8010CF7E700BF5B
:104EBC00ACE00320A4E00320B4E00320F0B5457E71
:104ECC00BDF81440022D34D0032D00F09B80012D31
:104EDC0037D1D5180289521B12B20029C0F2918029
:104EEC00B0F90A508D4240F38C80002ABEBF9B184B
:104EFC001BB20022B0F90870D618BE42C4BFAB1A60
:104F0C001BB2002B7DDDC810802510FB0522454807
:104F1C00024401F0070001218140012CC9B2134465
:104F2C0075D19A426DD012F8010B084302F8010CAE
:104F3C00F7E70589C9432944D5184289521B09B2A0
:104F4C0012B200295DDBB0F908508D4259DD002A00
:104F5C00BEBF9B181BB20022B0F90A00D5188542BF
:104F6C00C4BF831A1BB2002B4BDDC2F3C400DFF8A5
:104F7C00B4C001EBC01112F00702DBB20CEB010064
:104F8C001AD0C2F10805284EEDB2AB42775D3FBF97
:104F9C00A5EB030EFF2646FA0EF637401CF801600F
:104FAC00012C0CBF3E43BE43AB420CF8016028D32E
:104FBC00083A1344DBB28030072B19D9012C4FF07F
:104FCC00FF3518BF0025EDB200F180011A46083AF2
:104FDC00D2B2072A01F8805C01F18001F7D8A3F165
:104FEC000802C2F3C402013200EBC21003F0070343
:104FFC003BB10E4AD25C0378012C0CBF1343934394
:10500C000370F0BD4589C943294409B265E7C9431A
:10501C00C9B29A42F5D012F8010B084002F8010C03
:10502C00F7E700BFB4E00320ACE00320A4E00320CA
:10503C0070470000F8B50D1E064614461F462DDBC2
:10504C00FFF77EFEA84229DD002C27DB3046FFF758
:10505C007AFEA04222DD3046FFF770FE02281ED0F9
:10506C00032825D0012804D13389E2431A442C4665
:10507C0015B2002C2246B8BFE21DD210802112FBC3
:10508C0001550E49012204F007044B5702FA04F4AF
:10509C0064B297420CBF2343A3434B55F8BD3189EF
:1050AC0072890139E4434D1B14442DB224B2E0E75C
:1050BC007389013B5B1B25461CB2DAE7B4E0032085
:1050CC0010B524210446FEF7E2FF204610BD000077
:1050DC0038B5402204460D468021FFF761FD064B92
:1050EC002360FF2384F8213063774FF6FF73E3834B
:1050FC0084F82050204638BDA4700B0008B5024B34
:10510C001B685B6C019308BD4802030008B5024B99
:10511C001B685B68019308BD1802030008B5024BBD
:10512C001B68DB68019308BD1802030008B5024B2D
:10513C001B681B69019308BD1802030008B5024BDC
:10514C001B685B69019308BD1802030008B5024B8C
:10515C001B681B68019308BD2C02030008B5024BA9
:10516C001B689B68019308BD2C02030008B5024B19
:10517C001B68DB68019308BD2C02030008B5024BC9
:10518C001B681B69019308BD2C02030008B5024B78
:10519C001B689B69019308BD2C02030008B5024BE8
:1051AC001B68DB69019308BD2C02030008B5024B98
:1051BC001B681B6A019308BD2802030008B5024B4B
:1051CC001B685B6A019308BD2802030008B5024BFB
:1051DC001B689B6A019308BD2802030008B5024BAB
:1051EC001B68DB6A019308BD2802030008B5024B5B
:1051FC001B681B6B019308BD2802030008B5024B0A
:10520C001B685B6B019308BD2802030008B5024BB9
:10521C001B681B6C019308BD2802030008B5024BE8
:10522C001B685B69019308BD6C02030008B5024B57
:10523C001B685B69019308BD6402030008B5024B4F
:10524C001B681B6A019308BD6402030008B5024B7E
:10525C001B689B6A019308BD6402030008B5024BEE
:10526C001B689B68019308BD6802030008B5024BDC
:10527C001B68DB68019308BD6802030008B5024B8C
:10528C001B689B69019308BD3802030008B5024BEB
:10529C001B68DB69019308BD3802030008B5024B9B
:1052AC001B681B6A019308BD3802030008B5024B4A
:1052BC001B689B6A019308BD3802030008B5024BBA
:1052CC001B681B6B019308BD3802030008B5024B29
:1052DC001B689B6B019308BD3802030008B5024B99
:1052EC001B68DB69019308BD3002030008B5024B53
:1052FC001B681B6A019308BD3002030008B5024B02
:10530C001B68DB68019308BD3C02030008B5024B27
:10531C001B681B69019308BD3C02030008B5024BD6
:10532C001B685B69019308BD3C02030008B5024B86
:10533C001B689B69019308BD3C02030008B5024B36
:10534C001B68DB69019308BD3C02030008B5024BE6
:10535C001B681B6A019308BD3C02030008B5024B95
:10536C001B689B6A019308BD3C02030008B5024B05
:10537C001B681B6C019308BD3C02030008B5024B73
:10538C001B681B68019308BD4C02030008B5024B57
:10539C001B685B68019308BD4C02030008B5024B07
:1053AC001B681B69019308BD4C02030008B5024B36
:1053BC001B685B69019308BD4C02030008B5024BE6
:1053CC001B689B69019308BD4C02030008B5024B96
:1053DC001B68DB69019308BD4C02030008B5024B46
:1053EC001B681B6A019308BD4C02030008B5024BF5
:1053FC001B685B6B019308BD6002030008B5024B90
:10540C001B681B6D019308BD6002030008B5024BBD
:10541C001B685B68019308BD2002030008B5034BB1
:10542C001B68D3F88830019308BD000020020300EC
:10543C0008B5034B1B68D3F89430019308BD0000EA
:10544C002002030008B5024B1B68DB6B019308BDFF
:10545C004402030008B5024B1B685B68019308BD4E
:10546C004002030008B5024B1B689B68019308BD02
:10547C004002030008B5024B1B68DB68019308BDB2
:10548C004002030008B5024B1B681B69019308BD61
:10549C004002030008B5024B1B685B69019308BD11
:1054AC004002030008B5024B1B689B69019308BDC1
:1054BC004002030008B5024B1B68DB69019308BD71
:1054CC004002030008B5024B1B681B6A019308BD20
:1054DC004002030008B5024B1B681B6B019308BD0F
:1054EC004002030008B5024B1B685B6B019308BDBF
:1054FC004002030008B5024B1B681B6C019308BDEE
:10550C004002030008B5024B1B685B6C019308BD9D
:10551C004002030008B5024B1B681B68019308BDD1
:10552C001C02030008B5024B1B685B68019308BDA5
:10553C001C02030008B5024B1B689B68019308BD55
:10554C001C02030008B5024B1B68DB6A019308BD03
:10555C001C02030008B5024B1B68DB6B019308BDF2
:10556C001C02030008B5024B1B681B6C019308BDA1
:10557C001C02030008B5024B1B685B6C019308BD51
:10558C001C02030010B58368044613B103220146C4
:10559C009847204610BD0000024800230360FFF727
:1055AC00ADBD00BF34E60320002240681146FFF772
:1055BC0089BF002240681146FFF794BF4068002263
:1055CC00FFF788BF4068002281F00101FFF772BF2E
:1055DC00002340681A461946FFF764BF0023406851
:1055EC001A461946FFF756BF002240681146FFF7CE
:1055FC0049BF002240681146FFF734BF40680022C3
:10560C000221FFF737BF002340681A46FFF722BF7D
:10561C00024B03225A60024A1A60704738E6032094
:10562C00E4700B007047F8B5064615460C468F180B
:10563C00BC4206D0336814F8011B9B68304698476F
:10564C00F6E72846F8BD007C0022FFF7AFBD007CD2
:10565C000021FFF7B3BD007C0021FFF7B7BD007C34
:10566C000021FFF7BBBD007C0021FFF7BFBD10B5CB
:10567C0014210446FEF70BFD204610BD38B5044638
:10568C0015464FF47A730022C4E90123094B2174A7
:10569C00084623602946FFF7B9FDBF3008D16B6976
:1056AC00DB0705D56868FFF73DFFE868FFF73AFFB1
:1056BC00204638BD20710B00826810B50AB900F085
:1056CC00D7FFBDE81040C36818470000F8B5104F6D
:1056DC0057F8204006460D4634B12046FFF752FFDE
:1056EC0010212046FEF7D3FC1020FEF7CCFC04461C
:1056FC0050B100238360AB6833B10222294698472E
:10570C00EB68E360AB68A36047F826402046F8BD21
:10571C0040E60320F0B587B00546039117461E46B8
:10572C00FFF73CFD03992846FFF7D0FF0446E8B18C
:10573C0000218E424FF00403ADF815108DF81710B0
:10574C008DF81430A2BF05A99DF830308DF81630B5
:10575C00009102460749A8BF8DF815603B462846C4
:10576C00FFF714FD10B1002007B0F0BD201E18BFCC
:10577C000120F9E7C5560B00704710B518210446F7
:10578C00FEF785FC204610BDF0B5037D062B8DB0D1
:10579C000E4600F104074FF0000412D000F108058A
:1057AC0015F8011D0A22304600F059F9AF420444A5
:1057BC0019D0002CF4D02E21304600F04DF90444C1
:1057CC00EEE72F236A4639460A208DF80040FFF792
:1057DC002DFD684601F0B6F833680246DB68694671
:1057EC0030469847044620460DB0F0BD10B5054B29
:1057FC000446112240F8043B002101F063F82046D6
:10580C0010BD00BF48710B000346074A10B543F8A2
:10581C00042B01F1100251F8044B43F8044B914254
:10582C00F9D10A781A7010BD48710B00037D042B56
:10583C0004D14068003818BF01207047062B07D1EF
:10584C0043683BB983682BB9C3681BB90069F1E79E
:10585C00002070470120704710B59DF8084044EABD
:10586C00032343EA024242EA0161042341600375C7
:10587C0010BD000007B5064B0360CB7800938B7806
:10588C004A780978FFF7E8FF03B05DF804FB00BF26
:10589C0048710B00014B024A1A607047D0E6032096
:1058AC0054710B00002340681A46FFF7D3BD4068C3
:1058BC0000220221FFF7DEBD002240681146FFF7EF
:1058CC00D1BD002240681146FFF7DCBD00234068C3
:1058DC001A461946FFF7DEBD002340681A461946E2
:1058EC00FFF7E0BD40680021FFF704BE40680021CF
:1058FC00FFF708BE4068002281F00101FFF7DABD16
:10590C0040680022FFF7E6BD002240681146FFF711
:10591C00E9BD002240681146FFF7D4BD2DE9F043E4
:10592C0095B014460D460746FFF760FF00211C2278
:10593C000DA8009100F0C6FF40230C9320466B4647
:10594C000CAA0021FFF792FC044600284BD102461A
:10595C0001216868FFF796FD02218046224668689F
:10596C00FFF790FD009E81462146002E3BD000297A
:10597C0039D17368022B03D00A2B11D0F669F4E7E6
:10598C00B8F1000FFAD0716906A8043107ADFFF722
:10599C0071FF0FCD3C1D0FC42B6823704146EDE702
:1059AC00B9F1000FEAD07469102201A800F08AFF47
:1059BC0006238DF8143001AD04F10803183418686F
:1059CC0059682A4603C20833A3421546F7D101A9E8
:1059DC0006A807ADFFF718FF0FCD3C1D0FC42B68B1
:1059EC0023704946CAE70098FFF738FC384615B0D3
:1059FC00BDE8F083024B034A1A6000225A607047DC
:105A0C00D4E6032060710B00F8B506460D468F18DE
:105A1C000024BD420CD0336815F8011B9B6830463E
:105A2C009847031E01DB1C44F3E7002C08BF1C46FF
:105A3C002046F8BD13B50446084659B1019100F053
:105A4C0081FF23680199DB680246204602B0BDE85D
:105A5C001040184702B010BD03689B68184730B55A
:105A6C008BB00023012A8DF8243098BF0A2209AC90
:105A7C000D46B1FBF2F101FB125303F0FF03092BAE
:105A8C0094BF30333733DBB2AA4204F8013DEFD96F
:105A9C002146FFF7CFFF0BB030BD0000014B0022B9
:105AAC009A607047DCE6032010B504460846217066
:105ABC00FFF714FC00236360204610BD10B50446AC
:105ACC00006808B1FFF72EFD0023C4E90133236001
:105ADC0010BD38B504460D4600680131FFF72AFDAC
:105AEC0010B1C4E90005012038BD10B503680446A7
:105AFC0023B143688B4201D3012010BD2046FFF730
:105B0C00E8FF0028F9D0A368002BF5D122681370A8
:105B1C00F2E737B50D46114601920446FFF7E5FF53
:105B2C00019A28B92046FFF7C9FF204603B030BDC3
:105B3C00A2602946206800F0B7FE2268A368002105
:105B4C00D154F2E7002313B5C0E900330446836057
:105B5C00037341B10846019100F0F4FE019902462D
:105B6C002046FFF7D6FF204602B010BD054B02229F
:105B7C001A60054B054A9A600020C3E90000FFF744
:105B8C0045BC00BFF8E60320ECE603200000FFFF55
:105B9C0013B503688DF80710DC6B01224FF0FF334F
:105BAC000DF10701A04702B010BD10B40368DC6B07
:105BBC004FF0FF33A4465DF8044B604713B5134612
:105BCC0002688DF80710D46B0DF107010122A04774
:105BDC0002B010BD10B54369B3F88620B3F8843019
:105BEC009A42044608D06369B3F88420511CA3F888
:105BFC0084101344187910BD03681B69984700285A
:105C0C00F1D14FF0FF30F6E7704743691868C04395
:105C1C00C00F704770470000064B994210B500F159
:105C2C000C0405D0084600F027FD002808BF00240E
:105C3C00204610BDD4700B0010B5AC210446FEF705
:105C4C0026FA204610BDAC21FEF721BA2DE9F04111
:105C5C004FF0000886B01C46C0F8048005460E467E
:105C6C0017464146102202A800F02CFE631C09D0F6
:105C7C004FF47A73B4FBF3F203FB1244CDE9022820
:105C8C005C430494686910230093006802AB41F2F2
:105C9C00050240F6FF71FFF7F1FA002807DAFFF76B
:105CAC0059FC03686B60002006B0BDE8F0816869A0
:105CBC00002300683A463146FFF700FB031EEEDB7B
:105CCC001846F1E730B587B0044601AD6846FFF7DA
:105CDC00D1FD0FCD04340FC42B68237007B030BD39
:105CEC0070B54D69054B04468C3544F8043B0646AB
:105CFC000FCD0FC42B682370304670BD48710B005C
:105D0C002DE9F0439846036893B00D460024DB6AF6
:105D1C0006461746984728466B462246214600946D
:105D2C00FFF7A4FA0546002863D1009B002B4BD04B
:105D3C005B69002B48D006A8FFF758FD009B5C69F7
:105D4C006378022B04D1211D06A8FFF7BBFF26E0C8
:105D5C000A2B24D11122294601A800F0B3FDA36817
:105D6C00002B38D004F108030DF1040C183418681A
:105D7C005968624603C20833A3429446F7D10623FE
:105D8C0001A90CA88DF81430FFF73EFD0DF1340C71
:105D9C00BCE80F0007AC0FC4DCF80030237006A879
:105DAC00FFF744FD80B1336807ADD3F82090124B58
:105DBC000C930FCD0DAC0FC42B6823703A464346A1
:105DCC000CA93046C84705460098FFF747FA284605
:105DDC0013B0BDE8F083E368002BC3D14FF6FF701E
:105DEC00D4F81090FFF72AFA8145BBD104F11401C5
:105DFC00AAE72546E8E700BF48710B0038B54369B0
:105E0C001A68002A054610DAB3F88620B3F88430F5
:105E1C009A420AD103681B699847044628B92B6833
:105E2C002846DB6A9847204638BD0120FCE710B5B0
:105E3C004369B3F88620B3F884309A42044605D0FF
:105E4C006369B3F884201344187910BD03681B6987
:105E5C0098470028F4D14FF0FF30F6E7F8B54369C6
:105E6C001746B3F88620B3F884309A4205460E469E
:105E7C0016D06969B1F88430B1F88640E41ABC4296
:105E8C0028BF3C46043322461944304600F00CFD32
:105E9C006A69B2F884302344A2F884302046F8BDF5
:105EAC0003681B6998470028E3D14FF0FF34F5E7EE
:105EBC0042690023A2F884304269A2F88630704708
:105ECC002DE9F0411F4603680C46DB6A8AB0054693
:105EDC0016469847237DD5F81480042B0CBF02205E
:105EEC000A2006220121FFF7F1F9C8F800006B69BE
:105EFC001B68002B08DA2B682846DB6A00249847BD
:105F0C0020460AB0BDE8F0812846FFF7D1FFB7B1B3
:105F1C00002303A9F8B20393ADF81030FFF77EF914
:105F2C000028E8D1686906230093006803AB41F2AE
:105F3C000B0240F6FF71FFF7A1F90028DBD11C2200
:105F4C00002103A800F0BEFC237D042B1DD14FF4CF
:105F5C0007733046ADF80C30FFF778F9ADF80E004A
:105F6C006068FFF76BF904906B691C22186803A931
:105F7C00FFF794F90028BED104340FCC6D698C3531
:105F8C000FC523682B700124BAE740F61C2330465A
:105F9C00ADF80C30FFF75AF905AEADF80E00231D25
:105FAC0004F1140718685968324603C20833BB421F
:105FBC001646F7D1D8E7000030B54269B2F8863002
:105FCC008BB004462BB1B2F884209A4201D1FFF772
:105FDC006FFF61690868002818DBB1F886507F2DC7
:105FEC0014D804310823C5F180022944FFF75EF967
:105FFC00002813DD6369B3F886200AB9A3F884205E
:10600C006369B3F886201044A3F886006369B3F87B
:10601C008600B3F88430C01A0BB030BDFFF79AFA83
:10602C0003680B2BF2D0FFF795FA03680B2BEDD01E
:10603C0020230025CDE90235FFF78CFA0368019384
:10604C00084B0949009302AA2B463220FFF7D6F9D8
:10605C0063691868FFF71AF963694FF0FF321A6029
:10606C00D4E700BF9B710B0094710B0010B5436912
:10607C0004461868002801DBFFF708F963694FF044
:10608C00FF321A606069112200218C3000F01AFC7A
:10609C002046BDE81040FFF70BBF10B500230446A7
:1060AC000160C0F884308830FFF7A0FB204610BD9B
:1060BC0073B500234FF47A72C0E901320E4A0361C2
:1060CC00026043610446AC200191FDF7DCFF051E24
:1060DC0005F10C0608D00123C5E90133074B0199E2
:1060EC002B603046FFF7D9FF2046C4E90565FFF762
:1060FC00DFFE02B070BD00BFD0710B00B4710B009D
:10610C0010B54FF0FF310446FFF7D2FF204610BD0B
:10611C0010B504460068002801DBFFF7B7F82046ED
:10612C0010BD0C30FFF7F4BF024B1A68024B1A601B
:10613C00704700BFB4E40320FCE6032070474174B1
:10614C00704708B5007CFFF709F920EAE07008BD3C
:10615C0008B5007CFFF7DAF820EAE07008BD08B556
:10616C00007CFFF7E3F840EAE07008BD08B5007C5E
:10617C00FFF7D4F840EAE07008BD007CFFF7DEB80A
:10618C0037B5457C04462DB1207C03B0BDE83040CA
:10619C00FFF7B4B8007C0191FFF7E0F800280199F3
:1061AC00F2DC284603B030BD10B514210446FDF7CF
:1061BC006EFF204610BD000010B54FF47A730446F4
:1061CC00084611460022C4E90123044B2360012335
:1061DC0020746374FFF7CAF8204610BD38720B00A8
:1061EC00417470477047704708B50021007CFFF779
:1061FC00E5F840EAE07008BD08B50121007CFFF726
:10620C00DDF840EAE07008BD08B5007CFFF7CEF879
:10621C0020EAE07008BD08B5007CFFF7BFF820EA63
:10622C00E07008BD13B50446007C0191FFF7BEF881
:10623C000028019901DC607C20B1207CFFF7C6F8B6
:10624C0020EAE07002B010BD007CFFF7C7B810B5B3
:10625C0014210446FDF71BFF204610BD10B54FF46A
:10626C007A73044608460021C4E90113044B2360E9
:10627C000123207463741146FFF780F8204610BD8B
:10628C0068720B00007C0022FFF780B810B5142256
:10629C000446002100F016FB204610BD10B50F4C33
:1062AC0088B003A8FFF7F2FF2178BFF35B8F11F0E2
:1062BC0001010FD120460191FDF7F8FE019948B17B
:1062CC0003AA0748FFF7CAFF2046FDF7F4FE05486E
:1062DC0000F0E4FA024808B010BD00BF00E703204C
:1062EC0004E70320F1610B00002240681146FFF720
:1062FC00C9B8002240681146FFF7E4B80022406894
:10630C001146FFF7EFB840680022FFF7E3B840688A
:10631C00002281F00101FFF7CDB8002340681A4636
:10632C001946FFF7BFB8002340681A461946FFF715
:10633C00B1B8002240681146FFF794B840680022BB
:10634C000221FFF797B8002340681A46FFF782B87E
:10635C00024B04225A60024A1A60704718E7032065
:10636C0098720B00014B1860704700BFB8E4032013
:10637C0008B50B4B43B1FFF791FF03681B699847B6
:10638C00002801DDAFF30080064B43B100F04AF961
:10639C0003681B699847002801DDAFF3008008BD36
:1063AC00000000000000000008B5FFF7E1FFFEF759
:1063BC00C5FE014B186008BD28E703200548064AB6
:1063CC00064908B5121A00F06FFA054B054A1A6017
:1063DC0008BD00BF00F4032004F4032084740B00F8
:1063EC0000F403201E1C279A07B5002300931A46BD
:1063FC006FF07701FFF71CF803B05DF804FB0000A9
:10640C0007B543880A2B08D0502B0BD1094B1B68BE
:10641C004BB103B05DF804EB1847FFF7E5FF03B091
:10642C005DF804FB002300931A466FF07701FEF72A
:10643C00FFFFF4E724E7032010B512480021FFF713
:10644C0099F8114B1A68114B9A42114B0CBF01224F
:10645C0000221A7001D0FFF7B1FFFEF757FE044679
:10646C0000F038FA0B4B13B12046AFF3008000213B
:10647C000848FEF7E7FFBDE8104007480021FEF78B
:10648C00CDBF00BF71630B0000F403201E1C279AC4
:10649C0020E70320000000000D640B00232813B537
:1064AC0002D9002002B010BDA0F10B03022B1AD8A8
:1064BC00174C2178BFF35B8F11F001010BD12046F3
:1064CC000191FDF7F3FD019928B11248FFF7ECFAA1
:1064DC002046FDF7F0FD0F4B1878FEF707FF00285C
:1064EC00DFD10120DEE7012809D800F05BF800219C
:1064FC00007CFEF783FE80F00100C0B2D2E70938C1
:10650C000128EED800F08EF8007CFEF71FFFF2E7B2
:10651C0024E6032028E60320232838B504460D463C
:10652C000AD8FF2908D0FFF7B9FF28B12946204621
:10653C00BDE83840FEF712BE38BD38B504460D46EE
:10654C00FEF714FEFF2810D0062804D84D2323FA9A
:10655C0000F0C30709D42046FFF7A0FF28B1294655
:10656C002046BDE83840FEF709BE38BD7047000034
:10657C0038B50A4B036001230446436108492020C7
:10658C0000F074F8202560600549A560284600F0ED
:10659C006DF8C4E90305204638BD00BF18000100A2
:1065AC00CC720B0030B50E4D2978BFF35B8F11F018
:1065BC00010487B011D12846FDF778FD68B1684613
:1065CC00FFF7D6FF6A4621460648FFF757F82846DC
:1065DC00FDF771FD044800F061F9024807B030BDC9
:1065EC002CE7032030E7032079650B00704700008F
:1065FC0038B5044614252A46002100F063F925809D
:10660C004025074925812846258200F02FF80449AA
:10661C006060284600F02AF8E060204638BD00BFD4
:10662C00CC720B0030B50E4D2978BFF35B8F11F097
:10663C00010487B011D12846FDF738FD68B101A8D7
:10664C00FFF7D6FF01AA21460648FFF7B5FD2846FD
:10665C00FDF731FD044800F021F9024807B030BDC8
:10666C0044E7032048E70320F9650B00FDF70DBD57
:10667C0008B5FEF767FF0000014900F0F9B800BF4C
:10668C00E8720B007FB500241023CDE902340368B7
:10669C0015469E6912686B46CDE90044B0479DF8DB
:1066AC00043003F00603062B03BF009B2B60012074
:1066BC00204604B070BD0098904214BF0120062003
:1066CC007047000010B5034B0360044600F0CDF892
:1066DC00204610BD28730B0010B50446FFF7F2FFDF
:1066EC0020460821FDF7D3FC204610BD2DE9F041D2
:1066FC001F46DDE90834DDF8188098450646154636
:10670C0007D1079900F0B4F818B165710020BDE805
:10671C00F0813946304600F0ABF80028F6D0012362
:10672C00C4F800802571A371F0E738B515461C46F6
:10673C0000F09EF820B10823E36006232560237146
:10674C0038BD73B505460C4601921E4600F090F814
:10675C0050B9032E08D82368019A5B692946204654
:10676C0002B0BDE87040184702B070BD10B5034BC5
:10677C0003600446FFF7A6FF204610BD88730B008C
:10678C0010B50446FFF7F2FF20460C21FDF77FFC05
:10679C00204610BDF7B5089F974205460E46144695
:1067AC000AD0A86802680897156A31462246AC469A
:1067BC0003B0BDE8F04060471946019300F058F86B
:1067CC00019B0028EDD0062003B0F0BD2DE9F14F60
:1067DC000D461946DDE90A4BDDE90CA68146174644
:1067EC00984600F045F890B1002D3460377109DB04
:1067FC0061198A450CBF06210121B171002001B03D
:10680C00BDE8F08F0235F9D10123B371F6E7544599
:10681C0006D15946484600F02BF808B17771EDE7E0
:10682C00D9F808000368CDE90CA6CDE90A4BDC6960
:10683C003A4643462946A44601B0BDE8F04F6047AE
:10684C002DE9F04107460C4615461E46FFF76DFF35
:10685C0048B9B86803689F692A4633462146BC4646
:10686C00BDE8F0416047BDE8F081704700207047FB
:10687C00814208B50ED0406803782A2B0CD04968A9
:10688C000B782A2B08BF013100F052F8B0FA80F0D7
:10689C00400908BD0120FCE70020FAE7002301466F
:1068AC001A46184600F056B80A44914200F1FF33DC
:1068BC0000D1704710B511F8014B03F8014F91420C
:1068CC00F9D110BD02440346934200D1704703F83E
:1068DC00011BF9E738B5104B1D68AB6B0446B3B917
:1068EC001820FEF717FE0246A86320B90B4B0C4884
:1068FC004221FEF737FE0B490B4BC0E900130B4B43
:10690C0083600B23838100210120C2E90401AB6B5E
:10691C0000221C615A6138BDB8E40320C1730B001E
:10692C00D8730B000E33CDAB34126DE6ECDE0500E4
:10693C0010F8012B11F8013B012A28BF9A42F7D01D
:10694C00D01A7047034613F8012B002AFBD1181AF2
:10695C00013870472DE9F843DFF8B8800646D8F8BF
:10696C0000001F460D46914600F056F8254B1C685A
:10697C0034B9254C1C60254B13B11B68C4F8883006
:10698C0063681F2B07DDD8F8000000F047F84FF0C4
:10699C00FF30BDE8F8834EB3D4F8880088B91C4B9F
:1069AC0023B9D8F8000000F038F8F0E74FF4847001
:1069BC00FEF7B0FD0028F4D00023C0E94033C4F842
:1069CC008800636840F8239001229A4000EB830111
:1069DC00D0F800311343C0F80031022EC1F880709A
:1069EC0002BFD0F804311343C0F804316368D8F8FF
:1069FC0000005A1C0233626044F8235000F00EF879
:106A0C000020C6E7E8E703205CE703200000000055
:106A1C0021550B001CE503207047704770470000A0
:106A2C001D400B0059400B0081400B0085400B00B2
:106A3C000000000043616C6C206F6E2070757265F5
:106A4C00207669727475616C004173736572746938
:106A5C006F6E4661696C757265202A705F70696E25
:106A6C00203C20283332202B20313629004E6F2039
:106A7C004368616E6765202D2043616E63656C6CA5
:106A8C00696E6720434D440A007B226F6E223A7474
:106A9C007275652C22736174223A002C2262726921
:106AAC00223A002C22687565223A007B226F6E22F6
:106ABC003A66616C73657D0053656E64696E672020
:106ACC00436F6D6D616E6420746F20487565005066
:106ADC005554202F6170692F002F6C69676874738F
:106AEC002F002F737461746520485454502F312E2D
:106AFC0031006B6565702D616C69766500486F734C
:106B0C00743A2000436F6E74656E742D4C656E671D
:106B1C0074683A2000436F6E74656E742D547970EE
:106B2C00653A20746578742F706C61696E3B63688C
:106B3C0061727365743D5554462D380046726F6D05
:106B4C0020487565000000002C01000018000000B2
:106B5C00F40100002C0100005000000000000000B7
:106B6C00003E5B4F5B3E3E6B4F6B3E1C3E7C3E1CC7
:106B7C00183C7E3C181C577D571C1C5E7F5E1C000D
:106B8C00183C1800FFE7C3E7FF0018241800FFE7C4
:106B9C00DBE7FF30483A060E2629792926407F0587
:106BAC000507407F05253F5A3CE73C5A7F3E1C1C9D
:106BBC0008081C1C3E7F14227F22145F5F005F5F5D
:106BCC0006097F017F006689956A60606060609449
:106BDC00A2FFA29408047E040810207E201008084E
:106BEC002A1C08081C2A08081E101010100C1E0C59
:106BFC001E0C30383E3830060E3E0E0600000000EB
:106C0C000000005F00000007000700147F147F14D1
:106C1C00242A7F2A12231308646236495620500016
:106C2C0008070300001C2241000041221C002A1C02
:106C3C007F1C2A08083E08080080703000080808ED
:106C4C000808000060600020100804023E5149450D
:106C5C003E00427F400072494949462141494D332B
:106C6C001814127F1027454545393C4A4949314192
:106C7C00211109073649494936464949291E000060
:106C8C0014000000403400000008142241141414B5
:106C9C001414004122140802015909063E415D59A1
:106CAC004E7C1211127C7F494949363E41414122AA
:106CBC007F4141413E7F494949417F090909013ED4
:106CCC00414151737F0808087F00417F41002040FB
:106CDC00413F017F081422417F404040407F021C0D
:106CEC00027F7F0408107F3E4141413E7F09090924
:106CFC00063E4151215E7F091929462649494932F0
:106D0C0003017F01033F4040403F1F2040201F3FB5
:106D1C004038403F6314081463030478040361593A
:106D2C00494D43007F41414102040810200041417C
:106D3C00417F040201020440404040400003070828
:106D4C000020545478407F28444438384444442824
:106D5C00384444287F385454541800087E090218CB
:106D6C00A4A49C787F0804047800447D4000204053
:106D7C00403D007F1028440000417F40007C047897
:106D8C0004787C080404783844444438FC182424DF
:106D9C001818242418FC7C0804040848545454245F
:106DAC0004043F44243C4040207C1C2040201C3CDC
:106DBC004030403C44281028444C9090907C4464D3
:106DCC00544C440008364100000077000000413666
:106DDC00080002010204023C2623263C1EA1A161EC
:106DEC00123A4040207A385454555921555579411E
:106DFC002154547841215554784020545579400CF5
:106E0C001E527212395555555939545454593955D5
:106E1C005454580000457C410002457D4200014518
:106E2C007C40F0292429F0F0282528F07C54554585
:106E3C00002054547C547C0A097F49324949493218
:106E4C003248484832324A4848303A4141217A3A2D
:106E5C0042402078009DA0A07D39444444393D40F7
:106E6C0040403D3C24FF2424487E4943662B2FFCA4
:106E7C002F2BFF0929F620C0887E09032054547952
:106E8C00410000447D413048484A32384040227A23
:106E9C00007A0A0A727D0D19317D2629292F2826A0
:106EAC002929292630484D402038080808080808A8
:106EBC000808382F10C8ACBA2F102834FA00007B01
:106ECC00000008142A142222142A1408AA005500BF
:106EDC00AAAA55AA55AA000000FF00101010FF0026
:106EEC00141414FF001010FF00FF1010F010F01419
:106EFC001414FC001414F700FF0000FF00FF14141E
:106F0C00F404FC141417101F10101F101F14141469
:106F1C001F00101010F0000000001F101010101FA8
:106F2C0010101010F010000000FF101010101010B6
:106F3C00101010FF10000000FF140000FF00FF00F5
:106F4C00001F10170000FC04F4141417101714146D
:106F5C00F404F40000FF00F714141414141414F7C0
:106F6C0000F7141414171410101F101F141414F419
:106F7C00141010F010F000001F101F0000001F1460
:106F8C00000000FC140000F010F01010FF10FF14B3
:106F9C001414FF141010101F00000000F010FFFF5D
:106FAC00FFFFFFF0F0F0F0F0FFFFFF00000000002B
:106FBC00FFFF0F0F0F0F0F38444438447C2A2A3E32
:106FCC00147E02020606027E027E0263554941636C
:106FDC003844443C04407E201E2006027E02029966
:106FEC00A5E7A5991C2A492A1C4C7201724C304AFF
:106FFC004D4D303048784830BC625A463D3E494988
:10700C0049007E0101017E2A2A2A2A2A44445F442F
:10701C004440514A444040444A51400000FF01035F
:10702C00E080FF000008086B6B0836123624360629
:10703C000F090F0600001818000000101000304057
:10704C00FF0101001F01011E00191D1712003C3C1D
:10705C003C3C0000000000000000000000000000AC
:10706C000000000000000000E54C0B00155A0B005E
:10707C00A1400B00FD490B00234B0B003F4B0B00B9
:10708C00BB4A0B00594B0B008F4B0B00AB4B0B004F
:10709C0000000000000000003D500B00CD500B0024
:1070AC00E54C0B00155A0B0041500B00FD490B0031
:1070BC00C94E0B00594D0B00BB4A0B00594B0B0032
:1070CC008F4B0B00AB4B0B000000000000000000CE
:1070DC00000000000000000013560B0009560B00C6
:1070EC00FF550B00F5550B00E9550B00DD550B005A
:1070FC00F1580B00F9580B00D1550B00C9550B007A
:10710C00BF550B00B5550B0029590B0000000000B2
:10711C000000000031560B007B560B0053560B0041
:10712C0033560B005B560B0063560B006B560B0073
:10713C0073560B00000000000000000095570B0078
:10714C0085570B0087570B00617070000000000022
:10715C0000000000B1580B00BB580B00C5580B00C9
:10716C00CF580B00D9580B00E5580B00F1580B0009
:10717C00F9580B0001590B000D590B0015590B0058
:10718C001F590B0029590B00776972696E670072E1
:10719C00656376206572726F72203D202564000055
:1071AC000000000000000000215C0B00455C0B009F
:1071BC002F610B00535C0B00255C0B0000000000E2
:1071CC000000000005430B0039430B009D5B0B00D6
:1071DC00B75B0B00C55F0B00E15B0B003B5E0B006C
:1071EC00155C0B00CD5E0B000D5D0B00695E0B009A
:1071FC0079600B00095E0B00175C0B00C95B0B0080
:10720C00595C0B00ED5C0B0025592D256D2D25646B
:10721C005425483A254D3A2553257A0061736374F9
:10722C00696D6500000000000000000049610B0062
:10723C00B5610B008D610B00155A0B005D610B00E5
:10724C0079610B006B610B0087610B004B610B00CC
:10725C004F610B000000000000000000F3610B0008
:10726C005B620B0031620B00155A0B0023620B00A2
:10727C00F5610B0005620B0055620B0015620B00EB
:10728C00ED610B00000000000000000053630B00D8
:10729C0049630B003F630B00F5620B0033630B007B
:1072AC0027630B00F1580B00F9580B001B630B0004
:1072BC0013630B0009630B00FF620B0029590B00D1
:1072CC0000537431395F53705F6D616B655F736828
:1072DC00617265645F7461670000000028730B00C5
:1072EC00CD720B0088730B00FC720B00AC730B009F
:1072FC004E31305F5F637878616269763131375F28
:10730C005F636C6173735F747970655F696E666FD0
:10731C004500000000000000F0720B00D1660B006D
:10732C00E5660B0079680B0079680B004F670B0062
:10733C0091660B0037670B00F9660B00C3660B00F8
:10734C0088730B0058730B00F0720B004E31305FDA
:10735C005F637878616269763132305F5F73695F41
:10736C00636C6173735F747970655F696E666F458A
:10737C0000000000000000004C730B0079670B004C
:10738C008D670B0079680B0079680B004F670B0059
:10739C0091660B004D680B00D9670B00A1670B00C1
:1073AC0028730B00B4730B00537439747970655FD8
:1073BC00696E666F005245454E54206D616C6C6F62
:1073CC006320737563636565646564002F746D7009
:1073DC002F6A656E6B696E732D4743432D31302DCB
:1073EC00706970656C696E652D34385F323032307F
:1073FC00313132345F313630363138303633392F23
:10740C007372632F6E65776C69622F6E65776C692A
:10741C00622F6C6962632F7374646C69622F726182
:10742C006E642E63000000001D450B00ED490B003F
:10743C00A5550B001D560B00A1580B00015A0B0053
:10744C00A95A0B00795B0B0035610B005D630B00D7
:04745C00000000002C
:10746000040000001400000003000000474E550017
:10747000C401ABAEB867579AB468969D62F97D6552
:04748000CB23DFBE7D
:047484000000000004
:10748800C8AF0000E45700008CB900008813000062
:1074980050C3000010270000000103070F1F3F7FA3
:1074A8000080C0E0F0F8FCFE0000000000000000D2
:1074B80000000000000000000000000000000000C4
:1074C80000000000000000000000000000000000B4
:1074D80000000000000000000000000000000000A4
:1074E8000000000000000080808000000000000014
:1074F8000000000000000000008080C0C000000004
:107508000000000000000000000000000000000073
:107518000000000000000000000000000000000063
:107528000000000000000000000000000000000053
:1075380000000000000000000000000080C0E0F033
:10754800F8FCF8E000000000000000000000000067
:1075580000000000008080808080008080000000A3
:1075680000808080808000FFFFFF00000000808096
:10757800808000008080000080FFFF808000808085
:1075880000808080800080800000000000808000F3
:10759800008C8E84000080F8F8F88000000000005D
:1075A8000000000000000000F0F0F0F0F0F0F0F053
:1075B800F0F0F0F0E0E0C08000E0FCFEFFFFFF7FAD
:1075C800FFFFFFFFFF0000000000000000000000B8
:1075D800000000FEFFC70101010183FFFF00007CDE
:1075E800FEC70101010183FFFFFF0038FEC78301C9
:1075F800010183C7FFFF000001FFFF010100FFFF3A
:107608000701010100007FFF80000000FFFF7F00ED
:1076180000FFFFFF000001FFFFFF01000000000066
:107628000000000000000000030F3F7F7FFFFFFF06
:10763800FFFFFFFFE7C7C78F8F9FBFFFFFC3C0F0E4
:10764800FFFFFFFFFFFCFCFCFCFCFCFCFCF8F8F077
:10765800F0E0C0000103030303030103030000007B
:1076680000010303030301010301000000010303F8
:1076780003030101030300000003030000000303E8
:1076880000000000000000010303030303010000E1
:1076980000010301000000030301000000000000D6
:1076A800000000000000000000000080C0E0F0F9C9
:1076B800FFFFFFFFFF3F1F0F87C7F7FFFF1F1F3D9C
:1076C800FCF8F8F8F87C7DFFFFFFFFFFFFFFFF7F66
:1076D8003F0F0700303000000000000000000000ED
:1076E800000000000000000000000000FEFEFC009A
:1076F8000000000000000000000000000000000082
:107708000000000000E0C0000000000000000000D1
:107718000000303000000000000000000000000001
:10772800000000000000000000C0FEFFFFFFFFFF98
:10773800FFFFFFFF7F7F3F1F0F071F7FFFFFF8F847
:10774800FFFFFFFFFFFEF8E000000001000000005F
:1077580000000000FEFE000000FCFEFC0C06060E09
:10776800FCF80000F0F81C0E0606060CFFFFFF00F0
:1077780000FEFE00000000FCFEFC00183C7E66E6F1
:10778800CE84000006FFFF0606FCFEFC0C0606067B
:107798000000FEFE0000C0F8FC4E4646464E7C78CF
:1077A80040183C76E6CECC800000000000000000C7
:1077B80000000000000000000000000001070F1F8B
:1077C8001F3F3F3F3F1F0F03000000000000000065
:1077D800000000000F0F0000000F0F0F0000000056
:1077E8000F0F000003070E0C18180C060F0F0F00E0
:1077F80000010F0E0C180C0F070100040E0C180CDA
:107808000F070000000F0F00000F0F0F000000000F
:1078180000000F0F00000007070C0C181C0C0606D0
:1078280000040E0C180C0F070000000000000000F8
:107838000000000000000000000000000000000040
:107848000000000000000000000000000000000030
:107858000000000000000000000000000000000020
:107868000000000000000000000000000000000010
:107878000000000000000000000000000000000000
:1078880000000000000000000000000000000000F0
:1078980000000000000000000000000000000000E0
:1078A800000000000000000028720B00BCE4032068
:1078B80000000000000000000000000000000000C0
:1078C80000000000000000000000000000000000B0
:1078D80000000000000000000000000000000000A0
:1078E8000000000000000000000000000000000090
:1078F8000000000000000000000000000000000080
:10790800000000000000000000000000000000006F
:04791800ECE7032075
:10791C00FFFFFFFF00000102030405060708090A28
:10792C000B0C0D0E0F101112131415161718191A23
:08793C001B1C1D1E1F2028006A
:04794400785634122B
:04000003B000401CED
:00000001FF
