:02000002B0004C
:1040000000400B0008A30B00000006000C00050296
:084010000401A60F00000000EE
:04401800748C0B0099
:1040200009480A49884208B505D0094A824202D0A7
:10403000121A04F05BFD0748074A0021121A04F027
:1040400063FD014808BD00BFB8DE0320C89C0B001B
:10405000D0E40320D0E40320EDE7032070B5074E41
:10406000074C03F0C9FEA41BA4080025AC4200D1F4
:1040700070BD56F8043B98470135F7E7749C0B0078
:104080009C9C0B0000F03CBC08B500F05DFFBDE857
:10409000084003F069BE02F0B1BC02F0AFBC02F010
:1040A000B5BC000008B5034A03490C2002F002FC2D
:1040B000FEE700BFD5640B00888C0B000078B0FAD7
:1040C00080F0400970470123037070472F2810B516
:1040D00004460DD9094A0A490A2002F0EBFB094BB4
:1040E00004F01F04D3F81005E04000F0010010BDFB
:1040F0001F28F4D84FF0A043F4E700BFD5640B00AD
:104100009D8C0B00000300502DE9F843DFF82C8153
:10411000876898F80030484DBFF35B8F13F0010FAC
:10412000044609D14046FFF7C9FF28B102F0EAF979
:1041300028604046FFF7C7FFBFB22B683F01DE5D36
:1041400098F80030BFF35B8FD9074FEA461909D4BE
:104150003A48FFF7B3FF28B102F0D4F92860374896
:10416000FFF7B1FF2B683B445E7806F01F0646EA76
:1041700009063046FFF7AAFF3046FFF7A7FFE768BA
:1041800098F80030BFF35B8FDA07C6B209D42B482A
:10419000FFF794FF28B102F0B5F928602748FFF730
:1041A00092FFBFB22B683F0113F8079098F80030D8
:1041B000BFF35B8FDB074FEA491909D41F48FFF7AC
:1041C0007DFF28B102F09EF928601C48FFF77BFFB5
:1041D0002B681F447D7805F01F0545EA0905284630
:1041E000FFF774FF2846FFF771FF237CC0B203F08E
:1041F00003030EB143F0040308B143F008039A0827
:10420000013B22740D2B0BD8DFE803F0070C0F0CD9
:104210000A120707120A0C0F0C0763690133636166
:10422000BDE8F8836369013BF9E763690233F6E7A8
:104230006369023BF3E700BFD4E40320D0E403202A
:1042400070B50C1E064615460BDA0A2A09D12D2137
:1042500002F0D4FE6142EAB23046BDE8704002F09E
:10426000E6BE2146F7E710B403685A6899681B68F0
:10427000541001EB6200D20748BF0A595DF8044BA5
:1042800048BFD3581847012A38B5044602D10B68F5
:10429000236003E0022A03D0032A0DD0002038BD9A
:1042A0000C200D68FFF7F7FE03460028F0D095E8D4
:1042B000070083E80700EBE700680028EED00C2138
:1042C000FFF7EDFEEAE70000F0B58DB002AD85E83E
:1042D0000600064695E8030005AC84E805001F4685
:1042E0000C2000230A93FFF7D6FE024620B194E883
:1042F000030082E8030097600B4B0B930B4B0A9370
:104300009DF85030089200939DF848209DF94C305C
:1043100008A9304602F0C8FC0A9B1BB108A9032279
:10432000084698470DB0F0BD67420B0087420B006E
:104330000EB403B503AB002153F8042B019302F034
:1043400094FE02B05DF804EB03B0704738B58469A1
:104350000A4B036005467CB16368013B63605BB94F
:10436000236820469B689847A368013BA3601BB95C
:1043700023682046DB689847284638BD109A0B0012
:1043800010B50446FFF7E2FF20461C21FFF787FE29
:10439000204610BD2DE9F0418CB005460F46684619
:1043A0007749DDF8488014461E4602F0CAFFDFF860
:1043B00028E27449DEF800307348744ADFF81CC202
:1043C000AB4219D10B68BB4216D10368A34213D18B
:1043D0001368B34210D1DCF8003043450CD103F030
:1043E000F1FB6B49FFF7A4FF0024684602F05EFF73
:1043F00020460CB0BDE8F081CEF800500F6004609C
:104400001660CCF80080002F00F0B5806149684646
:1044100002F0C5FF694608A802F0B6FF0A2241462D
:1044200004A802F0CEFF04A908A803F012F85A4924
:1044300003F01BF80146684602F097FF04A802F05B
:1044400035FF08A802F032FF694608A802F09CFF79
:104450000A22314604A802F0B4FF04A908A802F019
:10446000F8FF4E4903F001F80146684602F07DFF6F
:1044700004A802F01BFF08A802F018FF694608A86C
:1044800002F082FF0A22214604A802F09AFF04A942
:1044900008A802F0DEFF424902F0E7FF0146684645
:1044A00002F063FF04A802F001FF08A802F0FEFE7C
:1044B0003C493D480023502203F0B6F8044600284A
:1044C00093D003F07FFB394902F0A7FD03F07AFB9C
:1044D000009902F0A2FD3649334802F08BFD3549C0
:1044E000314802F087FD34492F4802F083FD0A224B
:1044F0002D482946FFF7A4FE30492B4802F08DFDD8
:104500002F49294802F089FD2E49274802F072FD03
:104510002449254802F081FD2B49234802F06AFD19
:104520000A220299204802F082FD1F4802F069FD2C
:1045300026491D4802F071FD1B4802F062FD0099FA
:10454000194802F06AFD03F03DFB214902F065FDC8
:1045500003F038FB1449044608A802F093FE0899BA
:10456000204602F05AFD08A802F0A0FE0E4803F013
:1045700011FA012439E71749684602F010FF97E75E
:10458000788F0B0050E5032058E5032048E5032011
:10459000C18C0B00DD8C0B00EF8C0B00F78C0B003B
:1045A0000A8D0B0043910B00D8E403200C8D0B0007
:1045B000238D0B001A910B002D8D0B00368D0B00F7
:1045C0005F8F0B00468D0B004D8D0B005E8D0B0039
:1045D000858D0B00FF8C0B004CE5032054E5032078
:1045E0001FB525490446684602F0ABFE03F0EAFA1F
:1045F00022462249FFF79CFE2149684602F00BFF44
:10460000204A2149128851F824102048002303F041
:104610000BF828B31E491D4802F0FFFC1D491B483A
:1046200002F0FBFC1C49194802F0F7FC1B49174833
:1046300002F0F3FC1A49154802F0DCFC0299134819
:104640000A2202F0F4FC114802F0DBFC0F4802F0F1
:10465000D8FC00990D4802F0CDFC0C4802F0D1FCCA
:104660000A4803F05FF810B1084803F093F9684670
:1046700002F01CFE04B010BD788F0B008E8D0B0075
:104680009C8D0B0050E003203CE0032020E503203C
:10469000C88E0B00F08E0B00168F0B00538F0B0093
:1046A0004D8D0B001FB525490446684602F049FEB2
:1046B00003F088FA22462249FFF73AFE214968466C
:1046C00002F0A9FE204A2149128851F824102048FE
:1046D000002302F0A9FF28B31E491D4802F09DFCEB
:1046E0001D491B4802F099FC1C49194802F095FC31
:1046F0001B49174802F091FC1A49154802F07AFC50
:10470000029913480A2202F092FC114802F079FC47
:104710000F4802F076FC00990D4802F06BFC0C4843
:1047200002F06FFC0A4802F0FDFF10B1084803F0E8
:1047300031F9684602F0BAFD04B010BD788F0B0065
:104740006A8F0B00798F0B0050E003203CE00320C0
:1047500020E50320C88E0B00F08E0B00168F0B0097
:10476000538F0B004D8D0B0010B5044601F0C2FEB7
:104770002368C01A6368984234BF0020012010BD2E
:104780002DE9F04F0F460446164689B002213846FF
:1047900003F0A2FB0221304603F09EFBDFF858B184
:1047A000E6600023C4E90137236063614FF4FA60D7
:1047B00001F090FED4F808A09BF800304D4DBFF3F7
:1047C0005B8F13F0010F09D15846FFF777FC28B132
:1047D00001F098FE28605846FFF775FC1FFA8AFA28
:1047E0002B684FEA0A1A13F80A809BF80030BFF3CF
:1047F0005B8FD9074FEA481909D43F48FFF75EFCA1
:1048000028B101F07FFE28603B48FFF75CFC2B6875
:10481000534493F8018008F01F0848EA090840460D
:10482000FFF754FC4046FFF751FCD4F80CA09BF86E
:104830000030BFF35B8FB0F1000818BF4FF00108E4
:10484000DA0709D42C48FFF739FC28B101F05AFEE9
:1048500028602948FFF737FC1FFA8AFA2B684FEACD
:104860000A1A13F80A909BF80030BFF35B8FDB073E
:104870004FEA491909D42048FFF720FC28B101F07C
:1048800041FE28601C48FFF71EFC2B689A449AF8EA
:10489000015005F01F0545EA09052846FFF716FCFB
:1048A0002846FFF713FC08B148F00208DFF84C90E7
:1048B00084F8108000254FF0FF3823462A464946E9
:1048C0003846CDE900580295CDF810900595FFF7D0
:1048D000FBFCCDE90695CDE90185009508AA304697
:1048E00012E906002346FFF7EFFC204609B0BDE8B9
:1048F000F08F00BFD4E40320D0E4032009410B0073
:1049000030B599B003F05EF92F4D4FF4165103F016
:104910004DF900231A461946686802F027F8382234
:1049200000210AA804F0F0F84C230593274B0693C6
:1049300000240A23CDE9073405AA234621466868E6
:10494000099402F033F8234668682246214601F0B4
:10495000EDFF3C221E48022101F05AFA21461C4874
:1049600000F09DFF1A4801F087F9012540232246F7
:10497000CDE9013500932021164B154800F07EFE4D
:10498000134801F0D5F97621134800F033FD1348A0
:1049900001F033FB114801F069FB0221062003F00E
:1049A0009BFA2946052003F097FA2946042003F0D4
:1049B00093FA0221072003F08FFA2146122019B042
:1049C000BDE8304003F088BA18E70320A5900B003B
:1049D000E0E503204F910B00ACE5032068E50320E0
:1049E00038B5354A3548364C002101F0EBFC324AE7
:1049F0003248012101F0E6FC2368002B4FD101F081
:104A000079FD304B6422186020212C485A6001F057
:104A10001CFD2A4801F02AFB01232360294D28466A
:104A2000FFF7A2FE00283CD001F064FD322328608D
:104A3000962122486B6001F008FD204801F016FB2A
:104A4000022323601F4D2846FFF78EFE60B301F05E
:104A500051FD962328604B2118486B6001F0F5FC4E
:104A6000164801F003FB03232360164D2846FFF789
:104A70007BFEE0B101F03EFD64232860A0210F48D9
:104A80006B6001F0E2FC0D4801F0F0FA04232360B2
:104A90000C48FFF769FE68B1002323600AE0012B90
:104AA000BCD02368022BCDD02368032BDDD0236834
:104AB000042BEDD038BD00BF00A5FF0068E5032042
:104AC0003CE5032060E5032073B570B9414D012436
:104AD000FA26009620462A68FA2301210134FFF7BE
:104AE00059FC072CF5D102B070BD0B280FD1002066
:104AF000FFF776FD0120FFF773FD0220FFF770FD41
:104B00000320FFF76DFD0420FFF76AFDEBE70D289A
:104B10000DD1314D0124FA26009620462A68FA2349
:104B200001210134FFF736FC072CF5D1DBE7122811
:104B30000DD12A4D0124FA26009620462A68FA2330
:104B400001210134FFF726FC072CF5D1CBE71D2806
:104B50000DD1234D0124FA26009620462A68FA2317
:104B600001210134FFF716FC072CF5D1BBE71F2804
:104B700011D10020FFF796FD0120FFF793FD0220E1
:104B8000FFF790FD0320FFF78DFD042002B0BDE884
:104B90007040FFF787BD22280DD1124D0124FA265F
:104BA000009620462A68FA2301210134FFF7F2FB20
:104BB000072CF5D197E7272895D10124002500235C
:104BC000204600951A4619460134FFF7E3FB072CEF
:104BD000F5D188E7C4DE0320B8DE0320BCDE032065
:104BE00010E50320C8DE032073B52D4D02F08EF8CA
:104BF0006C6902F08DF8002C4CDA02F087F8602422
:104C00006C6102F085F827230093002319462046A3
:104C1000244D254E602201F031FF2B68834204466B
:104C200008D001F067FC214B4FF4FA7218605A600B
:104C30000123337033782C6053B31C48FFF794FD85
:104C400030B31B4D02F0BEFF04EBC4031D442A46E3
:104C50001849FFF76DFB184801F00EF816480221BD
:104C600000F013FE1448012100F014FE1248142233
:104C7000202100F007FE11490F482A46FFF758FB94
:104C80000D4801F055F82046FFF71EFF0023337052
:104C900002B070BD602CB6DD02F038F80024AFE73A
:104CA00004E6032044E5032041E50320A0E50320BA
:104CB000D1DE0320B0900B00E0E50320B4900B00A0
:104CC000F0B54348434C444E444D85B000F064FB7E
:104CD00010EE100A03F072FC3BA3D3E9002303F0AB
:104CE000C5FC3F4B002203F00BFB03F0D1FE01217A
:104CF00020603C4800F0C9FD3A48012100F0CAFD9F
:104D000038483622052100F0BDFD22683649354875
:104D1000F823FFF70DFB334801F00AF80A230021BE
:104D2000CDE90031362228232E4800F069FC2268A4
:104D300033689A420CD02B7853B901F0DBFB2B4B34
:104D400042F2107218605A602368336001232B709E
:104D500033682268043B93422ADD2B787BB32348D7
:104D6000FFF702FD20B302F02DFF2149214EFFF78E
:104D7000DFFA1C4800F080FF01244023CDE9013414
:104D80001848009300221C4B202100F077FC1548A6
:104D900000F0CEFFFA270097204632683223012127
:104DA0000134FFF7F7FA072CF5D100232B7006E04A
:104DB0002B7823B10D48FFF7D7FC0028F5D105B0BB
:104DC000F0BD00BFAFF30080CDCCCCCCCCCCFC3F51
:104DD000ACE503207CE50320A8E503205CE5032087
:104DE00000004040E0E50320B7900B001CE60320E4
:104DF000C1900B00B8DE03204F910B0073B51A4D24
:104E00002B7843B101F076FB184B4FF4FA7218601F
:104E10005A6000232B701548FFF7A6FC90B10024C0
:104E200026462046FFF73EFC0134002300961A4632
:104E300019462046FFF7AEFA062CF2D101232B705B
:104E400002B070BD0A4D0446FA262046FFF7C8FBA3
:104E5000013400962A68FA2301212046FFF79AFAC6
:104E6000062CF2D1ECE700BFD0DE032080E5032062
:104E7000C4DE03207FB5122003F06BF8044602F075
:104E8000A1FE2A492A4D2246FFF752FAB4F5FA6FDD
:104E900047DD2E7816BB274801F0FEFA96212548FB
:104EA00001F0D3FA234801F0E1F801F023FB224B93
:104EB0004FF47A62186021485A60012400F0DCFE49
:104EC0004023CDE901341D48009332461C4B20217C
:104ED00000F0D4FB194800F02BFF2C70FFF78EFF79
:104EE0002B780BB31448FFF73FFCE8B1114801F0F1
:104EF000D3FA1048002101F0A8FA0E4801F0B6F8E4
:104F0000002426462046FFF7CDFB013400230096FF
:104F10001A4619462046FFF73DFA062C2E70F1D1AD
:104F200002E02B78002BD9D104B070BDD5900B00D6
:104F300040E5032068E5032088E50320E0E5032041
:104F40004F910B000000000037B5FF21052002F053
:104F5000D4FF072002F0EAFF044660B17E2104205E
:104F600002F0CBFFFFF7ACFEFFF73EFE03B0BDE85B
:104F70003040FFF77FBF0146042002F0BEFF20480B
:104F8000204D00F009FA10EE100A03F017FB1AA3E7
:104F9000D3E9002303F06AFB1B4B002203F0B0F9B6
:104FA00003F076FD01212860184800F06EFC1748D8
:104FB000012100F06FFC15483622052100F062FC4B
:104FC0002A6813491148F823FFF7B2F90F4800F097
:104FD000AFFE0A230D480093362228232146019470
:104FE00000F00EFBFFF700FE03B0BDE83040FFF716
:104FF000F7BC00BFAFF30080CDCCCCCCCCCCFC3F19
:10500000ACE503207CE5032000004040E0E5032000
:10501000B7900B0008B51F491F4802F092F91F4ACC
:105020001F4B12681A601F4A1F4812685A601F4AB5
:1050300012689A601E4A1268DA601E4A12681A6183
:105040001D4A12685A611D4A12689A6102F0ECFC0E
:105050001B4802F0E9FC10220F211A48FFF790FBD1
:1050600002231A461946184800F0EEFF174800F0D0
:1050700033F81748032100F0E9FD164B0022C3E97D
:105080000022A2F580329A60BDE80840032001F0BA
:1050900021BC00BF788F0B0090E5032010E50320B2
:1050A000F4E40320C4DE0320D8E40320CCDE032094
:1050B000BCDE0320B8DE0320C0DE0320C8DE0320F0
:1050C00020E5032004E6032068E50320ACE5032087
:1050D000E0E5032014E503204FF0FF33C360704781
:1050E00013B50B4C2178BFF35B8F11F001010BD18D
:1050F00020460191FEF7E2FF019928B1054801F031
:10510000F1FF2046FEF7DFFF024802B010BD00BFEE
:1051100024E6032028E603202DE9F04190F90F3022
:10512000013305460F4606D1FFF7DAFF3946BDE8E1
:10513000F04102F08BB802F045FD154901F06DFF1A
:10514000002407264FF0010895F90F00002180B2D6
:1051500002F0D3FE95F90D0008FA06F1394080B24D
:1051600002F0CBFE95F90F00012180B202F0C5FEDE
:1051700095F90E00640080B2E4B202F0D7FE08B1E7
:1051800044F00104013EDFD22046BDE8F08100BFBB
:105190004F930B0070B5044690F90C00431C0E466B
:1051A000154616D102F02AFF217801F041FD02F0E8
:1051B00025FF036831469B68984702F01FFF03688C
:1051C00029469B68984702F019FFBDE8704001F03E
:1051D0003ABD002180B202F090FE06F07F01204629
:1051E000FFF79AFF29462046FFF796FF94F90C0037
:1051F0000121BDE8704080B202F07FBE38B50446A0
:1052000090F90C00431C0D4620D102F0F7FE2178E6
:1052100001F00EFD02F0F2FE036829469B689847F4
:1052200002F0ECFE01F00FFD02F0E8FE2178012211
:1052300001F0FBFC02F0E2FE03685B699847C5B22F
:1052400002F0DCFE01F0FFFC284638BD002180B2F0
:1052500002F053FE45F080012046FFF75DFF00217C
:105260002046FFF759FF054694F90C00012180B252
:1052700002F043FEE8E738B5054690F90C00431C00
:105280000C4628D102F0BAFE297801F0D1FC02F0D8
:10529000B5FE036821469B68984702F0AFFE01F017
:1052A000D2FC02F0ABFE2978022201F0BEFC02F033
:1052B000A5FE03685B699847044602F09FFE0368F9
:1052C0005B69984740EA042084B202F097FE01F03F
:1052D000BAFC204638BD002180B202F00EFE44F038
:1052E00080012846FFF718FF00212846FFF714FF2A
:1052F000002104462846FFF70FFF40EA042495F9F1
:105300000C00012180B2A4B202F0F7FDE1E708B57C
:10531000FFF7B1FF40BA80B208BD10B5882104463E
:10532000FFF7F5FF8A2120822046FFF7F0FF8C214E
:1053300060822046FFF7EBFF8E21A0822046FFF718
:10534000E6FF9021E0822046FFF7E1FF92212083D3
:105350002046FFF7DCFF942160832046FFF7D7FF4C
:105360009621A0832046FFF7D2FF9821E0832046B4
:10537000FFF7CDFF9A2120842046FFF7C8FF9C212C
:1053800060842046FFF7C3FF9E21A0842046FFF7DC
:10539000BEFFE08410BD000038B5FA210446FFF7D7
:1053A0006AFFFC2105022046FFF728FF238AB4F993
:1053B00012109FED0F0A2843C3EB20225B00C3EBC2
:1053C000E013594302FB02F3B4F914201B135343B7
:1053D0009B1303EBE123A36003EB830380331B12D6
:1053E00007EE903AF8EEE77A87EE800A38BD00BF04
:1053F0000000C84210B50446017090F90C00431C2F
:1054000018D102F0DFFB244901F007FE02F0F6FD9F
:1054100001F0DCFBD0212046FFF7F0FE582839D1FF
:105420002046FFF77AFF20463F22F421FFF7B2FE25
:10543000012010BD012180B202F05FFD94F90C0043
:10544000012180B202F048FD94F90F30013309D1F7
:1054500002F0B8FB114901F0E0FDFFF741FE01F059
:105460004BFED7E702F0AEFB0D4901F0D6FD94F9F3
:105470000F00012180B202F02FFD94F90D000121EF
:1054800080B202F029FD94F90E00002180B202F0F2
:1054900023FDBFE70020CCE75C930B0066930B0075
:1054A00079930B002DE9F04F85B01F46BDF9388088
:1054B000BDF83C30A8EB0209A7EB010AB9F1000FD7
:1054C000B8BFC9F10009BAF1000FB8BFCAF1000AAC
:1054D000D14583460C46154604DD3A462C464746E0
:1054E0000D469046BC4205DD2A464546904622467A
:1054F0003C4617463E1BB2B20092A8EB050282EA78
:10550000E271A1EBE271C6F3C03202FA86F64545BC
:10551000B4BF01224FF0FF32019176100292BC42DB
:105520001CDCDBF800200393D145D2F81080C7BF04
:10553000294622462A4621465846C047019A039BDF
:10554000B61AB1B236B2002E05DA029A1544009AA4
:1055500056182DB236B2013424B2E0E705B0BDE8EA
:10556000F08F2DE9F347BDF82C800768BDF928902E
:10557000CDF800800446FF6916468A461D46B847A6
:105580002368CDF8008009F1FF323244DF695146CB
:105590002B46204612B2B8472368CDF800809F6999
:1055A00032464B4651462046B8476B1E03EB0A0174
:1055B0002368CDF828809D6932464B4609B22046C3
:1055C000AC4602B0BDE8F047604737B5013B134435
:1055D0000468BDF8185001951BB2009364690B462E
:1055E000A04703B030BD37B5BDF818500468CDE909
:1055F0000025013B0B4464691BB2A04703B030BDDA
:105600002DE9F347BDF92890BDF82C800546924658
:105610000C46CE18B4420BDA2B68CDF800809F6997
:1056200021464B46524628460134B84724B2F1E79A
:1056300002B0BDE8F08713B502680191B0F90E1011
:105640000091546AB0F90C3000221146A04702B014
:1056500010BD704730B54281C2814FF0FF32002447
:10566000054D426101224460056001818181046130
:105670000283827630BD00BF90980B002DE9F04F79
:1056800089B0CDE90323BDF94870BDF94C300593CD
:10569000FA1DCDE9010148BF07F10E020024BDF853
:1056A00050304FEAE20B25464FF0800905992AB2A7
:1056B00091422ADD049A02EB040A039A2A444FF02D
:1056C000000812B20FFA88F087421FFA88F119DD3C
:1056D000C0101AF800C001F0070049FA00F01CEAF7
:1056E000000F0CD002980144019800680069CDE9D0
:1056F0000623064609B20198B047DDE9062308F102
:105700000108DFE701355C44D0E709B0BDE8F08F60
:105710002DE9F04F2DED028B8DB007460491BDF8B9
:1057200060100591BDF864100691B0F90C10049852
:105730009DF86850814252DDB7F90E1091424EDD5E
:10574000062111FB0504002C49DD02EBC504002CE9
:1057500045DD03EB83030B9393B2079308339BB2AE
:10576000089100240993052C1CBF2C4B0B9A079E13
:1057700016BF1B1900239B5C0393049AABB20A93D8
:1057800004FB05F313FA82F31BB204EB020A08EEE2
:10579000103AB0460FFA85F90FFA8AFA039BDB0735
:1057A0002FD5012D3B681FD1D3F810B0059B32B225
:1057B00051463846D847039B5B0803930A9B013642
:1057C0009844099BB6B2B3421FFA88F8E6D1089B09
:1057D000013B013413F0FF0364B20893C3D10DB051
:1057E000BDEC028BBDE8F08F059ACDE9009218EE72
:1057F000101AD3F824B00FFA88F24B463846D8472F
:10580000D9E7DDE905239342D5D0012D3B6803D1CB
:10581000D3F810B0069BCAE7069AE6E78C930B0014
:1058200030B50A2985B0044607D1027E638A03EBAE
:10583000C20363820023238221E00D291FD0037E4F
:105840000293C38A0193838A0093B0F912200B4616
:10585000B0F91010FFF75CFF207E238A00EB4001B7
:1058600003EB4103A17E1BB20246238239B1B4F996
:105870000C106FF0050505FB00118B42D6DC0120F2
:1058800005B030BD018242827047012938BF012135
:1058900001767047C18281827047407E704701F077
:1058A0000303B0F90A204376C907B0F9083059BF9D
:1058B0008381C2818281C3817047B0F90C00704737
:1058C000B0F90E0070470000F0B5457EBDF81440F9
:1058D000022D69D0032D00F09980012D6CD105892E
:1058E000D2432A4412B2002A5DDBB0F90850954237
:1058F00059DD0029BEBF5B181BB20021B0F90A00B8
:10590000CD188542C4BF431A1BB2002B4BDDC1F337
:10591000C400DFF820C102EBC01211F00701DBB2B6
:105920000CEB02001AD0C1F10805404EEDB2AB42BB
:10593000775D3FBFA5EB030EFF2646FA0EF6374014
:105940001CF80260012C0CBF3E43BE43AB420CF876
:10595000026028D308390B44DBB28030072B19D9F9
:10596000012C4FF0FF3518BF0025EDB200F180018A
:105970001A46083AD2B2072A01F8805C01F1800188
:10598000F7D8A3F10802C2F3C402013200EBC2103F
:1059900003F007033BB1264AD25C0378012C0CBF0D
:1059A000134393430370F0BD4589D2432A44CD1875
:1059B0000189491B12B209B2002AF4DBB0F90A507E
:1059C0009542F0DD0029BEBF5B181BB20021B0F983
:1059D0000870CE18BE42C4BF6B1A1BB2002BE2DDAA
:1059E000D010802510FB05111248014402F0070079
:1059F00001228240012CD2B20B440CD18B42D2D076
:105A000011F8010B104301F8010CF7E7CD1841899B
:105A1000491B09B267E7D243D2B28B42C3D011F817
:105A2000010B104001F8010CF7E700BF5CE0032018
:105A300054E0032064E00320F0B5457EBDF8144037
:105A4000022D34D0032D00F09B80012D37D1D518C5
:105A50000289521B12B20029C0F29180B0F90A509B
:105A60008D4240F38C80002ABEBF9B181BB20022DF
:105A7000B0F90870D618BE42C4BFAB1A1BB2002BD7
:105A80007DDDC810802510FB05224548024401F049
:105A9000070001218140012CC9B2134475D19A42FB
:105AA0006DD012F8010B084302F8010CF7E70589E5
:105AB000C9432944D5184289521B09B212B20029A0
:105AC0005DDBB0F908508D4259DD002ABEBF9B183E
:105AD0001BB20022B0F90A00D5188542C4BF831A50
:105AE0001BB2002B4BDDC2F3C400DFF8B4C001EBE6
:105AF000C01112F00702DBB20CEB01001AD0C2F1A8
:105B00000805284EEDB2AB42775D3FBFA5EB030E13
:105B1000FF2646FA0EF637401CF80160012C0CBF38
:105B20003E43BE43AB420CF8016028D3083A13440D
:105B3000DBB28030072B19D9012C4FF0FF3518BF8D
:105B40000025EDB200F180011A46083AD2B2072AC8
:105B500001F8805C01F18001F7D8A3F10802C2F3DB
:105B6000C402013200EBC21003F007033BB10E4A3E
:105B7000D25C0378012C0CBF134393430370F0BD38
:105B80004589C943294409B265E7C943C9B29A4264
:105B9000F5D012F8010B084002F8010CF7E700BF3E
:105BA00064E003205CE0032054E003207047000021
:105BB000F8B50D1E064614461F462DDBFFF77DFE89
:105BC000A84229DD002C27DB3046FFF779FEA042F2
:105BD00022DD3046FFF761FE02281ED0032825D0C3
:105BE000012804D13389E2431A442C4615B2002C13
:105BF0002246B8BFE21DD210802112FB01550E498A
:105C0000012204F007044B5702FA04F464B29742ED
:105C10000CBF2343A3434B55F8BD31897289013929
:105C2000E4434D1B14442DB224B2E0E77389013BD9
:105C30005B1B25461CB2DAE764E0032010B5242183
:105C40000446FEF72CFA204610BD000038B540226D
:105C500004460D468021FFF7FDFC064B2360FF2321
:105C600084F8213063774FF6FF73E38384F8205084
:105C7000204638BDC8980B0002484FF480620021CE
:105C800002F042BF64E0032007B590F8223043B130
:105C90000191FFF725FA019903B05DF804EB01F0DB
:105CA000D5BA0B46817F407F012203B05DF804EB3B
:105CB00002F066B938B590F91D30013304460D463F
:105CC0001DD090F92100012180B202F016F994F95B
:105CD0001F00002180B202F010F994F92100002188
:105CE00080B202F00AF929462046FFF7CDFF94F969
:105CF00021000121BDE8384080B202F0FEB802F078
:105D00007DF994F91B1000F097FF02F077F9036812
:105D100000219B68984702F071F9036829469B6847
:105D2000984702F06BF9BDE8384000F08CBF0000E6
:105D3000F8B521210446FFF7BDFF00212046FFF7FB
:105D4000B9FF7F212046FFF7B5FF22212046FFF74C
:105D5000B1FF00212046FFF7ADFF07212046FFF7E6
:105D6000A9FF94F91D30294F01332AD094F921005D
:105D7000012180B202F0C1F894F91F00012180B224
:105D800002F0BBF894F92100002180B202F0B5F8CE
:105D9000012000F09FFB4FF48065013D17F8011BC7
:105DA0002046ADB2FFF770FF002DF6D1012000F0C4
:105DB00091FB94F921000121BDE8F84080B202F086
:105DC0009CB8002502F01AF994F91B1000F034FF7A
:105DD00002F014F9036840219B68984705F110060A
:105DE000B6B202F00BF90368795D9B6898476B1CAB
:105DF0009DB2AE42F5D102F001F900F024FFB6F5F4
:105E0000806F00D1F8BD3546DCE700BF64E00320B9
:105E100038B590F91D300177013304460D46C2763E
:105E200000F0C98090F91F00012180B202F054F8FF
:105E300094F92100012180B202F04EF894F822304A
:105E4000002B00F0A68094F92100012180B202F01D
:105E500054F8FFF745F9012101F062F9FFF740F925
:105E6000102101F0CDF9FFF73BF9002101F06CF9A9
:105E7000FFF736F901F040F994F92000012180B2D2
:105E800002F02AF894F92000012180B202F035F8DE
:105E9000012000F0FFFD94F92000002180B202F003
:105EA0002CF80A2000F0F6FD94F92000012180B2C0
:105EB00002F023F82046AE21FFF7FCFE2046D52154
:105EC000FFF7F8FE20468021FFF7F4FE2046A821C8
:105ED000FFF7F0FE20463F21FFF7ECFE2046D321DE
:105EE000FFF7E8FE20460021FFF7E4FE20464021B0
:105EF000FFF7E0FE8D212046FFF7DCFE012D0CBFF1
:105F0000102114212046FFF7D5FE20462021FFF75F
:105F1000D1FE20460021FFF7CDFE2046A121FFF74C
:105F2000C9FE2046C821FFF7C5FE2046DA21FFF74B
:105F3000C1FE20461221FFF7BDFE81212046FFF75A
:105F4000B9FE012D0CBF9F21CF212046FFF7B2FEE5
:105F5000D9212046FFF7AEFE012D0CBF2221F121F1
:105F60002046FFF7A7FE2046DB21FFF7A3FE2046D1
:105F70004021FFF79FFE2046A421FFF79BFE20460D
:105F8000A621FFF797FE2046AF21BDE83840FFF776
:105F900091BE94F91D00012180B201F09DFF94F99A
:105FA0001E00012180B201F097FF94F82230002BEF
:105FB0003FF462AF47E702F021F800F007FE5BE72D
:105FC00038B50446C0680D4608B100F01FFDA3793E
:105FD000062B0CBF0420032010FB05F080B2A0802C
:105FE00000F00CFDE06028B1A288002102F08CFDD9
:105FF000658038BDA0806080FBE710B504460121B4
:10600000C07901F069FFE079002101F076FF0123FA
:10601000237010BD37B5037805460C461BB1C07917
:10602000002101F059FF2B78EC715BB1A0B2012186
:10603000019001F051FF0198002103B0BDE830400C
:1060400001F05BBF03B030BD70B5002504461646B5
:106050008371C0E9035505700572FFF7B1FF204653
:106060003146FFF7D7FF204670BD0000C368002B04
:1060700000F0A4812DE9F04F8379023BDBB2042BC1
:106080009CBFBF4A52F8234085B0054688BF3224E2
:1060900000F028FA2B69C01AA042F9D3B94CAE8897
:1060A000D4F800351BB9D4F86035002B7EDBB64C34
:1060B000D4F8003523B9D4F86035002BC0F26E81D6
:1060C000B24CD4F80035002B00F04481EB79B04A93
:1060D000B04C1268190102EB0313575CAE495B78B0
:1060E000D1F8FC2042F08072C1F8FC20226803F055
:1060F0001F0343EA471301273A432260A988D5F8D2
:106100000C80D4F804909F40002944D04FF0000E3A
:1061100072464FF0A04118F801CB08208026636832
:106120009B1A462BFBD96268D1F808351CEA060F8A
:1061300043EA0703C1F808352FD063689B1A282B60
:10614000FBD9D1F80C35013843EA07034FEA56066C
:10615000C1F80C35E3D1AB880EF1010E1FFA8EFEAB
:106160007345D8D84FF4307103FB01F163689B1A73
:10617000462BFBD96368A3EB09098945C0F0E4808D
:106180004FF4967000F0A6F9A988D5F80C80D4F8E1
:1061900004900029BAD10A46E8E763689B1A112BDC
:1061A000CFD863689B1A112BF7D9CAE7D4F86435A6
:1061B000002BBFF67CAFD4F86835002BBFF677AF65
:1061C000D4F86C35002BBFF672AF3601331D18467C
:1061D000009300F013FC00283FF478AFAB88002B4D
:1061E00000F0ED80EA68013B12FA83F702F1FF3E0E
:1061F000002348F2060248F20D011EF801CF1CF000
:10620000800F0CBF93468B461CF0400F0CBF164608
:106210000E461CF0200F0CBF9046884603F1010982
:10622000CDF80880019603F102081FFA89F9019E52
:1062300020F813B01FFA88F820F81960029E20F8A1
:10624000186003F103081CF0100F1FFA88F80CBF48
:1062500093468B4620F818B003F104081CF0080F91
:106260001FFA88F80CBF93468B4620F818B003F14C
:1062700005081CF0040F1FFA88F80CBF93468B46E4
:1062800020F818B003F1080A03F1060807339BB29F
:106290001CF0020F1FFA88F80CBF93468B46CDF80E
:1062A0000CA01CF0010F20F818B015BF20F8131037
:1062B00020F813201FFA8AF3BDF80C3077459CD1E3
:1062C000591C023389B29BB249005B004FF400476E
:1062D0004752009AC7522E4B56081F6800221423BB
:1062E000C4F80425C4F80C25C4F80835C4F81425EE
:1062F000C4F81025C4F82005C4F82465C4F828257E
:10630000C4F82C25EB7907EB031C1B010121FE5C73
:106310009CF8013003F01F0343EA4613C4F86035CC
:10632000C4F80015C4F81021A160D4F81031002B76
:10633000FBD000234FF0FF32C4F81031C4F8003511
:10634000C4F8602500F062FB00F0CCF8286105B0CD
:10635000BDE8F08FD4F86035002BBFF6B7AED4F8A7
:106360006435002BBFF6B2AED4F86835002BBFF60B
:10637000ADAED4F86C35002BBFF6A8AE25E700BF54
:10638000F8980B0000C001400010024000200240BD
:1063900030E60320001000E000ED00E0D4F86435A2
:1063A000002BBFF68DAED4F86835002BBFF688AE53
:1063B000D4F86C35002BBFF683AE06E77047042394
:1063C000022183E743888B42F0B52DD9067AC2F3C8
:1063D0000743C2F30724D5B23EB1734374437543F8
:1063E000C3F30723C4F307242D0A90F806C0C76837
:1063F000BCF1060F0CBF042603264E43ACF1020C81
:10640000B919BCF1060F1DD8DFE80CF0041C080414
:106410000F040400BC554B708D7005E0FE2B28BFA7
:10642000FE23BB554D708C70F0BDBB554C708D700C
:10643000037A120E13B9D2B2CA70F5E75A43C2F307
:106440000722F9E7BB554C70E6E7037A4A1CD2B243
:10645000934270B51FD0013B13F0FF03C4680CD00A
:10646000FF291FBF110201F1FF31B1FBF3F39BB212
:1064700004BF4FF6FF71B1FBF3F325468688291B55
:1064800089B28E4206D929785943C1F3072105F80C
:10649000011BF3E7027270BD8288C068002102F020
:1064A00033BB000008B500F02DF8014B186008BDA3
:1064B00030E6032008B5024B1B685B6C019308BDF6
:1064C0004802030008B5024B1B685B68019308BDD6
:1064D0001802030008B5024B1B68DB68019308BD76
:1064E0001802030008B5024B1B681B69019308BD25
:1064F0001802030008B5024B1B685B69019308BDD5
:106500001802030008B5024B1B681B68019308BD05
:106510002C02030008B5024B1B685B68019308BDA1
:106520002C02030008B5024B1B689B68019308BD51
:106530002C02030008B5024B1B68DB68019308BD01
:106540002C02030008B5024B1B681B69019308BDB0
:106550002C02030008B5024B1B685B69019308BD60
:106560002C02030008B5024B1B689B69019308BD10
:106570002C02030008B5024B1B68DB69019308BDC0
:106580002C02030008B5024B1B681B6A019308BD6F
:106590002C02030008B5024B1B685B6A019308BD1F
:1065A0002C02030008B5024B1B681B6B019308BD4E
:1065B0002C02030008B5024B1B68DB68019308BD81
:1065C0002802030008B5024B1B689B69019308BDB4
:1065D0002802030008B5024B1B68DB69019308BD64
:1065E0002802030008B5024B1B681B6A019308BD13
:1065F0002802030008B5024B1B685B6A019308BDC3
:106600002802030008B5024B1B689B6A019308BD72
:106610002802030008B5024B1B68DB6A019308BD22
:106620002802030008B5024B1B681B6B019308BDD1
:106630002802030008B5024B1B685B6B019308BD81
:106640002802030008B5024B1B681B6C019308BDB0
:106650002802030008B5024B1B681B6D019308BD9F
:106660002802030008B5024B1B685B69019308BD53
:106670006C02030008B5024B1B685B69019308BDFF
:106680006402030008B5024B1B681B6A019308BD36
:106690006402030008B5024B1B689B6A019308BDA6
:1066A0006402030008B5024B1B689B68019308BD98
:1066B0006802030008B5024B1B68DB68019308BD44
:1066C0006802030008B5024B1B689B69019308BD73
:1066D0003802030008B5024B1B68DB69019308BD53
:1066E0003802030008B5024B1B681B6A019308BD02
:1066F0003802030008B5024B1B689B6A019308BD72
:106700003802030008B5024B1B681B6B019308BDE0
:106710003802030008B5024B1B689B6B019308BD50
:106720003802030008B5024B1B681B68019308BDC3
:106730003002030008B5024B1B689B68019308BD3B
:106740003002030008B5024B1B68DB68019308BDEB
:106750003002030008B5024B1B681B69019308BD9A
:106760003002030008B5024B1B685B69019308BD4A
:106770003002030008B5024B1B68DB69019308BDBA
:106780003002030008B5024B1B681B6A019308BD69
:106790003002030008B5024B1B685B6A019308BD19
:1067A0003002030008B5024B1B681B6C019308BD47
:1067B0003002030008B5024B1B685B6C019308BDF7
:1067C0003002030008B5024B1B68DB68019308BD6B
:1067D0003C02030008B5024B1B681B69019308BD0E
:1067E0003C02030008B5024B1B685B69019308BDBE
:1067F0003C02030008B5024B1B689B69019308BD6E
:106800003C02030008B5024B1B68DB69019308BD1D
:106810003C02030008B5024B1B681B6A019308BDCC
:106820003C02030008B5024B1B689B6A019308BD3C
:106830003C02030008B5024B1B681B6C019308BDAA
:106840003C02030008B5024B1B681B68019308BD9E
:106850004C02030008B5024B1B685B68019308BD3E
:106860004C02030008B5024B1B681B69019308BD6D
:106870004C02030008B5024B1B685B69019308BD1D
:106880004C02030008B5024B1B689B69019308BDCD
:106890004C02030008B5024B1B68DB69019308BD7D
:1068A0004C02030008B5024B1B681B6A019308BD2C
:1068B0004C02030008B5024B1B685B6B019308BDDB
:1068C0006002030008B5024B1B681B6D019308BDF5
:1068D0006002030008B5024B1B685B68019308BDAA
:1068E0002002030008B5024B1B685B69019308BDD9
:1068F0002002030008B5034B1B68D3F888300193CE
:1069000008BD00002002030008B5034B1B68D3F844
:106910009430019308BD00002002030008B5024B2B
:106920001B68DB6B019308BD4402030008B5024BF2
:106930001B685B68019308BD4002030008B5024B69
:106940001B689B68019308BD4002030008B5024B19
:106950001B68DB68019308BD4002030008B5024BC9
:106960001B681B69019308BD4002030008B5024B78
:106970001B685B69019308BD4002030008B5024B28
:106980001B689B69019308BD4002030008B5024BD8
:106990001B68DB69019308BD4002030008B5024B88
:1069A0001B681B6A019308BD4002030008B5024B37
:1069B0001B689B6A019308BD4002030008B5024BA7
:1069C0001B681B6B019308BD4002030008B5024B16
:1069D0001B685B6B019308BD4002030008B5024BC6
:1069E0001B681B6C019308BD4002030008B5024BF5
:1069F0001B685B6C019308BD4002030008B5024BA5
:106A00001B681B68019308BD1C02030008B5024BFC
:106A10001B685B68019308BD1C02030008B5024BAC
:106A20001B689B68019308BD1C02030008B5024B5C
:106A30001B685B6A019308BD1C02030008B5024B8A
:106A40001B68DB6A019308BD1C02030008B5024BFA
:106A50001B68DB6B019308BD1C02030008B5024BE9
:106A60001B681B6C019308BD1C02030008B5024B98
:106A70001B685B6C019308BD1C0203008A4210B5C1
:106A800007D0441A0298C01A4443501A94FBF0F0FD
:106A9000184410BD0021FFF725BF10B583680446D8
:106AA00013B1032201469847204610BD0248002337
:106AB0000360FFF7FFBC00BF34E6032000224068FC
:106AC0001146FFF76BBF002240681146FFF77EBFFB
:106AD00040680022FFF772BF4068002281F0010188
:106AE000FFF754BF002340681A461946FFF746BF18
:106AF000002340681A461946FFF738BF0022406855
:106B00001146FFF72BBF002240681146FFF716BF62
:106B1000406800220221FFF719BF002340681A468F
:106B2000FFF704BF024B03225A60024A1A60704703
:106B300038E603201C990B007047F8B50646154649
:106B40000C468F18BC4206D0336814F8011B9B68B2
:106B500030469847F6E72846F8BD007C0022FFF74C
:106B600041BD007C0021FFF745BD007C0021FFF7FF
:106B700049BD007C0021FFF74DBD007C0021FFF7DF
:106B800051BD10B514210446FDF789FA204610BD09
:106B900038B5044615464FF47A730022C4E9012340
:106BA000094B2174084623602946FFF74BFDBF308F
:106BB00008D16B69DB0705D56868FFF727FFE86830
:106BC000FFF724FF204638BD58990B000023007CB6
:106BD0001A461946FFF7EEBC7FB500221423CDE913
:106BE0000122ADF804300B788DF808304B68039320
:106BF000CB680493007C0B7A059301A9FFF72AFD6B
:106C000007B05DF804FB1FB5003B8DF800104FF096
:106C10006401039118BF0123694601928DF8083081
:106C2000FFF7DAFF05B05DF804FB0123FFF7EBBFC8
:106C3000007C0022FFF7C6BCC9B2FFF7F9BF007C99
:106C40000022FFF7C7BC0121FFF7F9BF826810B52A
:106C50000AB901F039FABDE81040C36818470000CE
:106C6000F8B5104F57F8204006460D4634B120467F
:106C7000FFF713FF10212046FDF711FA1020FDF752
:106C80000AFA044650B100238360AB6833B1022294
:106C900029469847EB68E360AB68A36047F8264055
:106CA0002046F8BD40E60320F0B587B005460391C5
:106CB00017461E46FFF75EFC03992846FFF7D0FFF4
:106CC0000446E8B100218E424FF00403ADF81510E0
:106CD0008DF817108DF81430A2BF05A99DF830303B
:106CE0008DF81630009102460749A8BF8DF815604F
:106CF0003B462846FFF736FC10B1002007B0F0BD38
:106D0000201E18BF0120F9E74D6C0B00FFF742BCB5
:106D1000FFF738BC704710B518210446FDF7BFF9DE
:106D2000204610BDF0B5037D062B8DB00E4600F158
:106D300004074FF0000412D000F1080515F8011DFA
:106D40000A22304600F073F9AF42044419D0002CF7
:106D5000F4D02E21304600F051F90444EEE72F2301
:106D60006A4639460A208DF80040FFF783FC6846E2
:106D700001F012FF33680246DB68694630469847E7
:106D8000044620460DB0F0BD10B5054B0446112257
:106D900040F8043B002101F0B7FE204610BD00BFC3
:106DA00080990B000346074A10B543F8042B01F104
:106DB000100251F8044B43F8044B9142F9D10A7880
:106DC0001A7010BD80990B00037D042B04D140681C
:106DD000003818BF01207047062B07D143683BB924
:106DE00083682BB9C3681BB90069F1E700207047BD
:106DF0000120704710B59DF8084044EA032343EA98
:106E0000024242EA016104234160037510BD0000A3
:106E100007B5064B0360CB7800938B784A780978E6
:106E2000FFF7E8FF03B05DF804FB00BF80990B009B
:106E3000014B024A1A607047D0E603208C990B0080
:106E4000002340681A46FFF771BD40680022022106
:106E5000FFF77CBD002240681146FFF76FBD00229E
:106E600040681146FFF77ABD002340681A4619466C
:106E7000FFF77CBD002340681A461946FFF77EBD28
:106E800040680021FFF7AABD40680021FFF7AEBDB2
:106E90004068002281F00101FFF778BD40680022C0
:106EA000FFF78CBD002240681146FFF78FBD00221E
:106EB00040681146FFF772BD2DE9F04395B01446C6
:106EC0000D460746FFF760FF00211C220DA8009128
:106ED00001F01AFE40230C9320466B460CAA0021B9
:106EE000FFF7E8FB044600284BD102460121686801
:106EF000FFF734FD0221804622466868FFF72EFD29
:106F0000009E81462146002E3BD0002939D173686E
:106F1000022B03D00A2B11D0F669F4E7B8F1000F69
:106F2000FAD0716906A8043107ADFFF771FF0FCDE4
:106F30003C1D0FC42B6823704146EDE7B9F1000FEB
:106F4000EAD07469102201A801F0DEFD06238DF855
:106F5000143001AD04F108031834186859682A4642
:106F600003C20833A3421546F7D101A906A807AD0D
:106F7000FFF718FF0FCD3C1D0FC42B682370494647
:106F8000CAE70098FFF78EFB384615B0BDE8F083DE
:106F9000024B034A1A6000225A607047D4E603206D
:106FA00098990B00F8B506460D468F180024BD428F
:106FB0000CD0336815F8011B9B6830469847031EB8
:106FC00001DB1C44F3E7002C08BF1C462046F8BD3B
:106FD00013B50446084659B1019101F0DDFD23685F
:106FE0000199DB680246204602B0BDE81040184710
:106FF00002B010BD08B5FFF7EBFF08BD03689B6842
:10700000184738B50D210546FFF7F8FF0A21044659
:107010002846FFF7F3FF204438BD38B50546FFF793
:10702000D7FF04462846FFF7ECFF204438BD30B5B3
:107030008BB00023012A8DF8243098BF0A2209ACB6
:107040000D46B1FBF2F101FB125303F0FF03092BD4
:1070500094BF30333733DBB2AA4204F8013DEFD995
:107060002146FFF7B5FF0BB030BD2DE9F04186B0EA
:1070700000AF05460E46381D142114463B60FFF74D
:10708000D5FC13280ED8391D2846FFF7A1FF04466A
:107090001EB12846FFF7B5FF044420461837BD4609
:1070A000BDE8F08100F1080323F00703E846ADEBEB
:1070B000030D2246411C3B686846FFF7B7FC694652
:1070C0002846FFF785FF0446C546E1E7014B00224D
:1070D0009A607047DCE603200021FFF76BBB0021BC
:1070E000FFF760BB10B5044608462170FFF742FB6E
:1070F00000236360204610BD13B504460078FFF7F7
:10710000EEFF58B9207801904FF6FF71FFF70AFBA8
:10711000019802B0BDE81040FFF7DEBF02B010BD1D
:1071200013B5044600780191FFF7D9FF019948B9DA
:1071300020780190FFF7FEFA019802B0BDE81040F8
:10714000FFF7CABF02B010BD13B504460078019125
:10715000FFF7C5FF019948B920780190FFF7F2FACF
:10716000019802B0BDE81040FFF7B6BF02B010BDF5
:10717000400830B51860002418688842E5B206D986
:107180000134082C02D040081860F5E70725024BAF
:107190005B5D137030BD00BFCC990B002DE9F04151
:1071A00088B000230446007802930E461746FFF786
:1071B00096FF054600BB94F800800146142203A800
:1071C00001F0A2FC0B232A4603A94046ADF80C307F
:1071D000FFF7E0FA04988DF8075002AB0DF10702B3
:1071E00007FB06F1FFF7C4FF20789DF80710FFF7B3
:1071F000B1FA2078FFF770FF029808B0BDE8F0817F
:1072000038B5044600780D46FFF769FF0346D0B94C
:10721000616899B10C4A12F8010B854202D0013322
:10722000082BF8D10133DBB20122D9402046FFF709
:10723000B5FF2078BDE83840FFF74EBF20782946DB
:10724000FFF788FAF5E738BDCC990B0008B5007850
:10725000FFF788FAC0B208BD10B50446FFF74AF937
:10726000E060236820465B699847002808DAFFF74A
:1072700041F9E368C01AA3689842F2D34FF0FF3097
:1072800010BD000038B50D460749044600F059F816
:107290002846FFF7E1FF002804DBC1B2204600F0DA
:1072A000CBF8F5E7204638BD788F0B0010B50446C3
:1072B0000068FFF7ABFB204610BD10B50446006820
:1072C00008B1FFF7A3FB0023C4E90133236010BD1D
:1072D00038B504460D4600680131FFF79FFB10B139
:1072E000C4E90005012038BD10B50368044623B188
:1072F00043688B4201D3012010BD2046FFF7E8FF11
:107300000028F9D0A368002BF5D122681370F2E7AA
:1073100037B50D46114601920446FFF7E5FF019A85
:1073200028B92046FFF7C9FF204603B030BDA26050
:107330002946206801F0DAFB2268A3680021D154B5
:10734000F2E7002313B5C0E90033044683600373FA
:1073500041B10846019101F01FFC01990246204607
:10736000FFF7D6FF204602B010BD884210B5044694
:1073700005D00B682BB18A681946FFF7C9FF204674
:1073800010BDFFF79AFFFAE710B500230446C0E9E5
:10739000003383600373FFF7E8FF204610BD13B589
:1073A000044659B10846019101F0F6FB01990246E5
:1073B0002046FFF7ADFF204602B010BDFFF77DFF6E
:1073C000F9E710B504468AB00023C4E90033A3608E
:1073D0002373084601A900F08FFC01A92046FFF79E
:1073E000DEFF20460AB010BD70B505460E4609B94D
:1073F000002070BD6AB1846814442146FFF774FF11
:107400000028F5D02868AB683146184401F0BCFB71
:10741000AC600120EDE713B50446084651B1019177
:1074200001F0BAFB01990246204602B0BDE81040C7
:10743000FFF7DABF02B010BD07B500238DF80410C6
:10744000012201A98DF80530FFF7CEFF03B05DF8EA
:1074500004FB10B58A6809680446FFF7C5FF10B938
:107460002046FFF72AFF204610BD13B5044629B970
:107470002046FFF722FF204602B010BD08460191CA
:1074800001F08AFB019902462046FFF7ADFF002874
:10749000EED0F0E7054B02221A60054B054A9A60D0
:1074A0000020C3E90000FFF715BA00BFF8E603208B
:1074B000ECE603200000FFFF13B503688DF807100A
:1074C000DC6B01224FF0FF330DF10701A04702B042
:1074D00010BD10B40368DC6B4FF0FF33A4465DF8B9
:1074E000044B604713B5134602688DF80710D46B40
:1074F0000DF107010122A04702B010BD10B543698C
:10750000B3F88620B3F884309A42044608D0636901
:10751000B3F88420511CA3F884101344187910BDCB
:1075200003681B6998470028F1D14FF0FF30F6E758
:10753000704743691868C043C00F70477047000028
:10754000064B994210B500F10C0405D0084600F036
:10755000BFFD002808BF0024204610BD0C990B0079
:1075600010B5AC210446FCF79AFD204610BDAC21B5
:10757000FCF795BD2DE9F0414FF0000886B01C46A0
:10758000C0F8048005460E4617464146102202A860
:1075900001F0BAFA631C09D04FF47A73B4FBF3F22A
:1075A00003FB1244CDE902285C430494686910236C
:1075B0000093006802AB41F2050240F6FF71FFF74D
:1075C00081F8002807DAFFF741FA03686B600020B2
:1075D00006B0BDE8F0816869002300683A4631468C
:1075E000FFF790F8031EEEDB1846F1E730B587B0E1
:1075F000044601AD6846FFF70BFC0FCD04340FC401
:107600002B68237007B030BD70B54D69054B04463B
:107610008C3544F8043B06460FCD0FC42B6823700D
:10762000304670BD80990B002DE9F0439846036801
:1076300093B00D460024DB6A064617469847284655
:107640006B46224621460094FFF734F80546002891
:1076500063D1009B002B4BD05B69002B48D006A860
:10766000FFF792FB009B5C696378022B04D1211D1C
:1076700006A8FFF7BBFF26E00A2B24D111222946DA
:1076800001A801F041FAA368002B38D004F10803E7
:107690000DF1040C183418685968624603C20833A7
:1076A000A3429446F7D1062301A90CA88DF8143003
:1076B000FFF778FB0DF1340CBCE80F0007AC0FC4EA
:1076C000DCF80030237006A8FFF77EFB80B133683A
:1076D00007ADD3F82090124B0C930FCD0DAC0FC417
:1076E0002B6823703A4643460CA93046C8470546E6
:1076F0000098FEF7D7FF284613B0BDE8F083E36893
:10770000002BC3D14FF6FF70D4F81090FEF7BAFFEC
:107710008145BBD104F11401AAE72546E8E700BF83
:1077200080990B0038B543691A68002A054610DABB
:10773000B3F88620B3F884309A420AD103681B69F3
:107740009847044628B92B682846DB6A98472046A4
:1077500038BD0120FCE710B54369B3F88620B3F8C3
:1077600084309A42044605D06369B3F884201344F8
:10777000187910BD03681B6998470028F4D14FF0B1
:10778000FF30F6E7F8B543691746B3F88620B3F83B
:1077900084309A4205460E4616D06969B1F88430A5
:1077A000B1F88640E41ABC4228BF3C460433224666
:1077B0001944304601F09AF96A69B2F884302344DA
:1077C000A2F884302046F8BD03681B69984700285A
:1077D000E3D14FF0FF34F5E742690023A2F884308B
:1077E0004269A2F8863070472DE9F0411F460368D0
:1077F0000C46DB6A8AB0054616469847237DD5F8C5
:107800001480042B0CBF02200A2006220121FEF75F
:1078100081FFC8F800006B691B68002B08DA2B6831
:107820002846DB6A0024984720460AB0BDE8F0816C
:107830002846FFF7D1FFB7B1002303A9F8B203939D
:10784000ADF81030FEF70EFF0028E8D16869062376
:107850000093006803AB41F20B0240F6FF71FEF7A4
:1078600031FF0028DBD11C22002103A801F04CF9D4
:10787000237D042B1DD14FF407733046ADF80C3037
:10788000FEF708FFADF80E006068FEF7FBFE0490FF
:107890006B691C22186803A9FEF724FF0028BED1DB
:1078A00004340FCC6D698C350FC523682B7001240F
:1078B000BAE740F61C233046ADF80C30FEF7EAFE7E
:1078C00005AEADF80E00231D04F1140718685968C1
:1078D000324603C20833BB421646F7D1D8E7000050
:1078E00030B54269B2F886308BB004462BB1B2F89D
:1078F00084209A4201D1FFF76FFF61690868002870
:1079000018DBB1F886507F2D14D804310823C5F157
:1079100080022944FEF7EEFE002813DD6369B3F808
:1079200086200AB9A3F884206369B3F8862010443E
:10793000A3F886006369B3F88600B3F88430C01AF0
:107940000BB030BDFFF782F803680B2BF2D0FFF7C6
:107950007DF803680B2BEDD020230025CDE90235FF
:10796000FFF774F803680193084B0949009302AAD2
:107970002B463220FEF7A6FF63691868FEF7AAFEC1
:1079800063694FF0FF321A60D4E700BFDB990B0048
:10799000D4990B0010B5436904461868002801DB30
:1079A000FEF798FE63694FF0FF321A60606911229A
:1079B00000218C3001F0A8F82046BDE81040FFF708
:1079C0000BBF10B5002304460160C0F88430883036
:1079D000FFF7DAF9204610BD73B500234FF47A7231
:1079E000C0E901320E4A0361026043610446AC20E3
:1079F0000191FCF750FB051E05F10C0608D0012390
:107A0000C5E90133074B01992B603046FFF7D9FFD9
:107A10002046C4E90565FFF7DFFE02B070BD00BF78
:107A2000109A0B00F4990B0010B54FF0FF3104468B
:107A3000FFF7D2FF204610BD10B5044600680028AD
:107A400001DBFEF747FE204610BD0C30FFF7F4BF08
:107A5000024B1A68024B1A60704700BF64E40320AF
:107A6000FCE6032070474174704708B5007CFEF7C0
:107A7000D9FE20EAE07008BD08B5007CFEF7AAFE3A
:107A800020EAE07008BD08B5007CFEF7B3FE40EACE
:107A9000E07008BD08B5007CFEF7A4FE40EAE07087
:107AA00008BD007CFEF7AEBE37B5457C04462DB15F
:107AB000207C03B0BDE83040FEF784BE007C01911D
:107AC000FEF7B0FE00280199F2DC284603B030BD75
:107AD00010B514210446FCF7E2FA204610BD000060
:107AE00010B54FF47A730446084611460022C4E9E3
:107AF0000123044B2360012320746374FEF79AFE74
:107B0000204610BD789A0B0041747047704770474B
:107B100008B50021007CFEF7B5FE40EAE07008BD24
:107B200008B50121007CFEF7ADFE40EAE07008BD1B
:107B300008B5007CFEF79EFE20EAE07008BD08B59F
:107B4000007CFEF78FFE20EAE07008BD13B5044606
:107B5000007C0191FEF78EFE0028019901DC607C1B
:107B600020B1207CFEF796FE20EAE07002B010BD46
:107B7000007CFEF797BE10B514210446FCF78FFA7F
:107B8000204610BD10B54FF47A7304460846002114
:107B9000C4E90113044B236001232074637411466C
:107BA000FEF750FE204610BDA89A0B00007C002274
:107BB000FEF750BE10B514220446002100F0A4FFC9
:107BC000204610BD10B50F4C88B003A8FFF7F2FF98
:107BD0002178BFF35B8F11F001010FD12046019195
:107BE000FCF76CFA019948B103AA0748FFF7CAFFEE
:107BF0002046FCF768FA054800F072FF024808B01A
:107C000010BD00BF00E7032004E703200D7B0B003D
:107C1000002240681146FEF7A1BE002240681146CE
:107C2000FEF7BCBE002240681146FEF7CFBE40689A
:107C30000022FEF7C3BE4068002281F00101FEF77A
:107C4000A5BE002340681A461946FEF797BE0023DA
:107C500040681A461946FEF789BE00224068114660
:107C6000FEF76CBE406800220221FEF76FBE0023C3
:107C700040681A46FEF75ABE024B04225A60024A76
:107C80001A60704718E70320D89A0B0010B5044615
:107C900000F082FF013823182046834206D902787B
:107CA000197800F8011B03F80129F6E710BD70B53B
:107CB0000C46911E22291DD8254630B92344302276
:107CC0009D4210D205F8012BFAE7B0FBF2F602FB59
:107CD0001600C1B2092894BF30315731C9B205F836
:107CE000011B3046E9E7002320462B70FFF7CEFF4B
:107CF000204670BD0020FCE738B5031E0C46154633
:107D00000EDAB3F1004F4FF02D0214BF584218465F
:107D100001230A702A461944FFF7C9FF204638BDDF
:107D20000123F9E7014B1860704700BF68E40320A6
:107D300008B50B4B43B1FFF745FF03681B69984734
:107D4000002801DDAFF30080064B43B100F096F947
:107D500003681B699847002801DDAFF3008008BD68
:107D6000000000000000000008B5FFF7E1FFFEF78B
:107D7000C1FB014B186008BD28E703200548064AEF
:107D8000064908B5121A00F0B1FE054B054A1A6003
:107D900008BD00BF00F4032004F40320C49C0B00C2
:107DA00000F403201E1C279A07B5002300931A46EF
:107DB0006FF07701FEF7A8FD03B05DF804FB00004B
:107DC00007B543880A2B08D0502B0BD1094B1B68F1
:107DD0004BB103B05DF804EB1847FFF7E5FF03B0C4
:107DE0005DF804FB002300931A466FF07701FEF75D
:107DF0008BFDF4E724E7032010B512480021FEF7BD
:107E000035FE114B1A68114B9A42114B0CBF0122DF
:107E100000221A7001D0FFF7B1FFFEF753FB0446B2
:107E200000F07AFE0B4B13B12046AFF30080002127
:107E30000848FEF773FDBDE8104007480021FEF733
:107E400059BD00BF257D0B0000F403201E1C279A9E
:107E500020E7032000000000C17D0B00232813B59C
:107E600002D9002002B010BDA0F10B03022B1AD8DA
:107E7000174C2178BFF35B8F11F001010BD1204625
:107E80000191FCF71BF9019928B11248FFF72AF973
:107E90002046FCF718F90F4B1878FEF773FC002802
:107EA000DFD10120DEE7012809D800F0A7F8002182
:107EB000007CFEF7BFFB80F00100C0B2D2E70938BA
:107EC0000128EED800F0DAF8007CFEF7A3FCF2E718
:107ED00024E6032028E60320232838B504460D466F
:107EE0000AD8FF2908D0FFF7B9FF28B12946204654
:107EF000BDE83840FEF716BB38BD38B504460D4620
:107F0000FEF718FBFF2810D0062804D84D2323FACB
:107F100000F0C30709D42046FFF7A0FF28B1294687
:107F20002046BDE83840FEF70DBB38BD10B504460D
:107F3000FEF700FB031FDBB2012B08D92046FFF739
:107F40008DFF20B12046BDE81040FEF703BB0020A6
:107F500010BD0D2810B504469CBF0E34A4B22046B7
:107F6000FFF77CFF50B103212046FEF7D3FA032828
:107F700004D12046BDE81040FEF714BB002010BD20
:107F80002DE9F04190461F46072406460D46C4F1F0
:107F90000701B8F1000F12D147FA01F101F0010118
:107FA0003046FFF7AAFF01212846FFF7A6FF002170
:107FB0002846FFF7A2FF013CE9D2BDE8F08147FA6D
:107FC00004F1EBE77047000038B50A4B036001236A
:107FD000044643610849202000F074F820256060C1
:107FE0000549A560284600F06DF8C4E90305204660
:107FF00038BD00BF180001000C9B0B0030B50E4DC2
:108000002978BFF35B8F11F0010487B011D12846A6
:10801000FCF754F868B16846FFF7D6FF6A46214678
:108020000648FEF7B5FD2846FCF74DF8044800F079
:1080300057FD024807B030BD2CE7032030E703208E
:10804000C57F0B007047000038B5044614252A464A
:10805000002100F059FD258040250749258128464B
:10806000258200F02FF804496060284600F02AF8C5
:10807000E060204638BD00BF0C9B0B0030B50E4DB4
:108080002978BFF35B8F11F0010487B011D1284626
:10809000FCF714F868B101A8FFF7D6FF01AA214642
:1080A0000648FFF71DFD2846FCF70DF8044800F0D0
:1080B00017FD024807B030BD44E7032048E703201E
:1080C00045800B00FBF7E9BF08B5FEF7B7FC0000E1
:1080D000014900F0F9B800BF289B0B007FB50024D0
:1080E0001023CDE90234036815469E6912686B4679
:1080F000CDE90044B0479DF8043003F00603062B99
:1081000003BF009B2B600120204604B070BD009887
:10811000904214BF012006207047000010B5034BA9
:108120000360044600F0CDF8204610BD689B0B00AC
:1081300010B50446FFF7F2FF20460821FBF7AFFF1A
:10814000204610BD2DE9F0411F46DDE90834DDF879
:10815000188098450646154607D1079900F0B4F8EF
:1081600018B165710020BDE8F0813946304600F055
:10817000ABF80028F6D00123C4F800802571A37164
:10818000F0E738B515461C4600F09EF820B10823EC
:10819000E36006232560237138BD73B505460C46A0
:1081A00001921E4600F090F850B9032E08D82368BB
:1081B000019A5B692946204602B0BDE87040184725
:1081C00002B070BD10B5034B03600446FFF7A6FF75
:1081D000204610BDC89B0B0010B50446FFF7F2FF08
:1081E00020460C21FBF75BFF204610BDF7B5089F2A
:1081F000974205460E4614460AD0A86802680897BA
:10820000156A31462246AC4603B0BDE8F0406047EF
:108210001946019300F058F8019B0028EDD0062084
:1082200003B0F0BD2DE9F14F0D461946DDE90A4BCB
:10823000DDE90CA681461746984600F045F890B156
:10824000002D3460377109DB61198A450CBF0621A6
:108250000121B171002001B0BDE8F08F0235F9D1E4
:108260000123B371F6E7544506D15946484600F05C
:108270002BF808B17771EDE7D9F808000368CDE96C
:108280000CA6CDE90A4BDC693A4643462946A4468A
:1082900001B0BDE8F04F60472DE9F04107460C46BC
:1082A00015461E46FFF76DFF48B9B86803689F6919
:1082B0002A4633462146BC46BDE8F0416047BDE84A
:1082C000F081704700207047814208B50ED04068A9
:1082D00003782A2B0CD049680B782A2B08BF013170
:1082E00000F048FCB0FA80F0400908BD0120FCE72E
:1082F0000020FAE781F0004102E000BF83F0004374
:1083000030B54FEA41044FEA430594EA050F08BF30
:1083100090EA020F1FBF54EA000C55EA020C7FEAF4
:10832000645C7FEA655C00F0E2804FEA5454D4EB71
:108330005555B8BF6D420CDD2C4480EA020281EA3B
:10834000030382EA000083EA010180EA020281EA73
:108350000303362D88BF30BD11F0004F4FEA0131C5
:108360004FF4801C4CEA113102D0404261EB4101D4
:1083700013F0004F4FEA03334CEA133302D052425A
:1083800063EB430394EA050F00F0A780A4F1010416
:10839000D5F1200E0DDB02FA0EFC22FA05F2801850
:1083A00041F1000103FA0EF2801843FA05F3594136
:1083B0000EE0A5F120050EF1200E012A03FA0EFCB5
:1083C00028BF4CF0020C43FA05F3C01851EBE371DF
:1083D00001F0004507D54FF0000EDCF1000C7EEBFC
:1083E00000006EEB0101B1F5801F1BD3B1F5001F3A
:1083F0000CD349085FEA30004FEA3C0C04F1010459
:108400004FEA445212F5800F80F09A80BCF1004F81
:1084100008BF5FEA500C50F1000041EB045141EA03
:10842000050130BD5FEA4C0C404141EB0101013CCC
:1084300028BFB1F5801FE9D291F0000F04BF0146BB
:108440000020B1FA81F308BF2033A3F10B03B3F18D
:1084500020020CDA0C3208DD02F1140CC2F10C021D
:1084600001FA0CF021FA02F10CE002F11402D8BF7B
:10847000C2F1200C01FA02F120FA0CFCDCBF41EA47
:108480000C019040E41AA2BF01EB0451294330BD16
:108490006FEA04041F3C1CDA0C340EDC04F11404F3
:1084A000C4F1200220FA04F001FA02F340EA0300CA
:1084B00021FA04F345EA030130BDC4F10C04C4F110
:1084C000200220FA02F001FA04F340EA03002946F0
:1084D00030BD21FA04F0294630BD94F0000F83F43A
:1084E000801306BF81F480110134013D4EE77FEA1D
:1084F000645C18BF7FEA655C29D094EA050F08BF69
:1085000090EA020F05D054EA000C04BF1946104649
:1085100030BD91EA030F1EBF0021002030BD5FEA8D
:10852000545C05D14000494128BF41F0004130BDB5
:1085300014F580043CBF01F5801130BD01F0004509
:1085400045F0FE4141F470014FF0000030BD7FEA7C
:10855000645C1ABF194610467FEA655C1CBF0B4677
:10856000024650EA013406BF52EA033591EA030F8E
:1085700041F4002130BD00BF90F0000F04BF002186
:10858000704730B54FF4806404F132044FF00005B9
:108590004FF0000150E700BF90F0000F04BF002132
:1085A000704730B54FF4806404F1320410F0004598
:1085B00048BF40424FF000013EE700BF42004FEA93
:1085C000E2014FEA31014FEA02701FBF12F07F4310
:1085D00093F07F4F81F06051704732F07F4208BFC7
:1085E000704793F07F4F04BF41F40021704730B5CE
:1085F0004FF4607401F0004521F000411CE700BF1A
:1086000050EA010208BF704730B54FF000050AE09C
:1086100050EA010208BF704730B511F0004502D59D
:10862000404261EB41014FF4806404F132045FEA9F
:10863000915C3FF4D8AE4FF003025FEADC0C18BF48
:1086400003325FEADC0C18BF033202EBDC02C2F13A
:10865000200300FA03FC20FA02F001FA03FE40EACC
:108660000E0021FA02F11444BDE600BF70B54FF0D0
:10867000FF0C4CF4E06C1CEA11541DBF1CEA1355AE
:1086800094EA0C0F95EA0C0F00F0DEF82C4481EA16
:10869000030621EA4C5123EA4C5350EA013518BF36
:1086A00052EA033541F4801143F4801338D0A0FB23
:1086B00002CE4FF00005E1FB02E506F00042E0FBD0
:1086C00003E54FF00006E1FB03569CF0000F18BFD6
:1086D0004EF0010EA4F1FF04B6F5007F64F540747E
:1086E00004D25FEA4E0E6D4146EB060642EAC62111
:1086F00041EA55514FEAC52040EA5E504FEACE2E7E
:10870000B4F1FD0C88BFBCF5E06F1ED8BEF1004F80
:1087100008BF5FEA500E50F1000041EB045170BDFC
:1087200006F0004646EA010140EA020081EA030140
:10873000B4EB5C04C2BFD4EB0C0541EA045170BD3C
:1087400041F480114FF0000E013C00F3AB8014F1B6
:10875000360FDEBF002001F0004170BDC4F10004FF
:10876000203C35DA0C341BDC04F11404C4F1200580
:1087700000FA05F320FA04F001FA05F240EA0200DB
:1087800001F0004221F0004110EBD37021FA04F611
:1087900042EB06015EEA430E08BF20EAD37070BDCB
:1087A000C4F10C04C4F1200500FA04F320FA05F02A
:1087B00001FA04F240EA020001F0004110EBD3702C
:1087C00041F100015EEA430E08BF20EAD37070BD9C
:1087D000C4F1200500FA05F24EEA020E20FA04F375
:1087E00001FA05F243EA020321FA04F001F0004124
:1087F00021FA04F220EA020000EBD3705EEA430E95
:1088000008BF20EAD37070BD94F0000F0FD101F0C3
:108810000046400041EB010111F4801F08BF013CFC
:10882000F7D041EA060195F0000F18BF704703F03A
:108830000046520043EB030313F4801F08BF013DC1
:10884000F7D043EA0603704794EA0C0F0CEA13557D
:1088500018BF95EA0C0F0CD050EA410618BF52EA37
:108860004306D1D181EA030101F000414FF000003D
:1088700070BD50EA410606BF1046194652EA43064B
:1088800019D094EA0C0F02D150EA013613D195EABF
:108890000C0F05D152EA03361CBF104619460AD107
:1088A00081EA030101F0004141F0FE4141F4700111
:1088B0004FF0000070BD41F0FE4141F4780170BD01
:1088C00070B54FF0FF0C4CF4E06C1CEA11541DBF66
:1088D0001CEA135594EA0C0F95EA0C0F00F0A7F868
:1088E000A4EB050481EA030E52EA03354FEA013195
:1088F00000F088804FEA03334FF0805545EA1313A8
:1089000043EA12634FEA022245EA111545EA10656F
:108910004FEA00260EF000419D4208BF964244F106
:10892000FD0404F5407402D25B084FEA3202B61A25
:1089300065EB03055B084FEA32024FF480104FF4F9
:10894000002CB6EB020E75EB030E22BFB61A75466D
:1089500040EA0C005B084FEA3202B6EB020E75EB00
:10896000030E22BFB61A754640EA5C005B084FEA68
:108970003202B6EB020E75EB030E22BFB61A754635
:1089800040EA9C005B084FEA3202B6EB020E75EB40
:10899000030E22BFB61A754640EADC0055EA060E01
:1089A00018D04FEA051545EA16754FEA06164FEA44
:1089B000C30343EA52734FEAC2025FEA1C1CC0D1F0
:1089C00011F4801F0BD141EA00014FF000004FF07D
:1089D000004CB6E711F4801F04BF01430020B4F13E
:1089E000FD0C88BFBCF5E06F3FF6AFAEB5EB030CF6
:1089F00004BFB6EB020C5FEA500C50F1000041EBF3
:108A0000045170BD0EF0004E4EEA113114EB5C04BF
:108A1000C2BFD4EB0C0541EA045170BD41F4801192
:108A20004FF0000E013C90E645EA060E8DE60CEA9A
:108A3000135594EA0C0F08BF95EA0C0F3FF43BAFB7
:108A400094EA0C0F0AD150EA01347FF434AF95EA6E
:108A50000C0F7FF425AF104619462CE795EA0C0F52
:108A600006D152EA03353FF4FDAE1046194622E71F
:108A700050EA410618BF52EA43067FF4C5AE50EAF9
:108A800041047FF40DAF52EA43057FF4EBAE12E7E9
:108A90004FEA410212F5001215D211D56FF4787326
:108AA000B3EB625212D94FEAC12343F0004343EAC9
:108AB000505311F0004F23FA02F018BF40427047A4
:108AC0004FF00000704750EA013005D111F000402E
:108AD00008BF6FF0004070474FF00000704700BFC4
:108AE000002301461A46184600F05EB80A44914237
:108AF00000F1FF3300D1704710B511F8014B03F8B6
:108B0000014F9142F9D110BD02440346934200D176
:108B1000704703F8011BF9E738B5104B1D68AB6BC4
:108B20000446B3B91820FDF769FF0246A86320B9CF
:108B30000B4B0C484221FDF791FF0B490B4BC0E951
:108B400000130B4B83600B23838100210120C2E9BA
:108B50000401AB6B00221C615A6138BD68E403203C
:108B6000019C0B00189C0B000E33CDAB34126DE64C
:108B7000ECDE050010F8012B11F8013B012A28BF9B
:108B80009A42F7D0D01A7047034611F8012B03F828
:108B9000012B002AF9D17047034613F8012B002A54
:108BA000FBD1181A013870472DE9F843DFF8B88077
:108BB0000646D8F800001F460D46914600F056F8CC
:108BC000254B1C6834B9254C1C60254B13B11B6820
:108BD000C4F8883063681F2B07DDD8F8000000F068
:108BE00047F84FF0FF30BDE8F8834EB3D4F8880063
:108BF00088B91C4B23B9D8F8000000F038F8F0E72A
:108C00004FF48470FDF7FAFE0028F4D00023C0E989
:108C10004033C4F88800636840F8239001229A40EA
:108C200000EB8301D0F800311343C0F80031022E6D
:108C3000C1F8807002BFD0F804311343C0F804318A
:108C40006368D8F800005A1C0233626044F823506D
:108C500000F00EF80020C6E7E8E703205CE70320F9
:108C600000000000FD690B00CCE403207047704752
:108C70007047000021400B005D400B0085400B0059
:108C800089400B000000000043616C6C206F6E2077
:108C900070757265207669727475616C00417373CA
:108CA000657274696F6E4661696C757265202A70B1
:108CB0005F70696E203C20283332202B203136290A
:108CC000004E6F204368616E6765202D2043616E02
:108CD00063656C6C696E6720434D440A007B226FAC
:108CE0006E223A747275652C22736174223A002CDC
:108CF00022627269223A002C22687565223A007B52
:108D0000226F6E223A66616C73657D0053656E64F6
:108D1000696E6720436F6D6D616E6420746F2048CB
:108D2000756500505554202F6170692F002F6C69B4
:108D3000676874732F002F737461746520485454EE
:108D4000502F312E3100486F73743A2000436F6EFC
:108D500074656E742D4C656E6774683A2000436FBD
:108D60006E74656E742D547970653A2074657874EC
:108D70002F706C61696E3B636861727365743D55F9
:108D800054462D380046726F6D2048756500537744
:108D9000697463684F4E202569200A003C3F786D56
:108DA0006C2076657273696F6E3D22312E30222001
:108DB000656E636F64696E673D227574662D382237
:108DC0003F3E3C733A456E76656C6F706520786DFA
:108DD0006C6E733A733D22687474703A2F2F73630C
:108DE00068656D61732E786D6C736F61702E6F7234
:108DF000672F736F61702F656E76656C6F70652F6E
:108E00002220733A656E636F64696E675374796C80
:108E1000653D22687474703A2F2F736368656D61C5
:108E2000732E786D6C736F61702E6F72672F736F16
:108E300061702F656E636F64696E672F223E3C73AD
:108E40003A426F64793E3C753A53657442696E618B
:108E50007279537461746520786D6C6E733A753DE8
:108E60002275726E3A42656C6B696E3A7365727602
:108E70006963653A62617369636576656E743A31F8
:108E8000223E3C42696E61727953746174653E3171
:108E90003C2F42696E61727953746174653E3C2F58
:108EA000753A53657442696E617279537461746581
:108EB0003E3C2F733A426F64793E3C2F733A456EC5
:108EC00076656C6F70653E00504F5354202F75705F
:108ED0006E702F636F6E74726F6C2F626173696353
:108EE0006576656E743120485454502F312E310010
:108EF000436F6E74656E742D547970653A20746595
:108F000078742F786D6C3B20636861727365743D73
:108F10007574662D3800534F4150414354494F4EAC
:108F20003A202275726E3A42656C6B696E3A7365CF
:108F300072766963653A62617369636576656E74BA
:108F40003A312353657442696E6172795374617466
:108F5000652200436F6E6E656374696F6E3A206BB5
:108F60006565702D616C69766500737769746368F7
:108F70004F4646202569200A003C3F786D6C2076DC
:108F8000657273696F6E3D22312E302220656E63EB
:108F90006F64696E673D227574662D38223F3E3CD2
:108FA000733A456E76656C6F706520786D6C6E7384
:108FB0003A733D22687474703A2F2F736368656D3D
:108FC00061732E786D6C736F61702E6F72672F7383
:108FD0006F61702F656E76656C6F70652F222073E0
:108FE0003A656E636F64696E675374796C653D2290
:108FF000687474703A2F2F736368656D61732E788F
:109000006D6C736F61702E6F72672F736F61702F4D
:10901000656E636F64696E672F223E3C733A426FE0
:1090200064793E3C753A53657442696E6172795356
:109030007461746520786D6C6E733A753D2275723B
:109040006E3A42656C6B696E3A73657276696365F8
:109050003A62617369636576656E743A31223E3CAB
:1090600042696E61727953746174653E303C2F427F
:10907000696E61727953746174653E3C2F753A5321
:10908000657442696E61727953746174653E3C2FF8
:10909000733A426F64793E3C2F733A456E76656C45
:1090A0006F70653E00496F544E6574776F726B0048
:1090B00025730A00257300543A2028256925632961
:1090C0000054454D502044524F5020444554454390
:1090D0005445440A0025690A003139322E313638A8
:1090E0002E312E3330003139322E3136382E312E9A
:1090F0003331003139322E3136382E312E333200B1
:109100003139322E3136382E312E33330031393267
:109110002E3136382E312E3334004D516C5A7A6947
:10912000524F30576169354D734D486C6C387841FA
:109130005541517177383551727238744D33374615
:109140003354003139322E3136382E312E3500006D
:10915000000000000000000000000000000000000F
:109160000000000000000000000007C00000000038
:1091700000000FF00000080000003FF80000300081
:1091800000007FFC000070000000FFFE0000700087
:109190000000FFFF000070100001F3CF0000F0108E
:1091A0000001F3CF8000F0180001F3CF8001F00C34
:1091B0000001F3CF8003E00F0001FFFF801FC00F0D
:1091C000F800FFFF803FC007FC01FE7F803FC00723
:1091D000FE01FE7F803FC007FF01FE7F807FC0034E
:1091E000FF03FE7FC1FF8001FFCFFF7FFFFF8000F5
:1091F000FFFFFFFFFFFF00003FFFFFFFFFF8000042
:109200003FFFFFFFFFF000001FFFFFFFFFE0000038
:109210000FFFFFFFFFE0000007FFFFFFFFE0000080
:1092200001FFFFFFFFE0000000FFFFFFFFE0000085
:1092300000FFFFFFFFE00000007FFFFFFFC0000016
:10924000007FFFFFFFC00000003FFFFFFF80000026
:10925000001FFFFFFE000000001FFFFFFC000000DA
:10926000000FFFFFFC000000000FFFFFFC000000EC
:10927000000FFFFFFC0000000007FFFFFC000000E4
:109280000003FFFFFC0000000000FFFFF8000000EB
:1092900000003FFFF800000000001FFFF800000082
:1092A00000000FFFF000000000000FFFF0000000C2
:1092B00000000FFFE0000000000007FFC0000000FA
:1092C000000003FF80000000000001FF000000001C
:1092D000000001FF00000000000000FE0000000090
:1092E000000000FE000000000000007E0000000002
:1092F0000000007C000000000000007C0000000076
:109300000000007800000000000000700000000075
:1093100000000060000000000000004000000000AD
:10932000000000400000000000000080000000007D
:10933000000000000000000000000000000000002D
:1093400000000000000000000000000000000053CA
:109350006F66747761726520535049004265676992
:109360006E2049324300426567696E20686172640D
:10937000776172652053504900426567696E2073BA
:109380006F667477617265205350490000000000D9
:10939000003E5B4F5B3E3E6B4F6B3E1C3E7C3E1C7B
:1093A000183C7E3C181C577D571C1C5E7F5E1C00C1
:1093B000183C1800FFE7C3E7FF0018241800FFE778
:1093C000DBE7FF30483A060E2629792926407F053B
:1093D0000507407F05253F5A3CE73C5A7F3E1C1C51
:1093E00008081C1C3E7F14227F22145F5F005F5F11
:1093F00006097F017F006689956A606060606094FD
:10940000A2FFA29408047E040810207E2010080801
:109410002A1C08081C2A08081E101010100C1E0C0C
:109420001E0C30383E3830060E3E0E06000000009E
:109430000000005F00000007000700147F147F1485
:10944000242A7F2A122313086462364956205000CA
:1094500008070300001C2241000041221C002A1CB6
:109460007F1C2A08083E08080080703000080808A1
:109470000808000060600020100804023E514945C1
:109480003E00427F400072494949462141494D33DF
:109490001814127F1027454545393C4A4949314146
:1094A000211109073649494936464949291E000014
:1094B0001400000040340000000814224114141469
:1094C0001414004122140802015909063E415D5955
:1094D0004E7C1211127C7F494949363E414141225E
:1094E0007F4141413E7F494949417F090909013E88
:1094F000414151737F0808087F00417F41002040AF
:10950000413F017F081422417F404040407F021CC0
:10951000027F7F0408107F3E4141413E7F090909D7
:10952000063E4151215E7F091929462649494932A3
:1095300003017F01033F4040403F1F2040201F3F69
:109540004038403F631408146303047804036159EE
:10955000494D43007F414141020408102000414130
:10956000417F0402010204404040404000030708DC
:109570000020545478407F284444383844444428D8
:10958000384444287F385454541800087E0902187F
:10959000A4A49C787F0804047800447D4000204007
:1095A000403D007F1028440000417F40007C04784B
:1095B00004787C080404783844444438FC18242493
:1095C0001818242418FC7C08040408485454542413
:1095D00004043F44243C4040207C1C2040201C3C90
:1095E0004030403C44281028444C9090907C446487
:1095F000544C44000836410000007700000041361A
:10960000080002010204023C2623263C1EA1A1619F
:10961000123A4040207A38545455592155557941D1
:109620002154547841215554784020545579400CA8
:109630001E52721239555555593954545459395589
:109640005454580000457C410002457D42000145CC
:109650007C40F0292429F0F0282528F07C54554539
:10966000002054547C547C0A097F493249494932CC
:109670003248484832324A4848303A4141217A3AE1
:1096800042402078009DA0A07D39444444393D40AB
:1096900040403D3C24FF2424487E4943662B2FFC58
:1096A0002F2BFF0929F620C0887E09032054547906
:1096B000410000447D413048484A32384040227AD7
:1096C000007A0A0A727D0D19317D2629292F282654
:1096D0002929292630484D4020380808080808085C
:1096E0000808382F10C8ACBA2F102834FA00007BB5
:1096F000000008142A142222142A1408AA00550073
:10970000AAAA55AA55AA000000FF00101010FF00D9
:10971000141414FF001010FF00FF1010F010F014CC
:109720001414FC001414F700FF0000FF00FF1414D1
:10973000F404FC141417101F10101F101F1414141D
:109740001F00101010F0000000001F101010101F5C
:1097500010101010F010000000FF1010101010106A
:10976000101010FF10000000FF140000FF00FF00A9
:10977000001F10170000FC04F41414171017141421
:10978000F404F40000FF00F714141414141414F774
:1097900000F7141414171410101F101F141414F4CD
:1097A000141010F010F000001F101F0000001F1414
:1097B000000000FC140000F010F01010FF10FF1467
:1097C0001414FF141010101F00000000F010FFFF11
:1097D000FFFFFFF0F0F0F0F0FFFFFF0000000000DF
:1097E000FFFF0F0F0F0F0F38444438447C2A2A3EE6
:1097F000147E02020606027E027E02635549416320
:109800003844443C04407E201E2006027E02029919
:10981000A5E7A5991C2A492A1C4C7201724C304AB2
:109820004D4D303048784830BC625A463D3E49493B
:1098300049007E0101017E2A2A2A2A2A44445F44E3
:109840004440514A444040444A51400000FF010313
:10985000E080FF000008086B6B08361236243606DD
:109860000F090F060000181800000010100030400B
:10987000FF0101001F01011E00191D1712003C3CD1
:109880003C3C000000000000000000000000000060
:10989000000000000000000021580B00A56F0B0025
:1098A000A5400B00A5540B00CB550B00E7550B0052
:1098B00063550B0001560B0037560B0053560B0037
:1098C0000000000000000000AD5B0B003D5C0B00E1
:1098D00021580B00A56F0B00B15B0B00A5540B00CA
:1098E000395A0B00C9580B0063550B0001560B0089
:1098F00037560B0053560B002C01000018000000D7
:10990000F40100002C0100005000000000000000E5
:109910000000000000000000000000001B6B0B00B6
:10992000116B0B00076B0B00FD6A0B00F16A0B005B
:10993000E56A0B00816E0B00896E0B00D96A0B0083
:10994000D16A0B00C76A0B00BD6A0B00B96E0B0031
:109950000000000000000000396B0B00836B0B005F
:109960005B6B0B003B6B0B00636B0B006B6B0B00BB
:10997000736B0B007B6B0B0000000000000000000D
:10998000256D0B00156D0B00176D0B0061707000DD
:109990000000000000000000416E0B004B6E0B0049
:1099A000556E0B005F6E0B00696E0B00756E0B0041
:1099B000816E0B00896E0B00916E0B009D6E0B008B
:1099C000A56E0B00AF6E0B00B96E0B0000081018EF
:1099D00020283038776972696E6700726563762077
:1099E0006572726F72203D20256400000000000047
:1099F000000000003D750B0061750B004B7A0B00F9
:109A00006F750B0041750B000000000000000000A6
:109A10004D430B0081430B00B9740B00D3740B0052
:109A2000E1780B00FD740B0057770B0031750B00CC
:109A3000E9770B0029760B0085770B0095790B00F1
:109A400025770B0033750B00E5740B0075750B0063
:109A500009760B0025592D256D2D25645425483A8E
:109A6000254D3A2553257A0061736374696D65004D
:109A70000000000000000000657A0B00D17A0B00A6
:109A8000A97A0B00A56F0B00797A0B00957A0B0071
:109A9000877A0B00A37A0B00677A0B006B7A0B00B6
:109AA00000000000000000000F7B0B00777B0B0024
:109AB0004D7B0B00A56F0B003F7B0B00117B0B0058
:109AC000217B0B00717B0B00317B0B00097B0B00B2
:109AD00000000000000000006F7C0B00657C0B00A4
